:100000000C9463030C9480030C9480030C94800381
:100010000C9480030C9480030C9480030C94800354
:100020000C9480030C9480030C94E42D0C94B62E55
:100030000C9445240C9480030C9480030C9480034E
:100040000C9480030C9480030C9480030C94800324
:100050000C9480030C9492240C9480030C948003E1
:100060000C9480030C9480030C9480030C94800304
:100070000C9480030C9480030C9480030C948003F4
:100080000C9480030C9480030C9480030C948003E4
:100090000C9480030C9480030C9480030C948003D4
:1000A0000C9480030C9480030C948003D603D90332
:1000B000DC03DF03E203E503E80388118B119311EE
:1000C00098119D11A211A711AC11B111B611BB115C
:1000D000C011C211C511C811CB11CE11D111D3114C
:1000E000D811DC18DC180E190E1957197919A91A2C
:1000F0000E1B8619211A331A331AA01A0E1B0E1B57
:10010000081BB51AD61ABD1AC01AC91AC51ACE1AB2
:10011000D91BD91BEB1BEB1BE21BEB1BEB1BEB1BDC
:10012000D91BD91BE71BEB1BEB1BE71BB028A62831
:10013000B328FB28FF28FF28FB28FF28FF28D42806
:10014000FF28DE28E828FF28FF28FF28FF28FB28B3
:10015000FF28FF28FB28FF28C128FF28FF28F828B0
:10016000F828F828F828F828F828F828F828F8288F
:10017000FD28FF28B028A328FF28FF28FF28FF28F4
:10018000FF28FF28FF28FF28FF28FF28FD28FF2839
:10019000FF28FB28FF28F628F628F628F628F62858
:1001A000F628F628F628F628FD28232F4A2F423075
:1001B0004A2F4230962FB92F423010301F301E0088
:1001C00014000F001D00E00000001F000B001600CF
:1001D0001000015100002000150011000600E10090
:1001E00028002100090017001900E2002C0022005D
:1001F00034000700050000000000460038002B0016
:1002000000000000E300000000000000000000000B
:1002100000000000000000000000000000003900A5
:100220004C002A00000000002900230033001300C6
:100230001A000000000024001C000C000A00E60068
:100240002C002500120004003600E50028002600DE
:100250001800080037000151000027000D000E00B3
:100260001B00E40000003A00000000000000010054
:1002700000003B004B0050004E00010000003C001D
:10028000520051006500010001003D004A004F008E
:100290004D00010001003E0031023100000000006D
:1002A0000000440000000000000000000100000009
:1002B000000000000000000000000000000000003E
:1002C00000000000000045000000000000000000E9
:1002D00001003F0035022E00350000000000400004
:1002E0002F022D022F0001000100410030022D00DD
:1002F000300001000100420000002E020000010059
:10030000000043000000000000000100000032195E
:100310000A00047F3F1F643214643214783C1E1EAE
:10032000140A052223252628292A2C2D2F30323382
:100330003536383A3B3D3E4042434547494A4C4EAC
:100340005051535557595A5C5E6062646668696BD8
:100350006D6F71737577797B7D7F81838587898ADE
:100360008C8E90929496989A9C9E9FA1A3A5A7A8E4
:10037000AAACAEAFB1B3B4B6B8B9BBBCBEBFC1C214
:10038000C3C5C6C7C9CACBCCCDCED0D1D2D2D3D4A7
:10039000D5D6D7D7D8D9D9DADADBDBDBDCDCDCDCC5
:1003A000DCDDDDDDDDDCDCDCDCDCDBDBDBDADAD993
:1003B000D9D8D7D7D6D5D4D3D2D2D1D0CECDCCCB15
:1003C000CAC9C7C6C5C3C2C1BFBEBCBBB9B8B6B433
:1003D000B3B1AFAEACAAA8A7A5A3A19F9E9C9A98C3
:1003E000969492908E8C8A89878583817F7D7B7994
:1003F000777573716F6D6B6968666462605E5C5A75
:100400005957555351504E4C4A4947454342403E37
:100410003D3B3A3836353332302F2D2C2A292826C9
:10042000252322FFAA7F554000010101010101019E
:100430000101020202020202020202030303030399
:100440000303030404040404040405050505050668
:100450000606060607070707070808080809090926
:10046000090A0A0A0B0B0B0C0C0C0D0D0D0E0E0ECF
:100470000F0F0F1010111111121213131414151560
:1004800016161717181819191A1A1B1B1C1D1D1ED2
:100490001E1F202021222223242425262627282926
:1004A000292A2B2C2D2D2E2F303132323334353654
:1004B0003738393A3B3C3D3E3F4041424344454654
:1004C0004748494A4C4D4E4F505153545556585930
:1004D0005A5B5D5E5F616264656668696B6C6D6FD7
:1004E0007072737577787A7B7D7E8082838587884A
:1004F0008A8C8E8F91939596989A9C9EA0A2A3A584
:10050000A7A9ABADAFB1B3B5B7BABCBEC0C2C4C684
:10051000C9CBCDCFD1D4D6D8DBDDDFE2E4E7E9EB40
:10052000EEF0F3F5F8FAFDFF0403300000001603C7
:100530004500720067006F0044006F0078002000E3
:1005400045005A00000030035A00530041002000CB
:1005500054006500630068006E006F006C006F005F
:100560006700790020004C006100620073002000E9
:1005700049006E00630000000403090409023B0007
:10058000020100A0FA090400000103010100092191
:10059000110100012240000705810308000A090437
:1005A0000100010300000009211101000122BC002B
:1005B0000705820320000A1201100100000008ED67
:1005C000FE071301000102030105010902A10185D3
:1005D000020901A100050919012905150025019548
:1005E0000575018102950175038101050109300935
:1005F000311581257F9502750881060938158125F9
:100600007F950175088106050C0A38021581257F42
:10061000950175088106C0C005010980A101850307
:1006200019012AB700150126B70095017510810040
:10063000C0050C0901A101850419012AA0021501B8
:1006400026A002950175108100C005010906A101CF
:100650008505050719E029E71500250195087501AD
:1006600081020507190029EF1500250195F0750194
:100670008102050819012905950575019102950169
:1006800075039101C005010906A101050719E029BB
:10069000E71500250195087501810295017508810E
:1006A000010507190029FF150026FF0095067508AA
:1006B000810005081901290595057501910295012B
:1006C00075039101C00011241FBECFEFDAE0DEBF39
:1006D000CDBF12E0A0E0B1E0E8E0F6E602C0059090
:1006E0000D92A237B107D9F724E0A2E7B2E001C02A
:1006F0001D92AD34B207E1F70E94222B0C94023315
:100700000C94000080B38C7080BB81B3836F81BB7D
:10071000089584B1807F84B985B1807F85B98AB11D
:10072000837F8AB98BB1837F8BB93E9846980895B1
:10073000CF93E82F873080F580910A0190910B01CB
:10074000892B09F047C0CE2F64E670E080E40E9458
:10075000FF1490930B0180930A01892BD1F464E676
:1007600070E082E10E94561590930B0180930A017C
:10077000892B79F481E090E001C0880FCA95EAF7EF
:1007800064E670E080950E94561590930B0180936B
:100790000A01CF910C94AB1590E0FC013797E7303C
:1007A000F105C0F4EA5AFF4F0C94DA30209A2898E9
:1007B00011C0219A29980EC0229A2A980BC0239A18
:1007C0002B9808C0529A5A9805C0539A5B9802C059
:1007D0003E9A4698CF910895CF93873040F5809107
:1007E0000A0190910B01892B59F564E670E081E4D0
:1007F0000E94FF1490930B0180930A01892B11F042
:10080000C0E011C084E690E00E94861597FF05C005
:1008100090930B0180930A01F3CFC82FC0951092DB
:100820000B0110920A010E94AB158C2F0AC09FB1D8
:100830008FB1807F869586959370892B809501C0B6
:1008400080E0CF91089508950C9423040C94230420
:100850000E94860590E090930B0180930A010E940C
:1008600089030E948203E3E7F2E0A1E8B2E011927B
:100870001D9282E0E138F807D1F78EE00E94660908
:100880000C94C8060E94860590E090930B0180931B
:100890000A010E9489030E948203E3E7F2E01192B9
:1008A00082E0E138F807D9F70895EF92FF920F93AD
:1008B0001F93CF93DF9380910A0190910B01892BB5
:1008C00091F0809172028F5F8093720281110BC050
:1008D0000E94860590E090930B0180930A01892B7A
:1008E00011F40E94F80401E812E0C0E0F12C87E066
:1008F000E82EEC0E8C2F0E9498038E2D0E949803F8
:100900008C2F0E94EC03F8019081891719F08083E5
:10091000D1E001C0D0E08E2D0E94EC03F801978158
:10092000891719F0878381E001C080E0D82BFD2A68
:100930000E948903CF5F0F5F1F4FC730C1F62F2D75
:100940004EE063E772E081E892E00E94DF090E94D6
:10095000D20681E0DF91CF911F910F91FF90EF9030
:100960000895E82FF0E0ED58FD4F80810895089537
:10097000CF92DF92EF92FF920F931F93CF93DF936B
:100980006C01062F0E94F91464E670E084E80E946E
:10099000FF14CC2DDD2DE12CF12C10E0E016F1063A
:1009A000CCF464E670E088810E94561564E670E03D
:1009B00089810E94561564E670E08A810E9456156E
:1009C00064E670E08B810E9456158FEFE81AF80AF2
:1009D0002496E4CF0E94AB15B801C601DF91CF91F8
:1009E0001F910F91FF90EF90DF90CF900C94E21148
:1009F00056985E9825982D9826982E9827982F9887
:100A00008FEF90E0909389008093880090938B0003
:100A100080938A0090938D0080938C00259A2D9A64
:100A20002FEF80E792E0215080409040E1F700C036
:100A30000000269A2E9A2FEF80E792E02150804006
:100A40009040E1F700C00000279A2F9A2FEF80E72F
:100A500092E0215080409040E1F700C000002598CE
:100A60002D982FEF80E792E0215080409040E1F7F1
:100A700000C0000026982E982FEF80E792E02150CA
:100A800080409040E1F700C0000027982F985698CA
:100A90005E9825982D9826982E9827982F98089537
:100AA00089EA8093800089E08093810024982C98C3
:100AB0003F988AB18F7C8AB96E98479A8BB18063D0
:100AC0008BB9769A0E94A5226093EC037093ED0394
:100AD0008093EE039093EF0367708FEF689FB001F0
:100AE000112475956795759567957727709389009B
:100AF0006093880070938B0060938A0070938D00E0
:100B000060938C000E94F8040C94240480E290E02E
:100B100090930B0180930A0180918F0281110EC086
:100B20000E94F91481E080938F022FEF83ED90E310
:100B3000215080409040E1F700C0000064E670E082
:100B400080E40E94FF1490930B0180930A01892B8B
:100B500009F04EC064E670E080E00E945615909364
:100B60000B0180930A01892B09F042C064E670E012
:100B700080E00E94561590930B0180930A01892B07
:100B8000B9F564E670E08FE30E94561590930B016F
:100B900080930A01892B61F50E94AB1564E670E031
:100BA00080E40E94FF1490930B0180930A01892B2B
:100BB000F9F464E670E08CE00E94561590930B0106
:100BC00080930A01892BA1F464E670E080E00E9422
:100BD000561590930B0180930A01892B49F464E622
:100BE00070E08FE30E94561590930B0180930A01E9
:100BF0000E94AB1580910A0108951092EC031092A7
:100C0000ED031092EE031092EF0384E08061809375
:100C1000EC036091EC037091ED038091EE039091F1
:100C2000EF030E94A9220C94B5229C013A9521154C
:100C30003F4138F5DC01AA27B270AC01442754705B
:100C40009C012227387094FF0FC090FF02C080E102
:100C500001C080E0AB2B09F08062452B09F0806475
:100C6000232B69F080680BC0892F8170AB2B09F0B2
:100C70008260452B09F08460232B09F08860FB011A
:100C800009940895CF93DF93EC01805E9109089752
:100C900010F0209719F46FE878E102C06FE97BE16A
:100CA000CE010E9415068C2FDF91CF910C94651711
:100CB000CF93DF93EC010E941418CE01805E91095E
:100CC000089710F0209719F466E978E102C066EA07
:100CD0007BE1CE01DF91CF910C941506CF93DF938A
:100CE000EC010E944206CE01DF91CF910C94580690
:100CF00081E0089581E008950C947A0608950C949B
:100D00007E061F93CF93DF9300D000D01F92CDB704
:100D1000DEB749835A836B833091150389819A81A9
:100D2000311114C0662359F0222349F00E94172183
:100D3000182F682F89819A810E94BE2003C00E94CB
:100D4000EA20182F69817A81812F04C00E9417211F
:100D500069817A810F900F900F900F900F90DF9123
:100D6000CF911F910C944F07FC01262F4081518198
:100D70006281738184810C948106CF93DF93EC01AF
:100D800060E00E94B406BE01DF91CF910C947F0613
:100D90000E947422811102C00E9411230E9421121C
:100DA0000C9450050C942604282F2F7041F0822FAC
:100DB00090E02A3010F44D9608950697089587E242
:100DC00090E0089508950C94E20681E008950C9453
:100DD000E506CF93C82F0E94E3068C2F0E94E706FA
:100DE000CF91089508950E94C71B0E94F2062FEF2D
:100DF00084E39CE0215080409040E1F700C0000077
:100E00000C94B8240F931F93CF93DF93EC0161E010
:100E10000E94B4068C01BE010E947C068823A9F1C1
:100E2000BE01C8010E949512882379F1BE01C80154
:100E30000E944B13882349F1BE01C8010E949D13F3
:100E4000882319F1BE01C8010E94C8148823E9F063
:100E5000BE01C8010E9471118823B9F08A818823DC
:100E600069F001158CE5180731F00E3D1C4531F491
:100E70000E9411230AC00E94F30607C0CE01DF9131
:100E8000CF911F910F910C94780680E0DF91CF9164
:100E90001F910F91089580E090E00895089524E552
:100EA000829FC0011124FC0126E0729FE00DF11D1C
:100EB0001124E60FF11DEE0FFF1FE254FE4F859146
:100EC00094910895880F991FFC01E25FFC4F859172
:100ED00094910895CF93DF930E944F070E948F084B
:100EE000EC018115904508F041C0C11580E4D80798
:100EF00008F0D6C0C83ED10510F5C03ED10508F0B7
:100F00000AC1C83AD10578F4C53AD10508F0A7C09E
:100F1000C130D10509F4FFC008F4FBC0C430D105CD
:100F200008F0F9C0F6C0CF3BD10508F4A0C0C03C22
:100F3000D10508F4EEC0CE01805C9109A3C0C115B3
:100F400090E2D90758F4C11521E0D20708F0E3C0B8
:100F5000C03FD10508F4DDC0D065DDC0C11580E318
:100F6000D80708F093C0CE019F708CC0C11595E5DD
:100F7000D90708F043C0C11524E5D20708F0A7C07F
:100F8000C11582E5D80708F5C11591E5D90708F024
:100F90008AC0CE0174E0969587957A95E1F78370C3
:100FA0009C2F937021E030E002C0220F331F9A95EE
:100FB000E2F73C68382BCF70C695C69580E2C89F93
:100FC000E0011124C22BD32BA6C09E01237033272E
:100FD0008C2F86958695C115D34508F069C0C1E070
:100FE000D0E002C0CC0FDD1F2A95E2F720E2829FFD
:100FF000C0011124C82BD92BDC688DC0C1152AE58E
:10100000D207A0F4C11589E5D80708F06FC0C11553
:1010100096E5D90708F460C0C11528E5D20708F4A1
:1010200078C0DC2FCC27C06FD06A75C0C1158BE5A6
:10103000D80708F46EC0C1159CE5D90708F466C04E
:10104000CE0190568115904208F063C08D2F8F71AC
:101050000E942309DD27D0628F71D82B5CC0C55A4E
:10106000D0E0C85FDD4FC881D0E0D06454C0C85A1A
:10107000D0E0CC0FDD1FC652DE4F0990D881C02DC5
:10108000D46449C00E946207EC0145C0CE01992793
:10109000D3FF03C0EC01D86C3EC0EC01D06C3BC068
:1010A000DF70D06A38C0DC2FCC27C16FD06A33C064
:1010B000C1E0D0E002C0CC0FDD1F2A95E2F720E2AC
:1010C000829FC0011124C82BD92BDA6824C0DC2FE1
:1010D000CC27C46FD06A1FC08C2F0E9423098F7148
:1010E000C82FD0E0DC2FCC27D06215C08C2F8F709A
:1010F0000E94230994E0D695C7959A95E1F7CF70A1
:10110000D0E0DC2FCC27D069C82B05C0DD27D06606
:1011100002C0C0E0D0E0CE01DF91CF9108958238C7
:10112000910569F1B0F48133910509F46DC048F47B
:101130008932910509F463C08A32910509F469C0C6
:1011400008958533910509F455C089339105B9F0A7
:101150000895833E910569F138F4803E9105B1F020
:10116000823E910509F10895863E9105A9F1873ED9
:101170009105B9F1843E910509F064C023C0209126
:101180003A0420FD4FC021FD4DC0089580913A04DE
:1011900080FD44C080913B0480FF44C080913A04AC
:1011A00084FD42C083EE4DC080913A0482FF38C076
:1011B000F5CF80913A0482FD33C080913B0480FDDD
:1011C00031C0ECCF80913B0481FF32C080913A0462
:1011D00084FD2AC087EE35C080913A0483FF26C083
:1011E000F5CF80913A0483FD21C080913B0481FDBD
:1011F0001FC0ECCF80913A0485FD1CC01DC08091BA
:101200003A0485FD19C016C080913A0486FD16C0C7
:1012100017C080913A0486FD13C010C089E311C045
:1012200082EE0FC080EE0DC080E00BC086EE09C0DC
:1012300084EE07C089E205C085E303C08AE201C0ED
:1012400081E390E0089590913A0492FF0DC0282F19
:101250002871283019F4877F846006C0282F2471F4
:10126000243011F48B7F886093FF0DC0282F2871E4
:10127000283119F4877E846106C0282F2471243117
:1012800011F48B7E886120913B0420FF0DC0382F24
:101290003871383019F4877F816006C0382F31717A
:1012A000313011F48E7F886021FF0DC0282F287106
:1012B000283119F4877E816106C0282F21712131E0
:1012C00011F48E7E886194FD877E0895CF93C82F98
:1012D00090E00E9411318093940290939502282F00
:1012E000FC019BEF8E2F821B8C1710F49193FACF89
:1012F000CF9108950F931F93CF93DF93A62F109252
:10130000930230919402E32FF091950220E0C62FD2
:10131000D0E0BBEF0BEF10E09E2F931B981700F56A
:1013200090819B3FD9F0492F50E0A91728F0BE01CA
:10133000641B750BAB0106C0B801641B750BAB01D8
:101340004C0F5D1F052E000C660B770B4E315105BF
:101350006105710510F0B08301C021E03196DCCF4A
:1013600020939302DF91CF911F910F910895CF9316
:10137000DF93109296025091940230919302DB0118
:10138000EC01E52FF091950290E08E2F851B8417DC
:1013900078F489916C91681741F060816B3F21F47A
:1013A00020838C9331E001C091E031961196EDCF0E
:1013B0003093930290939602DF91CF910895DF923C
:1013C000EF92FF920F931F93CF93DF93EC018B016A
:1013D000E42ED22E0E947724AC016091910270918C
:1013E0009202909392028093910290919002292F01
:1013F00030E0261B370BC901840F951F6BEF70E09F
:101400000E949030F82E809390028091930288235E
:1014100019F16F2D8E2D0E947A09DD2069F02F2D94
:101420004E2DB801CE01DF91CF911F910F91FF900A
:10143000EF90DF900C94B70980919302882379F3A1
:10144000809196028111EBCFDF91CF911F910F9187
:10145000FF90EF90DF900895D110E1CFF1CFEF92A0
:10146000FF920F931F93CF93DF938B01682F11117E
:101470000AC0442329F0E82FF0E0E85DFB4F6491B7
:10148000762F862F75C0212F30E0E82FF0E044231F
:1014900021F0E85DFB4FE491F0E046E0049FC001DD
:1014A0001124CFEFD0E0BE010E9490304BEA4603FA
:1014B000C001479F900D1124800F911D800F911D39
:1014C000982F990F890FAE01421B530B4E9FD001ED
:1014D0004F9FB00D5E9FB00D11249B2F189FA00150
:1014E0001124452F55278E01041B150B0E9FA001BB
:1014F0000F9F500D1E9F500D11247E01E81AF10818
:10150000E29E8001E39E100DF29E100D1124212F0A
:101510003327C21BD30BCE9F9001CF9F300DDE9F90
:10152000300D112462307105A9F048F46115710580
:1015300069F061307105C9F48B2F752F0DC06430CF
:10154000710581F058F06630710579F47E2F8B2F8C
:10155000932F0DC0832F7B2F9E2F09C08E2F7B2FA3
:10156000952F05C08E2F732F02C07E2F852F692FD8
:10157000DF91CF911F910F91FF90EF90089541E07F
:101580000E942F0A0895FC01828120813181982FC9
:10159000281708F4922F391708F4932F9383391BD7
:1015A0003183291B2083891B828308950895CF935B
:1015B000DF93762FE901682F842F0E94BF0A798379
:1015C00068838A831B82DF91CF9108958091F00315
:1015D000282F269530E02115310519F4817082609D
:1015E00005C02B32310524F0817084658093F003AF
:1015F000089588E090E00C94A332CF92DF92EF92AE
:10160000FF926B017C010E94E60AB701A60188E007
:1016100090E0FF90EF90DF90CF900C94C132E0EF1C
:10162000F3E083E0808311828FEF828383831482CF
:1016300060817181828193810C94FD0A8091F00315
:1016400080FF02C08695089580E008959091F4038C
:10165000933018F49F5F9093F403882351F06091C6
:10166000F0037091F1038091F2039091F3030C94D5
:10167000FD0A089581E00C94260B9091F4039923C0
:1016800019F091509093F403882351F06091F00386
:101690007091F1038091F2039091F3030C94FD0A91
:1016A000089581E00C943D0BEF92FF920F931F93EE
:1016B000CF93DF93009110018091F00380FF0BC066
:1016C000C0910F0124E0C29FE0011124CB50DC4FF8
:1016D0007E0110E012C080911101909112018917D2
:1016E00078F724E0829FF0011124EB50FC4F118227
:1016F0001082128213828F5FF2CF101741F0C70160
:101700000E94C30A1F5F84E0E80EF11CF6CF612F30
:10171000CE01DF91CF911F910F91FF90EF900C942C
:10172000B8049091F00390FF14C0909111012091A2
:101730001201921760F434E0939FF0011124EB50F2
:10174000FC4F81836083428313829F5FF2CF0C94AE
:10175000540B0895CF93DF9300D000D0CDB7DEB700
:101760009091F00390FF0AC09E012F5F3F4F0E94AF
:10177000D70A4B8169818A810E94910B0F900F904B
:101780000F900F90DF91CF910895CF93DF93EC01ED
:10179000EC81F0E0ED5DFC4F4491E0EFF3E062811D
:1017A00081810E94AA0B8C818F5F8C83DF91CF9106
:1017B0000895CF93DF93EC01E0EFF3E04381628182
:1017C0008C810E94AA0B8C818F5F8C83DF91CF91DB
:1017D00008950F931F93CF93DF9300D000D0CDB720
:1017E000DEB78C018091970281110AC09E012F5FA4
:1017F0003F4F4FEF6FEF0E94D70A8A818093970285
:10180000F8018481813051F028F0823061F44091F8
:1018100097020AC08091970240E007C0609197024A
:1018200040E080E003C040E080E060E00E94910B77
:10183000F801848190E0019663E070E00E94A4309A
:1018400084830F900F900F900F90DF91CF911F9195
:101850000F910895AF92BF92CF92DF92EF92FF92D5
:101860000F931F93CF93DF9300D000D0CDB7DEB797
:10187000182FF62E042FE22E9091F00390FF6CC0EB
:10188000E92FE695AE2FB0E0A55FBD4F8C91809318
:10189000EC029E7F923061F49E012F5F3F4F812FBB
:1018A0000E94D70A4B8169818A810E94910B42C0B4
:1018B000823019F40091F3033DC0863019F4109181
:1018C000F10338C08930D9F38931A1F5E9518E2F60
:1018D0008170D82EE695F0E0ED5DFB4FA590B490B9
:1018E000C12CBB2460911301C61610F52C2D30E0DD
:1018F000A29EC001A39E900DB29E900D112470E097
:101900000E949030812FD11002C0860F01C0861B2B
:1019100090911101290F311D220F331F220F331F08
:101920002B503C4F402F6F2D0E94D70AC394DACF23
:101930000E94540B1093F103F092F2030093F3030F
:10194000EE2051F06091F0037091F1038091F20369
:101950009091F3030E94FD0A0F900F900F900F904B
:10196000DF91CF911F910F91FF90EF90DF90CF907B
:10197000BF90AF900895E0EFF3E09181282F43816D
:1019800062818CE0890F0C942A0C81E00C94BB0CD2
:10199000E0EFF3E09181282F4381628184EF890F8A
:1019A0000C942A0C81E00C94C80CE0EFF3E0628107
:1019B0002FEF620F08F46FEF282F438181810C9481
:1019C0002A0C81E00C94D50CE0EFF3E062812FEF5C
:1019D000621B08F460E0282F438181810C942A0C5B
:1019E00081E00C94E40CE0EFF3E043812CE0420F43
:1019F00008F44FEF282F628181810C942A0C81E03A
:101A00000C94F30CE0EFF3E043812CE0421B08F46C
:101A100040E0282F628181810C942A0C81E00C9493
:101A2000020D20E00C942A0CFF920F931F93CF938A
:101A3000DF93EC01F12C0FEF10E060911301F6162B
:101A4000E8F4809111012F2D30E0280F311D220F75
:101A5000331F220F331F2B503C4F70E0C8010E94F0
:101A6000A430962F8C814091F3036091F203F99E8C
:101A7000800D11240E94D70AF394DFCF0E94540BEB
:101A80009A818C8190FF02C08F5F01C081508C834E
:101A9000DF91CF911F910F91FF900895AF92BF9268
:101AA000CF92DF92EF92FF920F931F93CF93DF932A
:101AB000FC01828180FF02C00FEF01C001E010E055
:101AC0003FE0A32E80911301181708F043C08091C6
:101AD0001101C12ED12CE601C80FD11DCC0FDD1F85
:101AE000CC0FDD1FCB50DC4F198218821A821B826B
:101AF00024E0E22EF12CB12C809199028B0D8031E3
:101B00002CF06A2D0E948230892F05C087FF03C008
:101B100090911301890F082E000C990BC816D90655
:101B200091F48091F3038E9DA0018F9D500D11249F
:101B300055954795559547959E016091F203809183
:101B4000F1030E94D70AB00EF1E0EF1AF108A1F6F6
:101B50001F5FB8CF0E94540B80919902013031F47D
:101B6000811102C080911301815007C090E001965D
:101B70006091130170E00E94A43080939902DF917C
:101B8000CF911F910F91FF90EF90DF90CF90BF907A
:101B9000AF9008950F931F93CF938091110190916F
:101BA0001201891760F424E0829FF0011124EB50A8
:101BB000FC4F11821082128213828F5FF2CFC0E03D
:101BC00060911301C61798F50C2F10E070E0C80162
:101BD0000E94A430E09111018E0F20919802022EF4
:101BE000000C330BE82FF0E0EE0FFF1FEE0FFF1F8E
:101BF00002171307A4F080910E01082E000C990B18
:101C00008017910764F09F012B503C4F4091F303E4
:101C10006091F2038091F1030E94D70A06C0EB5055
:101C2000FC4F1182108212821382CF5FC9CF0E94B3
:101C3000540B20910D0180919802820F809398029D
:101C400090910E01920F90930E0119165CF4082EDC
:101C5000000C990B4091130150E041505109841739
:101C600095071CF0219520930D01CF911F910F91A5
:101C700008958F929F92AF92BF92CF92DF92EF9290
:101C8000FF920F931F93CF93DF93EC014C81042FAE
:101C900010E09801D8010E94E8309B01AC010E943D
:101CA000FE306B017C01E0E2F0E0E01BF10BA5E50A
:101CB000B0E09B01AC010E94FE304B015C019F0132
:101CC000DF010E94E0309B01AC010E9409319B01C1
:101CD000AC012C0D3D1D4E1D5F1DC501B4010E94C0
:101CE000B830822F022F2A3228F493E0299F9001E6
:101CF00011240DC025E530E0281B3109C901880FEA
:101D0000991F280F391F37FF02C02F5F3F4F3595AE
:101D10002795122F1095F12C85E5E82EE01A809179
:101D20001301F816C0F4F1FC02C08E2D01C0802F03
:101D3000909111012F2D30E0290F311D220F331FFB
:101D4000220F331F2B503C4F412F6091F2030E9412
:101D5000D70AF394E4CF0E94540B8C81811102C006
:101D600091E003C0803219F49FEF90930C019091A1
:101D70000C01890F8C83DF91CF911F910F91FF9000
:101D8000EF90DF90CF90BF90AF909F908F9008958D
:101D90000F931F93CF93DF93EC0100E010E080914D
:101DA0001301282F30E0021713071CF59091110141
:101DB0009801290F311D220F331F220F331F2B5083
:101DC0003C4F869590E04C81081719071CF444237A
:101DD00031F002C0411103C04091F30301C040E063
:101DE0006091F2038091F1030E94D70A0F5F1F4FA9
:101DF000D6CF0E94540B8C8190E001968170992778
:101E00008C83DF91CF911F910F9108958F929F92B4
:101E1000AF92BF92CF92DF92EF92FF920F931F93F8
:101E2000CF93DF93FC01B280948081E0848300E053
:101E300015E09BE4A92E88248394EE24EA94F12CE7
:101E40003BE4C32ED12C80911301081708F08EC0FB
:101E5000C02FD0E01C9FF0011D9FF00D1124E6560D
:101E6000FD4F911003C01382128267C02381222389
:101E700089F1215023833481332319F09A2D921B49
:101E800001C0922F8091F3031C9FF0011D9FF00D64
:101E90001124E656FD4F899FC0011124B6010E940E
:101EA00090306283211104C0332311F01482A38285
:101EB00022E02B1508F441C01C9FF0011D9FF00D7E
:101EC0001124E656FD4F8091F10380838091F20347
:101ED000818333C00E947E328230914074F582E06B
:101EE0008B1530F40E947E32B7010E94A43002C0EC
:101EF0008091F1031C9FF0011D9FF00D1124E65607
:101F0000FD4F808322E02B1558F40E947E322091F1
:101F1000F2032695622F70E00E94A430820F02C067
:101F20008091F2031C9FF0011D9FF00D1124E656D5
:101F3000FD4F81831282A3828482809111019E01D0
:101F4000280F311D220F331F220F331F2B503C4F00
:101F50001C9FF0011D9FF00D1124E656FD4F42819C
:101F6000618180810E94D70A0F5F6DCFDF91CF9191
:101F70001F910F91FF90EF90DF90CF90BF90AF90A7
:101F80009F908F900C94540BE0EFF3E080818E7F54
:101F9000808360817181828193810E94FD0A109209
:101FA000ED022FEF80E792E0215080409040E1F772
:101FB00000C000000C94540BE0EFF3E080818E7FB2
:101FC00080831092ED022FEF80E792E02150804055
:101FD0009040E1F700C000000C94540B6091F003B6
:101FE000669570E04BE050E084E191E00E948E3213
:101FF000892B19F481E08093ED020E94772490935D
:10200000E6028093E50208959091F00390FF35C0B9
:102010009170811102C0926006C08B3210F09465FD
:1020200002C0880F982B9093F003662351F06091C3
:10203000F0037091F1038091F2039091F3030E94F9
:10204000FD0A6091F003669570E04BE050E084E19A
:1020500091E00E948E32892B19F01092ED0202C09D
:102060000E94EE0F81E08093E8024091F3036091BB
:10207000F2038091F1030C94110D0895682F909153
:10208000F003969581E0890F8B3208F081E00C9483
:10209000041081E00C943E10682F9091F003969507
:1020A0008FEF890F09F48AE20C94041081E00C94FC
:1020B0004C1061E00C940410E0EFF3E0808181604B
:1020C000808386950C9459108091F00380FD0C94C8
:1020D000C40F0C945C1060E00C9404108091EB022F
:1020E00081112EC00E947422811104C00E9411230C
:1020F0000E940F0B0E94F90A6093F0037093F103A2
:102100008093F2039093F3036E7F61F40E940F0BB0
:102110000E94F90A6093F0037093F1038093F20335
:102120009093F3030E94E60A1092ED028091F0036F
:1021300080FF03C086950E946B1081E08093EB02C4
:102140000895E0EFF3E080818160808386950C94B0
:102150006B101092ED0208950F931F93CF93DF93AE
:102160008091ED02882309F49CC08091EC02E091FB
:10217000F003E695E81BE093E702823049F4F0E0D3
:10218000E15EFC4FE491CE2FD0E005EC1BE059C09E
:10219000863049F4F0E0E45EFC4FE491CE2FD0E0CD
:1021A00009ED1BE04EC0893051F4E695F0E0E75EA2
:1021B000FC4FE491CE2FD0E004E11DE042C08F300F
:1021C00051F4E695F0E0EA5EFC4FE491CE2FD0E0CA
:1021D0000EE41DE036C0853149F4F0E0ED5EFC4FC1
:1021E000E491CE2FD0E00AEC1DE02BC08831D9F06D
:1021F000833239F4E1E1F3E0C591D49109EE1BE0BB
:1022000020C08432A9F08532C1F48E2F63E00E9491
:102210007630E92FF0E0E25FFC4FE491CE2FD0E082
:1022200006E01FE00EC0C8E2D0E009E31EE009C0EE
:10223000C4EFD1E008EC1EE004C0C0EDD7E006ED2D
:102240001AE08091E802882389F01092E8020E9447
:1022500077249E0120953095820F931F9093E6027C
:102260008093E5021092EA021092E9028091E50261
:102270009091E6020E9483248C179D0790F0E091D4
:10228000E502F091E602CE0FDF1FD093E602C09385
:10229000E50285EE92E0F801DF91CF911F910F9159
:1022A0000994DF91CF911F910F910895882311F028
:1022B000FA0101C0FB010994CF93DF93C82FD62FF9
:1022C0000E941E0B8C1740F00E941E0B8D1720F4ED
:1022D000DF91CF910C9449108C2FDF91CF910C940A
:1022E00059100F931F93CF93FB01C281CC2309F4A4
:1022F00063C08C010E94C0218272F801E25CFC453F
:10230000E431F10508F059C0E35AFF4F0C94DA307C
:102310000E94641006C046E550E169E470E10E9445
:102320005611C0E04AC049E450E166E570E1F7CFDC
:1023300042ED5CE065EC7CE0F2CF45EC5CE062ED08
:102340007CE0EDCF40EF5CE061EE7CE0E8CF41EE79
:102350005CE060EF7CE0E3CF4EE05DE06FEF7CE0BF
:10236000DECF4FEF5CE06EE07DE0D9CF41E55BE092
:102370006AE37BE0D4CF4AE35BE061E57BE0CFCF6B
:1023800081E017C065E082E010C068E086E00DC023
:102390006EE089E00AC064E18FE007C067E185E193
:1023A00004C088E106C062E289E10E945C11B9CFF5
:1023B00083E20E945910B5CFC1E08C2FCF911F91BD
:1023C0000F910895579A2BB12F773BB130684FB7D3
:1023D000F894FC01660F771F660F771F6E0F7F1F43
:1023E000E617F70789F0819198E03BB9000000C03B
:1023F00087FF2BB9880F000000C000C000C02BB9B8
:1024000000C09A9591F7ECCF4FBF8FE594E001970C
:10241000F1F700C000000895CF93DF9397FF0DC040
:10242000FB012281222349F0EC010E943712CE01E8
:102430009F770E9478120E94611281E0DF91CF9114
:1024400008958CE090E00E949B3290E0A0E0B0E024
:102450008093310490933204A0933304B0933404F6
:102460000895609131048CE090E00C94AF320E94AA
:10247000C021809335040E94D321809131048130A2
:1024800071F048F0823081F08430A1F486EE0E9431
:102490007C1888E10DC082EE0E9465170BC088E1B0
:1024A00093E00E946E0606C082EE0E94651787E5E3
:1024B0000E947C188FE39CE90197F1F700C00000AF
:1024C000089580913104813039F040F0823031F04C
:1024D000843051F488E206C08CE204C082EE0E948F
:1024E000141802C00E947C18809135040C94D021ED
:1024F0000F931F93CF93DF938C01CCE0D0E0C80102
:102500000C2E02C0969587950A94E2F78F700E9470
:10251000D4060E947C182497CC3F8FEFD80779F718
:10252000DF91CF911F910F9108950F931F93CF9338
:10253000DF93EC018B01FB018281882361F00E9413
:10254000C021CE01815E9C458530910520F48093A9
:1025500031040E943112B801CE01DF91CF911F9159
:102560000F910C940C12AF92BF92CF92DF92EF9228
:10257000FF920F931F93CF93DF937C015B01C42FD6
:10258000D22FFC0182818823F9F04093F0020E944F
:1025900077249093EF028093EE0280E28C0F8830D4
:1025A00008F06EC0C77081E001C0880FCA95EAF7D5
:1025B000DF91CF911F910F91FF90EF90DF90CF901F
:1025C000BF90AF900C948F188091F002481335C0E3
:1025D0008091EE029091EF020E9483246C01B7017A
:1025E000C5010E94801EC816D90638F510E21D0FDD
:1025F000CD17B9F080E28C0F883040F4C77081E0CD
:1026000001C0880FCA95EAF70E949618183058F54D
:1026100081E09D2F977001C0880F9A95EAF70E947C
:102620008F18802F0E947C18183050F5D77081E0E9
:1026300001C0880FDA95EAF70AC080E28C0F883073
:10264000F8F4C77081E001C0880FCA95EAF7DF91FE
:10265000CF911F910F91FF90EF90DF90CF90BF909F
:10266000AF900C949618802FDF91CF911F910F910E
:10267000FF90EF90DF90CF90BF90AF900C947C18BC
:10268000DF91CF911F910F91FF90EF90DF90CF904E
:10269000BF90AF9008950F939C01CB01233F4CE571
:1026A000340731F188F4283DFCE53F07D9F0293D96
:1026B0004CE5340779F1273D3C45A9F506E221EECA
:1026C00041EE67ED7CE52BC0253FFCE53F07E1F0DF
:1026D000A8F0263F3C4539F507E225EE46EE66EFC9
:1026E0007CE51DC007E225EE45EE68ED7CE517C0F0
:1026F00006E221EE40EE63EF7CE511C007E225EE35
:1027000044EE64EF7CE50BC006E221EE42EE65EF9D
:102710007CE505C008E221E045EE69ED7CE50E941C
:10272000B31280E008C0FC018281882319F0109266
:10273000F00201C081E00F910895CF93DF93EC0187
:10274000FB018281882309F41FC1C230FCE5DF0749
:1027500008F41BC1C6319CE5D90738F09E012A5FF9
:102760003C452930310508F010C10E948722909322
:102770003B0480933A04C031ECE5DE0709F4C3C0A2
:1027800008F041C0C8308CE5D80709F49AC0F0F4CD
:10279000C430ECE5DE0709F487C068F4C2308CE58C
:1027A000D80709F477C0C330DC4509F0E3C0809155
:1027B0003A04826076C0C630ECE5DE0709F46EC0EC
:1027C00008F07BC080913A0488606BC0CC308CE507
:1027D000D80709F485C068F4CA30ECE5DE0709F4CF
:1027E00074C008F079C00E94C71B80913A048068C9
:1027F00058C0CE308CE5D80709F476C008F07FC009
:1028000080913A048BC0CB3FECE5DE0709F44FC062
:1028100018F5C3318CE5D80709F47DC078F4C131CF
:10282000ECE5DE0709F473C0C231DC4509F0A2C053
:102830000E94C71B80913A048F7733C0C5318CE565
:10284000D80709F472C008F486C0CA3FDC4509F015
:1028500091C080913B043EC0CF3FFCE5DF0709F407
:102860005FC058F4CD3F9CE5D90709F444C008F493
:102870003FC080913B0482602DC0C130FDE5DF0781
:1028800009F475C008F45DC0C230DD4509F072C0BE
:1028900080E06EC080913A04816003C080913A0468
:1028A000806180933A0466C080913A0411C080919F
:1028B0003B04826080933B045DC080913A04806257
:1028C000F0CF80913A048064ECCF80913A04886024
:1028D0008460E7CF8160EECF80913A048E7FE1CFB4
:1028E00080913A048D7FDDCF80913A04877FD9CFE4
:1028F00080913B0418C080913B048D7FDBCF809199
:102900003A048F7ECECF80913A048F7DCACF8091DA
:102910003A048F7BC6CF80913A04877F8B7FC1CFEB
:1029200080913B048D7F8E7FC5CF80913A0482FBDE
:10293000222720F991E0922790FB82F990FB83F9FE
:10294000B0CF80913B04982F909591708E7F892B0A
:1029500090FB81F9AFCF0E94C71B80913A0487FB9F
:10296000222720F991E0922790FB87F99ACF81E006
:102970000E94132380913A0490913B040E94982274
:102980000E94C71B80E001C081E0DF91CF910895D4
:10299000CF93DF9386319C4541F5EB010E94C02126
:1029A000982F8A8120911F0130912001882379F08E
:1029B0009A7A81E009F480E08093F102911102C0DB
:1029C00069E201C065E3C9010E94AE230AC080919B
:1029D000F102811102C069E201C065E3C9010E94F0
:1029E000B9230E94112280E001C081E0DF91CF91E4
:1029F00008951092B9008CE08093B8000895EF928A
:102A0000FF920F931F93CF93DF93182FEB01109238
:102A1000BC0084EA8093BC000E9477247C018091F2
:102A2000BC0087FD0EC0CF3F8FEFD807C1F30E94D7
:102A300077248E199F098C179D0788F38EEF9FEFDF
:102A40002EC08091B900887F883041F08091B90014
:102A5000887F803119F08FEF9FEF21C01093BB006A
:102A600084E88093BC000E9477248C018091BC0094
:102A700087FD0CC0CF3F8FEFD807C1F30E947724AA
:102A8000801B910B8C179D0788F3D8CF8091B900DC
:102A9000887F883111F08034F1F680E090E0DF919A
:102AA000CF911F910F91FF90EF9008950F931F9377
:102AB000CF93DF93EB018093BB0084E88093BC004D
:102AC0000E9477248C018091BC0087FD0EC0CF3F0F
:102AD0008FEFD807C1F30E947724801B910B8C17CE
:102AE0009D0788F38EEF9FEF0CC02091B900287FDF
:102AF00081E090E0283211F480E090E0919581959A
:102B00009109DF91CF911F910F9108950F931F931A
:102B1000CF93DF93EC0184E88093BC000E9477247C
:102B20008C018091BC0087FD0EC0CF3F8FEFD8078E
:102B3000C1F30E947724801B910B8C179D0788F3AB
:102B40008EEF9FEF03C08091BB0090E0DF91CF91AB
:102B50001F910F91089584E98093BC00089590938C
:102B6000F7028093F6020895E091F602F091F702E1
:102B7000309721F00190F081E02D099480E00895D4
:102B8000E091F602F091F702309799F0209131012F
:102B9000222359F020913A0427FF07C0DC012C9131
:102BA00011962C93119725E02C930280F381E02D50
:102BB00009940895E091F602F091F702309739F008
:102BC00022E0DC012C930480F581E02D0994089526
:102BD0002091F4023091F5022817390771F0909393
:102BE000F5028093F402E091F602F091F70230973B
:102BF00021F00680F781E02D099408952091F202DA
:102C00003091F3022817390771F09093F302809303
:102C1000F202E091F602F091F702309721F0008481
:102C2000F185E02D0994089585B7806885BF85B743
:102C3000806885BF089508950C941B160C941C168B
:102C40000C941B160C941B160E9414160E9420163E
:102C50000C941E1681E008950C942A160E946E248E
:102C60000E9428040E94EA240E946E100C942216EE
:102C7000AF92BF92CF92DF92EF92FF920F931F938A
:102C8000CF93DF93CDB7DEB72A970FB6F894DEBFA8
:102C90000FBECDBF0E9455040E942C16811111C099
:102CA0008FEF89838A831B820E9477248160782F2B
:102CB0009D838C8349815A816B818D810E940E177F
:102CC00040C089EFA82E82E0B82E00E010E0C02EB0
:102CD000802F0E94B104E82EF501D1905F01D82623
:102CE00031F40F5F1F4F0E30110589F7D9CF809156
:102CF000B50381FD0E94B70480E0FF24F3949D2D6D
:102D00009F21D1F08E83CF82EF2081E009F480E013
:102D100088870E9477248160782F9A8789874E81DF
:102D20005F8168858A850E940E17F801E750FD4F84
:102D30008081F826F08205C08F5FFF0C8630F9F69F
:102D4000D0CF0E94AC100E9499260E94B415909199
:102D5000F8028917B1F00E94B4158093F8022A9600
:102D60000FB6F894DEBF0FBECDBFDF91CF911F919C
:102D70000F91FF90EF90DF90CF90BF90AF900C94A9
:102D8000E9062A960FB6F894DEBF0FBECDBFDF91DD
:102D9000CF911F910F91FF90EF90DF90CF90BF9058
:102DA000AF900895DC0111962C9111978C91682FAA
:102DB00070E041E050E001C0440F8A95EAF71296B6
:102DC0008C91129730E0882329F080911703882393
:102DD000E9F006C0F901E95FFC4F90819423B1F05E
:102DE00086E0829FF001839FF00D1124E60FF71F0C
:102DF000EE0FFF1FEE5CFE4F808191818D939C93BF
:102E0000F901E95FFC4F8081482B06C0F901E95FB9
:102E1000FC4F40958081482340830895CF93DF93F2
:102E2000CDB7DEB72B970FB6F894DEBF0FBECDBF80
:102E3000942F4F83252F588769877A878B874A85F8
:102E40005B85452B31F02F3F31F481E09F3F19F432
:102E500003C081E001C080E080FD04C0CE01079680
:102E60000E94D216DE01119686E0FD0111928A952C
:102E7000E9F785E0FE01379601900D928A95E1F71A
:102E800049815A816B817C818D819E810E94831E44
:102E90002B960FB6F894DEBF0FBECDBFDF91CF915A
:102EA0000895FC01808191810E94592192959F7023
:102EB000963051F4863F41F08091170391E08927C5
:102EC00080931703909316030895CF93882309F4F2
:102ED000A9C0C82F8238C1F40E94B41581FDA2C0D8
:102EE00069E380911F01909120010E94AE230E940E
:102EF00011222FEF81EE94E0215080409040E1F7C5
:102F000000C0000069E319C0833801F50E94B415C0
:102F100080FD88C063E580911F01909120010E948F
:102F2000AE230E9411222FEF81EE94E021508040C9
:102F30009040E1F700C0000063E580911F0190918F
:102F400020010E94B923CF910C9411228438C1F43E
:102F50000E94B41582FD66C067E480911F019091C4
:102F600020010E94AE230E9411222FEF81EE94E0F7
:102F7000215080409040E1F700C0000067E4DDCFC1
:102F80008CEF8C0F813AF8F48C2F0E94102981115C
:102F900049C06C2F80911F01909120010E942E2327
:102FA000882349F06C2F80911F01909120010E948D
:102FB000B9230E9411226C2F80911F019091200152
:102FC0000E94AE23C0CF80E28C0F883048F4C770D7
:102FD00081E001C0880FCA95EAF70E94C321B3CFF0
:102FE000EBE5EC0FE33040F4F0E0EC59FD4F80816D
:102FF00090E0CF910C94E815E8E5EC0FE73150F440
:10300000F0E0EE0FFF1FEA5CFD4F80819181CF91D0
:103010000C94FE15C03F30F08C2F0E948E25CF916E
:103020000C947B26CF910895882309F464C08238DC
:1030300079F40E94B41581FF5EC069E380911F019D
:10304000909120010E94AE230E94112269E310C0DA
:103050008338B1F40E94B41580FF4DC063E58091C0
:103060001F01909120010E94AE230E94112263E56E
:1030700080911F01909120010E94B9230C9411228C
:10308000843879F40E94B41582FF35C067E48091DA
:103090001F01909120010E94AE230E94112267E43B
:1030A000E7CF9CEF980F913A10F4682FE1CF90E2B0
:1030B000980F983050F4877091E001C0990F8A956D
:1030C000EAF7892F0E94C921D9CF9BE5980F933049
:1030D00020F480E090E00C94E81598E5980F973183
:1030E00020F480E090E00C94FE15803F20F00E94D8
:1030F000F6250C947B260895CF93C82F0E94651760
:10310000C93349F42FEF87EE93E02150804090407F
:10311000E1F700C000008C2FCF910C941418882385
:1031200021F00E94C3210C9411220895882321F0DC
:103130000E94C9210C94112208956F927F928F9260
:103140009F92BF92CF92DF92EF92FF920F931F93C5
:10315000CF93DF936C01C62F172FFC0105810295D9
:103160000F70D281D1110E94E3210E94B9218823DE
:10317000B9F0DD23A9F0812F807F803441F090E207
:103180009C0F983068F0803611F4C63F49F082E019
:103190000E945B220E94B92191E0B82EB92601C09D
:1031A000B12CE12EE2949FE0E9228E2D90E0FC010B
:1031B000EF58FF4F0C94DA30012F0F70812F807F72
:1031C00011F00295007FDD2399F0002309F4A5C1D9
:1031D00080E28C0F883010F0C11104C0802F0E9453
:1031E000C32103C0802F0E94D6210E94112295C1C5
:1031F0008C2F0E941418002309F441C280E28C0F26
:10320000883010F0C11104C0802F0E94C92103C072
:10321000802F0E94DC210E94112231C2912F9F70C9
:10322000812F807FF92E803219F0F29480EFF822FE
:10323000CC2319F0C130C9F021C0DD2371F0002387
:1032400041F0013031F40E94F6218F290E94FE21C5
:103250001BC20E94F6218F2916C0002319F00130ED
:1032600009F40DC20E9407221EC0DD2321F00230A6
:1032700008F00AC207C0011102C215C0DD2331F0F7
:1032800001114BC18F2D0E948F18FEC1002359F0F0
:10329000C93309F051C1FFEF27EE83E0F150204020
:1032A0008040E1F747C18F2D0E949618E8C1812F19
:1032B00086958695837019F0813071F0AFC1DD235A
:1032C00031F08C2F912F93700E94E815B1C180E0EE
:1032D00090E00E94E815B3C1DD2331F08C2F912FCF
:1032E00093700E94FE15A4C180E090E00E94FE153C
:1032F000A6C18C2FDD2329F00E948E250E947B26FB
:1033000097C10E94F6250E947B2699C1812F837068
:1033100009F048C0D11186C12C2F2295269527701F
:10332000220F220F6C2F6F70862F90E0A0E0B0E08C
:10333000022E04C0880F991FAA1FBB1F0A94D2F740
:10334000C4FF10C04FE050E060E070E004C0440FE4
:10335000551F661F771F2A95D2F7409550956095A7
:10336000709503C040E050E0BA01212F26952695C4
:1033700023703A014B01682A792A8A2A9B2AC401C0
:10338000B301223049F058F4213019F00E94D41FC3
:1033900049C10E94C21F46C10E94E61F43C10E944C
:1033A000C01F40C1DD2319F0812F817001C08695B7
:1033B000882309F437C12C2F229526952770220FD8
:1033C000220F6C2F6F70862F90E0A0E0B0E0022EED
:1033D00004C0880F991FAA1FBB1F0A94D2F7C4FF0D
:1033E00010C04FE050E060E070E004C0440F551F93
:1033F000661F771F2A95D2F7409550956095709576
:1034000003C040E050E0BA01212F26952695237095
:103410003A014B01682A792A8A2A9B2AC401B301FE
:10342000223049F058F4213019F00E949920FAC056
:103430000E948720F7C00E94AB20F4C00E94FA1FB0
:10344000F1C0012F0F70DD2339F0802F0E94202062
:103450008C2F0E948F18E6C08C2F0E949618802F08
:103460000E944120DFC0C23F61F128F4C03F41F01B
:10347000C13FB9F01DC0C33F71F1C43FB1F118C0E5
:10348000DD2339F0011100C1812F8F710E94662068
:10349000FBC0023008F0F3C0812F8F710E946620BC
:1034A000EEC0DD2349F0812F8F710E942020ECC0F7
:1034B000D11131C0011135C0812F8F710E9441207F
:1034C000DEC0812F8F71DD2319F00E944120DCC006
:1034D0000E942020D4C0DD2329F0812F8F710E940B
:1034E0000B20D2C00E940620CAC0DD2351F0012F5C
:1034F0000F71802F0E94202063E0802F0E944622BF
:10350000C3C081E00E945B22023008F4B8C082E0B0
:103510000E945B22B4C0002331F28C2F0E946517F9
:10352000B3C0C93349F42FEF87EE93E021508040B8
:103530009040E1F700C000008C2F0E9414189FC03B
:10354000412F4F706C2FC6010E944B070E94311F04
:103550006DC08C2F90E0FC01E05FF109E730F105D0
:1035600078F5EF57FF4F0C94DA30DD2309F450C0A3
:103570009091170381E0892705C0D093170348C0B5
:1035800081E08D278093170343C0D11141C081E0B2
:10359000F9CFD1113DC0109217033AC0DD2319F0C5
:1035A0000E94912135C00E949D2132C0DD2329F067
:1035B000809116038823E1F229C00023C9F228C0B4
:1035C000809116030023C1F0882341F090911703E6
:1035D00081E0892780931703109216038C2FDD2337
:1035E00019F00E94651714C00E94141886E0F601B5
:1035F00011928A95E9F70CC0882351F0D11108C0C7
:103600009091170381E08927809317031092160386
:10361000412F4F706C2FC6010E944E0788EF8E0D10
:10362000843020F40E94B4150E94E906DD2339F0AD
:10363000107F103611F4C63F11F00E94AB21BB2061
:1036400041F10E948D2180FD24C0F60112820E946A
:1036500087210E942020C6010E946F1B0E948721A3
:10366000DF91CF911F910F91FF90EF90DF90CF905E
:10367000BF909F908F907F906F900C94412088EF27
:103680008E0D8430E0F6CECF88EF8E0D843080F63C
:10369000C9CFDF91CF911F910F91FF90EF90DF90F5
:1036A000CF90BF909F908F907F906F9008950F93D1
:1036B0001F93CF93DF93EC01688179818A810E9407
:1036C00064218C010E94BD200E94AE1FB801CE0172
:1036D0000E949D18DF91CF911F910F910895CF9374
:1036E000DF93EC01988189812B813C81232B31F080
:1036F0008F3F31F481E09F3F19F403C081E001C0A6
:1037000080E080FD19C0CE010E94020781110CC02B
:103710000E94B921882381F08A81882369F082E0A0
:10372000DF91CF910C945B22CE010E94571BCE01FA
:10373000DF91CF910C94BD06DF91CF91089588233E
:1037400021F00E94D6210C9411220895882321F0A3
:103750000E94DC210C94112208950E94E3210E9412
:10376000F3210E9411220E94AC270E947B2680E058
:1037700090E00E94E81580E090E00C94FE158091A6
:103780001F01909120010E94C4230C94AD1B0E9444
:10379000D3210C94BF1BE92FE295EF704E2F50E020
:1037A000FA013297EE30F105B0F4E857FF4F0C9470
:1037B000DA30803F91F018F4883E68F40EC0843F00
:1037C00051F40BC0883E48F0813F29F406C093FBBA
:1037D000882780F9089580E0089581E008950E9487
:1037E00059210E94CB1B0895CF93DF9300D000D0C6
:1037F0001F92CDB7DEB70F900F900F900F900F90E4
:10380000DF91CF910895CF93DF9300D000D000D007
:10381000CDB7DEB726960FB6F894DEBF0FBECDBF8C
:10382000DF91CF9108951F93CF93DF93C091180339
:1038300016E080911903C81799F0D0E01C9FF001A1
:103840001D9FF00D1124E65EFC4F40815181628185
:103850007381848195810E94031C2196C770E9CFF2
:10386000DF91CF911F91089540914A0350914B03EE
:1038700060914C0370914D0380914E0390914F03E2
:103880000C94031C0F931F93CF93DF9380914F03EE
:1038900082958F7009F05DC080914C03882309F4F4
:1038A00058C0809118031091190360914A037091D8
:1038B0004B03C0914D03D0914E0391E06F3F09F04F
:1038C00090E0292F06E0811709F443C0209721F0EA
:1038D0007F3F21F030E003C031E001C0322F90E0A3
:1038E00030FD34C0089FF001099FF00D1124DF0165
:1038F000A65EBC4F11963C911197371327C03C919F
:10390000361324C012963C91129731111FC01396A2
:103910004D915C9114974C1B5D0B483C5105B0F4E4
:1039200080914F038F70806180934F03E15EFC4F65
:1039300080818F70806180838AE493E00E946F1B96
:10394000DF91CF911F910F910C94131C01968770FA
:10395000BACFDF91CF911F910F9108959F92AF92AF
:10396000BF92CF92DF92EF92FF920F931F93CF936C
:10397000DF93CDB7DEB761970FB6F894DEBF0FBE09
:10398000CDBF8C0185E0F801DE011D9601900D92FE
:103990008A95E1F7F80140815181E28090914A03D4
:1039A00060914B0320914D0330914E032115310559
:1039B00031F06F3F31F481E09F3F19F403C081E0A3
:1039C00001C080E0F82FF1709F2E80FD46C1F80104
:1039D000A380B4808AE4C82E83E0D82EF0904C03F4
:1039E000F501E21BF30BFF2009F4DFC080914F03C8
:1039F000E83CF10508F09BC0282F207F09F052C059
:103A0000561313C0491311C0FE2CE1100EC08F7065
:103A1000806180934F030E94341CC6010E946F1B7B
:103A200080914F03F801858358C1AB2831F05F3F87
:103A300031F481E04F3F19F403C081E001C080E020
:103A400080FD03C081E08E2502C080E090E0F82F69
:103A5000F170FF2E80FF1CC0809118032091190384
:103A600036E0821709F417C190E0389FF001399FC2
:103A7000F00D1124E65EFC4F6181561306C0608193
:103A8000461303C06281E61203C001968770E9CF36
:103A9000FE2CEE2009F421C180914F0381608093B8
:103AA0004F035AC0561306C0491304C0E11002C0A8
:103AB000F8019FC04D875E878D859E850E94EF1B14
:103AC000882379F1EE2069F120914F03822F8295AE
:103AD0008F7090E0029774F080914A0390914B03AD
:103AE00098878F831986BB86AA862C87CE01079676
:103AF0000E946F1B86E0F801AAE4B3E001900D92EA
:103B00008A95E1F70E94421C0E94341C0DC0561792
:103B100029F14D875E878D859E850E94EF1B81115F
:103B20002CC0C8010E946F1BFF24F394D6C0282F1D
:103B3000207F69F77A2DB98AA88A6E2D89890E941B
:103B4000F41B8AE493E00E946F1B86E0F601119259
:103B50008A95E9F70E94341CF12CBFC04913D9CFD4
:103B6000E110D7CFF8018583C8010E946F1B86E062
:103B7000F60111928A95E9F7B0C0EE2091F22091FA
:103B80004F03822F82958F7090E002970CF4B2CF92
:103B900080914A0390914B039A8389831B82BD8253
:103BA000AC822E83CE010196A3CFE83CF10508F04C
:103BB00047C0FE2CEE2009F4B4CF561330C0491391
:103BC0002EC020914F0320FD21C0822F82958F703F
:103BD000482F50E041155105C9F0F80125834F30B9
:103BE000510541F08F5F982F9295907F822F8F70B3
:103BF000892B8583C8010E946F1B86E0F801AAE427
:103C0000B3E001900D928A95E1F742C086E0F80199
:103C1000AAE4B3E001900D928A95E1F75EC04D876A
:103C20005E878D859E850E94EF1B811163CF8091F9
:103C30004F03816080934F03C8010E946F1B4DC0EA
:103C40007A2DB98AA88A6E2D89890E94F41B86E094
:103C5000F60111928A95E9F71BC0EE2009F461CFB5
:103C60004D875E878D859E850E94EF1BF82E8823E9
:103C700009F457CF86E0F801AAE4B3E001900D9271
:103C80008A95E1F78AE493E00E9451170E94421C52
:103C90000E94341C22C04D875E878D859E850E94C0
:103CA0005921292F22952F70223028F49F7039F046
:103CB000811105C00BC0243028F49F7049F4805E48
:103CC000883020F0C8010E946F1B9F2CF92C05C082
:103CD000F8019581907F99F7F9CF8F2D61960FB6F6
:103CE000F894DEBF0FBECDBFDF91CF911F910F9132
:103CF000FF90EF90DF90CF90BF90AF909F9008958E
:103D000088EC90E008951F93CF93DF93CDB7DEB793
:103D10002C970FB6F894DEBF0FBECDBF4F835887E8
:103D200069877A878B879C87CE0107960E94AE1C95
:103D30008823D1F09F8188852A853B85232B31F00C
:103D40008F3F31F481E09F3F19F403C081E001C04F
:103D500080E080FD47C04F81588569857A858B85D5
:103D60009C850E94031C3EC086E0FE013796DE0162
:103D7000119601900D928A95E1F7FF81E8856A8599
:103D80007B856115710531F0EF3F31F481E0FF3F34
:103D900019F403C081E001C080E080FD23C02091C0
:103DA000190330E0C90101968770992740911803E3
:103DB00050E084179507F1F1F983EA837D836C83E2
:103DC00096E0929FD001939FB00D1124A65EBC4F48
:103DD000FE01319601900D929A95E1F780931903B7
:103DE0000E94131C16E08091180390911903891703
:103DF00071F1189FC0011124865E9C4F0E94AE1C79
:103E0000882329F1E09118031E9FF0011124E65E3A
:103E1000FC4F4081518162817381848195810E9430
:103E2000031C8091180390E0019687709927809376
:103E30001803D9CF0E94C71B1092190310921803C0
:103E4000EAE4F3E086E0DF011D928A95E9F72C961B
:103E50000FB6F894DEBF0FBECDBFDF91CF911F919B
:103E60000895EF92FF920F931F93CF93DF938C01EE
:103E7000892B09F46CC0F12CEE24E394E80121961F
:103E8000F8018491843740F4843008F051C08130C7
:103E900081F0823019F15BC0853709F444C0A8F184
:103EA0009CE7980F903708F052C08F770E94141843
:103EB00041C00E5F1F4FFE01849190E2980F983031
:103EC00050F48770FE2D01C0FF0F8A95EAF78F2FFF
:103ED0000E94E62114C00E9465172DC00E5F1F4F7F
:103EE000FE01849190E2980F983060F48770FE2D67
:103EF00001C0FF0F8A95EAF78F2F0E94EC210E94E4
:103F0000112219C00E94141816C00E5F1F4FFE0127
:103F1000C491CC2381F08FE99FE00197F1F700C0B5
:103F20000000C150F6CF0E5F1F4FFE01F49003C09A
:103F30000E9465178E018F2D882309F49FCFEFE92A
:103F4000FFE03197F1F700C000008150F5CFDF911D
:103F5000CF911F910F91FF90EF90089508950895CC
:103F60000C94AF1F0C94B01F0E94B21F60938B0380
:103F700070938C0380938D0390938E030C94AD1BF0
:103F80000C94B41F0F931F9300918B0310918C031B
:103F900020918D0330918E03602B712B822B932BFC
:103FA0001F910F910C94B41F0F931F9300918B03DB
:103FB00010918C0320918D0330918E036023712327
:103FC000822393231F910F910C94B41F0F931F937F
:103FD00000918B0310918C0320918D0330918E03FF
:103FE00060277127822793271F910F910C94B41F8C
:103FF0000C94AF1F0E94F81F60938703709388038F
:104000008093890390938A030C94AD1B60E070E069
:10401000CB010C94FA1F0F931F9341E050E060E036
:1040200070E08A019B0104C0000F111F221F331F83
:104030008A95D2F7C901B8011F910F910C94FA1F0C
:104040000F931F9341E050E060E070E004C0440F24
:10405000551F661F771F8A95D2F78091870390912D
:104060008803A0918903B0918A038A019B01082BE0
:10407000192B2A2B3B2BC901B8011F910F910C94CE
:10408000FA1F0F931F9341E050E060E070E004C01E
:10409000440F551F661F771F8A95D2F7409550959C
:1040A000609570958091870390918803A091890312
:1040B000B0918A038A019B01082319232A233B23F9
:1040C000C901B8011F910F910C94FA1F0F931F9310
:1040D00041E050E060E070E004C0440F551F661FEF
:1040E000771F8A95D2F78091870390918803A091DA
:1040F0008903B0918A038A019B01082719272A277F
:104100003B27C901B8011F910F910C94FA1F0F931F
:104110001F930091870310918803209189033091A8
:104120008A03602B712B822B932B1F910F910C9480
:10413000FA1F0F931F93009187031091880320911A
:10414000890330918A0360237123822393231F9173
:104150000F910C94FA1F0F931F93009187031091F6
:1041600088032091890330918A0360277127822771
:1041700093271F910F910C94FA1F0895292F220F56
:10418000920F990F890FE82FE695E695E6958770CF
:1041900051E001C0550F8A95EAF785E0E89FF001EC
:1041A0001124E05BFC4F20E030E070E04081CB0167
:1041B000022E02C0969587950A94E2F78170819548
:1041C00084278523842781932F5F3F4F2530310536
:1041D00069F70895292F220F920F990F890F682FE1
:1041E000669566956695982F977085E0689FB001F3
:1041F000112440E050E080E0FB01E40FF51FE05B9C
:10420000FC4F208130E0092E02C0369527950A9494
:10421000E2F721703327042E01C0220F0A94EAF737
:10422000822B4F5F5F4F4530510531F70895BF92A4
:10423000CF92DF92EF92FF920F931F93CF93DF9372
:104240008C01C0908703D0908803E0908903F090A0
:104250008A0380918B0390918C03A0918D03B09180
:104260008E03C82AD92AEA2AFB2ACFE1D0E0D70157
:10427000C6010C2E04C0B695A795979587950A940C
:10428000D2F780FD04C0219790F7B12C07C0BC2E57
:10429000B8018C2F0E946A070197A9F38B2DDF913B
:1042A000CF911F910F91FF90EF90DF90CF90BF9033
:1042B0000895CF93DF93EC010E941721BE010E9465
:1042C0006A07DF91CF9108951F93CF93DF93EB019E
:1042D00090911503992321F0CB010E94592113C01D
:1042E000882349F0CB010E941721182F682FCE0197
:1042F0000E94BE2004C0CB010E94EA20182FBE01FC
:10430000812F0E946A07DF91CF911F9108958091BC
:104310009003859585958595089580919003877084
:10432000089582E080938F0381E0809317030895BE
:1043300010928F0310921703089580918F0382309B
:1043400019F481E080938F0380918F03833011F4FF
:104350000C949821089580918F03823019F483E0A2
:1043600080938F0380918F03813011F40C949821F6
:10437000089590919003977081E009F480E008958A
:104380008091B40308959091B403892B8093B40372
:10439000089580959091B40389238093B403089580
:1043A0008093B40308951092B40308959091B303D9
:1043B000892B8093B303089580959091B30389234B
:1043C0008093B30308951092B30308959091B203BC
:1043D000892B8093B203089580959091B20389232D
:1043E0008093B20308951092B203089580919103CF
:1043F000089508950C94F9210C94FA219091910359
:10440000981721F0809391030C94FC2108958091DA
:104410009103882329F01092910380E00C94FC21F1
:104420000895E0911F01F09120018091B4038083F1
:10443000E0911F01F091200190818091B303892BBD
:104440008083E0911F01F091200190818091B2035F
:10445000892B808380919103882381F0E0911F0153
:10446000F09120019081892B808380911F01909190
:1044700020010E94182381110E94072280911F01B0
:10448000909120010C94C0150C94F92198E0899F1B
:1044900090011124262B209390030E9420208091CC
:1044A00090038595859585950C94442210929003F0
:1044B00080E00C9444222091900380958223809385
:1044C0009003982F977079F430E0482F082E000C55
:1044D000550B2417350739F08595859585950E94EC
:1044E00041200C945622089580E090E00E94A93269
:1044F00021E08C3E9E4F09F020E0822F089582E05B
:1045000090E00C949B3283E090E00C949B32CF932C
:1045100084E090E00E949B32C82F81E290E00E94EC
:104520009B322C2F30E0A901582BCA01CF9108955E
:10453000CF93C92F682F84E090E00E94AF326C2F98
:1045400081E290E0CF910C94AF328FE090E00C9438
:10455000A332AB01BC018FE090E00C94C132AB01FF
:10456000BC0183E190E00C94C13260E070E0CB01CB
:104570000C94AF226CEE7EEF80E090E00E94CD3292
:1045800060E082E090E00E94AF3260E083E090E083
:104590000E94AF3210928B0310928C0310928D0305
:1045A00010928E0360E084E090E00E94AF3260E001
:1045B00081E290E00E94AF3260E085E090E00E94EE
:1045C000AF3260E086E090E00E94AF326FEF87E0AC
:1045D00090E00E94AF3240E050E0BA0188E090E005
:1045E0000E94C13260E08DE090E00E94AF3240E076
:1045F00050E0BA0188E190E00E94C13260E087E1BA
:1046000090E00E94AF3240E050E0BA018CE190E0CF
:104610000E94C13260E080E290E00E94AF320C94D0
:10462000FD050C94BA22682F8EE090E00C94AF3216
:10463000FC01329680913101882331F080913A0457
:1046400087FF02C09EE101C096E080E0915028F013
:1046500021912223D9F38F5FF9CF0895662351F179
:10466000209131012223E9F020913A0427FF19C05B
:10467000462F4695469546954E31E0F4677021E009
:1046800030E002C0220F331F6A95E2F7FC01E40F0D
:10469000F11D828190E02823392381E0232B69F4E6
:1046A00009C0FC01329608962191621729F0E8179B
:1046B000F907D1F780E0089581E008959C01FC019D
:1046C00032969FEF80E04191461789F09F3F19F4A1
:1046D000411101C0982F8F5F8630A9F79F3F39F0B5
:1046E000F901E90FF11D97FDFA9562830895089588
:1046F0009C012A5F3F4FFC014281461301C0128298
:10470000019682179307B9F70895262F26952695C7
:1047100026952E3168F4FC01E20FF11D677021E04F
:1047200030E001C0220F6A95EAF78281282B2283AC
:104730000895262F2695269526952E3170F4FC0196
:10474000E20FF11D677021E030E001C0220F6A9591
:10475000EAF7209582812823228308952091310150
:10476000222329F020913A0427FD0C9485230C94F0
:104770005E2320913101222329F020913A0427FD64
:104780000C9499230C94782320913101FC013296EA
:10479000222331F080913A0487FF02C08EE101C0EC
:1047A00086E0DF011D928A95E9F7089508950C943B
:1047B000D623CF930E9442040E9455040E94D7231F
:1047C000C0E08C2F0E94B104811104C0CF5FCE30B5
:1047D000C1F701C081E0CF9108950C94D6230C94C9
:1047E000ED230E94EF2380914004843009F439C006
:1047F0001092B60320E488E190E00FB6F894A895F3
:10480000809360000FBE2093600080E00E94E90664
:104810000E94A9108091B70381110AC081E08093A2
:10482000B7038091F00381708093B8030E94DC0F7E
:104830000E94EF2383B7817F846083BF83B7816049
:1048400083BF7894889583B78E7F83BF0FB6F89423
:10485000A89580916000886180936000109260004C
:104860000FBE08950C94D6230E94C71B0E94B41556
:104870000E94E9061092B7038091B80381110E944B
:10488000A1100E94EE0F0C9432241F920F920FB6CB
:104890000F9211248F939F93AF93BF938091B60390
:1048A000811113C08091360490913704A09138048F
:1048B000B09139044196A11DB11D809336049093A7
:1048C0003704A0933804B0933904BF91AF919F91FE
:1048D0008F910F900FBE0F901F90189582E084BDAE
:1048E00093E095BD9AEF97BD80936E0008952FB722
:1048F000F8948091360490913704A0913804B091D7
:1049000039042FBF08959C014FB7F8948091360465
:1049100090913704A0913804B09139044FBF821BA5
:10492000930B089578941F920F920FB60F92112453
:104930008F939F93AF93BF938091360490913704E8
:10494000A0913804B09139040196A11DB11D809346
:10495000360490933704A0933804B0933904BF9180
:10496000AF919F918F910F900FBE0F901F90189550
:10497000F89481E08093E00080E28093D800E9EC35
:10498000F0E010828FE19EE40197F1F700C0000093
:104990001DBA109268001CBC10BE1FBA10927A009B
:1049A00010926E0010926F001092710010927200BF
:1049B0001082ECEBF0E0108214B817B81AB81DB8EA
:1049C00010BA108215B818B81BB81EB811BA0C94DA
:1049D000003F08950E947422811102C00E94112399
:1049E0000E947F228093B5030E94872290933B040C
:1049F00080933A040E948322682F70E080E090E068
:104A00000E94C01F60918703709188038091890381
:104A100090918A030C94F81F8091C10380FF0BC012
:104A20006091250185E0689FB00111247595679517
:104A3000759567952BC081FF09C06091250185E0C0
:104A4000689FB00111247595679520C082FF07C04B
:104A50006091250185E0689FB001112417C09091F5
:104A6000C0039923D1F060912401961788F7209113
:104A7000250185E0289F90011124929FA001939F1A
:104A8000500D112470E0CA010E94A43060387105F5
:104A900040F46115710519F406C065E070E0862FD9
:104AA00008958FE7089581E008958091C10380FF04
:104AB00008C06091220170E07595679575956795BE
:104AC00021C081FF06C06091220170E07595679555
:104AD00019C082FF04C06091220170E010C0909163
:104AE000BF03992399F0609121019617A0F7809157
:104AF0002201899FC001112470E00E94A430603817
:104B0000710540F46115710519F406C061E070E0AB
:104B1000862F08958FE7089581E00895803F21F45E
:104B20000E940C25819504C0813F29F40E940C2528
:104B30008093C5030895823F21F40E940C2581953E
:104B400004C0833F29F40E940C258093C403089578
:104B5000893F19F40E94552505C08A3F31F40E940F
:104B6000552581958093C60308958B3F21F40E94BB
:104B70005525819504C08C3F29F40E9455258093CA
:104B8000C7030895843F21F48091C303816017C057
:104B9000853F21F48091C303826011C0863F21F4D8
:104BA0008091C30384600BC0873F21F48091C303CD
:104BB000886005C0883F31F48091C3038061809391
:104BC000C30308958D3F21F48091C10381600BC020
:104BD0008E3F21F48091C103826005C08F3F29F48C
:104BE0008091C10384608093C1030895803F39F4AC
:104BF0008091C50387FF6AC01092C50367C0813FDB
:104C000029F48091C5031816BCF360C09091C403C9
:104C1000823F29F497FF5AC01092C40357C0833FC4
:104C200019F41916CCF352C09091C603893F31F4A0
:104C300019160CF04BC01092C60348C08A3F19F4F5
:104C400097FF44C0F8CF8B3F39F48091C70387FFAB
:104C50003DC01092C7033AC08C3F29F48091C7032E
:104C60001816BCF333C0843F21F48091C3038E7FB8
:104C700017C0853F21F48091C3038D7F11C0863F0B
:104C800021F48091C3038B7F0BC0873F21F4809177
:104C9000C303877F05C0883F31F48091C3038F7EB3
:104CA0008093C30313C08D3F21F48091C1038E7F95
:104CB0000BC08E3F21F48091C1038D7F05C08F3FD3
:104CC00029F48091C1038B7F8093C1038091C40339
:104CD000811106C08091C503811102C01092C003EA
:104CE0008091C603811106C08091C703811102C063
:104CF0001092BF0308950E9477242091C4032111CC
:104D000004C02091C503222321F09093BE03809319
:104D1000BD032091C603211104C02091C7032223A3
:104D200021F09093BC038093BB0382EC93E00C943E
:104D3000DA15EF92FF920F931F93CF93DF9300D07A
:104D400000D000D0CDB7DEB786E0E2ECF3E0DE01C4
:104D5000119601900D928A95E1F7E090C403F090CE
:104D6000C5030091C6031091C7031092C4031092AB
:104D7000C5031092C6031092C703E11003C0FF20C1
:104D800009F45DC08091BD039091BE030E9483240D
:104D9000AC019091C003992339F02091260130E0B5
:104DA0002417350758F04BC02091BA038AE0289F9A
:104DB000900111242417350718F041C09F3F19F0C6
:104DC0009F5F9093C003EE2061F00E940C251E149B
:104DD00014F09FEF01C091E0989F902D11249093C3
:104DE000C403FF2061F00E940C251F1414F09FEFF4
:104DF00001C091E0989F902D11249093C5033091AC
:104E0000C4033323E1F02091C5032223C1F045EB15
:104E10003403C0011124992319F09093C40303C0F3
:104E200081E08093C40335EB2303C001112499234F
:104E300019F09093C50303C081E08093C50301116D
:104E400003C0112309F45DC08091BB039091BC03A2
:104E50000E948324AC019091BF03992339F02091E3
:104E6000230130E02417350758F04BC02091B903D7
:104E70008AE0289F900111242417350718F041C0BB
:104E80009F3F19F09F5F9093BF03002361F00E9442
:104E90005525101614F09FEF01C091E0989F902DBA
:104EA00011249093C603112361F00E945525111619
:104EB00014F09FEF01C091E0989F902D11249093E2
:104EC000C7033091C6033323E1F02091C7032223A7
:104ED000C1F045EB3403C0011124992319F09093DC
:104EE000C60303C081E08093C60335EB2303C001F2
:104EF0001124992319F09093C70303C081E0809394
:104F0000C7038091C40381110BC08091C503811137
:104F100007C08091C603811103C08091C70381112E
:104F20000E947B26EB82FC820D831E8386E0FE01BD
:104F30003196A2ECB3E001900D928A95E1F72696A6
:104F40000FB6F894DEBF0FBECDBFDF91CF911F919A
:104F50000F91FF90EF900895E2ECF3E086E0DF011F
:104F60001D928A95E9F71092C0031092BF03109228
:104F7000C1030895833081F128F4813059F08230E3
:104F8000D1F00895853009F449C0B8F1863009F4AC
:104F900056C008958091BA03262F30E0280F311DA6
:104FA0002F3F310524F4680F6093BA0308958FEF03
:104FB0008093BA03089580912601262F30E0280FB0
:104FC000311D2F3F310524F4680F609326010895A9
:104FD0008FEF80932601089580912501262F30E0E0
:104FE000280F311D2F3F310524F4680F60932501F0
:104FF00008958FEF80932501089580912401262F35
:1050000030E0280F311D2F3F310524F4680F6093E5
:10501000240108958FEF8093240108958091220147
:10502000262F30E0280F311D2F3F310524F4680F63
:105030006093220108958FEF80932201089580915B
:105040002101262F30E0280F311D2F3F310524F498
:10505000680F6093210108958FEF809321010895D7
:10506000833011F128F4813049F0823091F00895B5
:10507000853081F120F18630C1F108958091BA0325
:10508000681720F4861B8093BA0308951092BA0320
:10509000089580912601681720F4861B80932601CD
:1050A000089510922601089580912501681720F433
:1050B000861B809325010895109225010895809103
:1050C0002401681720F4861B809324010895109210
:1050D0002401089580912201681720F4861B809393
:1050E00022010895109222010895809121016817EC
:1050F00020F4861B809321010895109221010895C8
:105100000F931F9341E050E060E070E08A019B0143
:1051100004C0000F111F221F331F8A95D2F7C90147
:10512000B8010E94C01F1F910F910C94C71B482FFC
:1051300050E0FA013597EF33F10508F060C0EA5608
:10514000FF4F0C94DA300E94112355C08091B503B3
:10515000817F8E7F8093B50381E08093C90308959A
:105160000E94F30648C08091B503982F90959170E6
:1051700090FB80F98093B50391113DC0897F877FB3
:1051800010C08091B50381FB222720F991E092277E
:1051900090FB81F98093B503992369F18091B50360
:1051A00081608093B50327C08091B50382FB2227DD
:1051B00020F991E0922790FB82F9ECCF8091B50322
:1051C00083FB222720F991E0922790FB83F9E2CF1D
:1051D0000E94C71B80913A0487FB222720F991E0A7
:1051E000922790FB87F980933A0405C0895301C048
:1051F0008D510E94802881E0089580E0FACF80E000
:10520000089580E008950C9401298E518A3030F47D
:10521000E82FF0E0E959FD4F8081089580E008957E
:10522000CF93C82F8091C903813071F018F082307C
:10523000E1F184C00E94C021813151F00E94C0215F
:10524000823209F07DC004C00E94C021813149F43E
:105250008C2F0E940329811109C08C2F0E9497284E
:1052600022C00E94C021823221F4F2CF81E090E07E
:105270001AC08C2F0E940129811114C0C43179F009
:1052800048F4CB3079F0C03109F05EC082E0809301
:10529000C90308C0C93219F0C83321F055C01092B3
:1052A000C90352C081E0817051C0C93279F108F55B
:1052B000C43161F1A0F4C73009F044C01092BA03C0
:1052C00084E180932601C09325018CE3809324011F
:1052D00088E08093220188E28093210133C082EE2E
:1052E0008C0F863078F58C2F0E9405298093C80397
:1052F00029C0CE34E9F020F4CB3421F56AE013C0A4
:10530000C13579F0C235F1F461E00DC08091C80378
:10531000882319F01092C80315C081E08093C90357
:1053200015C061E006C08091C8030E94BA270AC078
:105330006AE08091C8030E94302804C01092C9031B
:1053400080E004C081E002C080E0ADCFCF9108953D
:105350008091EA030895CF93DF9300D01F92CDB7D9
:10536000DEB790914004943019F589837B836A837A
:1053700082E08093E9008FEF9091E800815095FDE5
:1053800006C095ED9A95F1F700008111F5CF809157
:10539000E80085FF0DC040E050E063E070E0CE0122
:1053A00001960E94D82B8091E8008E778093E800C8
:1053B0000F900F900F90DF91CF910895BC0184E082
:1053C0000C94AB29BC0183E00C94AB2922E0209320
:1053D000E9002FEF3091E800215035FD06C035ED92
:1053E0003A95F1F700002111F5CF2091E80025FF53
:1053F0000BC040E050E066E070E00E94D82B809146
:10540000E8008E778093E8000895CF93DF93209192
:105410003101222339F020913A0427FF03C060E2D2
:1054200022E002C068E021E02093E9002FEF3091F4
:10543000E800215035FD06C035ED3A95F1F7000042
:105440002111F5CF2091E80025FF1DC0EC018091CE
:105450003101811105C040E050E068E070E003C018
:1054600070E040E050E0CE010E94D82B8091E8002F
:105470008E778093E80080E2FE01AAECB3E0019011
:105480000D928A95E1F7DF91CF91089580913F04C5
:10549000811109C00E94692D0E94C62D8091E200F1
:1054A00084608093E200089510923F040895089567
:1054B00008950C94342442E061EC81E00E94E22CD7
:1054C00042E261EC82E00C94E22C80914204833051
:1054D00009F460C030F4813071F0823009F499C071
:1054E00008958A3009F485C08B3009F46BC0893087
:1054F00009F0A7C020C080914104813A09F0A1C001
:105500008091E800877F8093E80080914504909126
:105510004604892B21F460E28AEC93E003C060E04A
:1055200080E090E070E00E94232C8091E8008B776F
:105530008093E800089580914104813209F081C090
:105540008091450490914604029708F07AC08091BA
:10555000E800877F8093E8008091E80082FD05C025
:10556000809140048111F8CF6CC02091F3008091AC
:10557000F20090E0922B029729F48091F1008B7F4A
:10558000813021F48091F1008093EA038091E8005A
:105590008B7753C080914104813A09F052C08091C9
:1055A000450490914604892B09F04BC08091E80096
:1055B000877F8093E8008091E80080FFFCCF809196
:1055C000310136C0809141048132D9F58091450482
:1055D00090914604892BA9F58091E800877F8093FC
:1055E000E8000E94172D80914304809331010C94B0
:1055F000C71B80914104813221F58091E800877FAB
:105600008093E8000E94172D809144048093EB035F
:10561000089580914104813AA1F48091E800877F48
:105620008093E8008091E80080FFFCCF8091EB033D
:105630008093F1008091E8008E778093E8000C94CD
:10564000172D089584B7877F84BF0FB6F894A89567
:1056500080916000886180936000109260000FBEAE
:1056600090E080E80FB6F894809361009093610019
:105670000FBE0E9424160E94692D0E94C62D8091A3
:10568000E20084608093E20078940E945B300E9484
:105690002E1687E291E00E94AF158091400485307C
:1056A00069F40E94F12380913E048823B1F30E94A3
:1056B000D923882391F30E94C22BEFCF0E94381682
:1056C000ECCF0C94632B292F332723303105C9F0FD
:1056D00060F42130310581F02230310509F04AC0F3
:1056E0008BE390E02CE735E049C02132310511F120
:1056F0002232310579F13EC082E190E027EB35E0BE
:105700003DC099278130910561F040F082309105CC
:1057100059F0039779F5E8E2F5E008C0E8E7F5E02D
:1057200005C0E6E4F5E002C0EEE2F5E0849190E029
:105730009F0124C06115710541F061307105D1F4FC
:1057400089E090E027EA35E019C089E090E02EE892
:1057500035E014C06115710541F06130710551F4F7
:105760008CEB90E029EC35E009C080E490E025E87E
:1057700036E004C080E090E020E030E0FA013183C0
:105780002083089580E189BD82E189BD09B400FECE
:10579000FDCF8091D8008F7D8093D8008091E0006C
:1057A00082608093E0008091E00081FDFCCF08954D
:1057B000CF92DF92EF92FF920F931F93CF93DF93DD
:1057C000EC018B017A010E94362D811133C0E11466
:1057D000F10439F0F70180819181081B190BC80F82
:1057E000D91FC12CD12C0115110519F18091E800A8
:1057F00085FD16C08091E8008E778093E800E11463
:10580000F10449F0F70180819181C80ED91ED1823F
:10581000C08285E00FC00E94362D882321F30AC084
:1058200089918093F10001501109FFEFCF1ADF0A2F
:10583000DACF80E0DF91CF911F910F91FF90EF9031
:10584000DF90CF90089520914704309148042617A7
:10585000370748F06115710539F42091E8002E777B
:105860002093E80001C0B901FC0120E06115710539
:1058700079F1809140048823F1F18530F1F1809134
:10588000E80083FD3CC08091E80082FD2EC080913D
:10589000E80080FFEBCF2091F3008091F20090E0D0
:1058A000922B6115710551F08830910538F42191E2
:1058B0002093F100615071090196F3CF21E0089720
:1058C00009F020E08091E8008E778093E800CECF49
:1058D0002111CFCF0AC080914004882361F0853028
:1058E00061F08091E80083FD0AC08091E80082FFAA
:1058F000F2CF80E0089582E0089583E0089581E08A
:10590000089520914704309148042617370748F03E
:105910006115710539F42091E8002E772093E80095
:1059200001C0B901FC0120E06115710591F1809180
:105930004004882309F440C0853009F43FC08091B9
:10594000E80083FD3DC08091E80082FD2FC080917A
:10595000E80080FFE9CF2091F3008091F20090E011
:10596000922B6115710559F08830910540F424910E
:105970002093F1003196615071090196F2CF21E038
:10598000089709F020E08091E8008E778093E80086
:10599000CBCF2111CCCF0AC080914004882361F085
:1059A000853061F08091E80083FD0AC08091E800B5
:1059B00082FFF2CF80E0089582E0089583E00895A9
:1059C00081E00895982F973068F59093E900981733
:1059D00039F07091EC002091ED005091F00003C07F
:1059E000242F762F50E021FD02C09F5FECCF309135
:1059F000EB003E7F3093EB003091ED003D7F309324
:105A0000ED003091EB0031603093EB007093EC00CF
:105A10002093ED005093F0002091EE0027FDE5CF9C
:105A200080E008958F708093E90081E0089580916F
:105A3000410487FF11C08091E80082FD05C080917C
:105A400040048111F8CF11C08091E8008B770BC022
:105A500080914004882349F08091E80080FFF8CFCE
:105A60008091E8008E778093E80008952091E4000B
:105A70003091E50095E64091EC00842F817040FF65
:105A800023C08091E80080FD1DC0809140048823E0
:105A900099F0853099F08091EB0085FD11C040911F
:105AA000E4005091E5002417350729F3915011F0D7
:105AB0009A01E1CF84E0089582E0089583E008959B
:105AC00081E0089580E008954091E80042FFDDCF35
:105AD00008950E94D72D0E94DF2DE0EEF0E0808136
