:100000000C9458060C9475060C9475060C947506A1
:100010000C9475060C9475060C9475060C94750674
:100020000C9475060C9475060C947F280C94532937
:100030000C949C1A0C9475060C9475060C94750619
:100040000C9475060C9475060C9475060C94750644
:100050000C9475060C94F31A0C9475060C947506A2
:100060000C9475060C9475060C9475060C94750624
:100070000C9475060C9475060C9475060C94750614
:100080000C9475060C9475060C9475060C94750604
:100090000C9475060C9475060C9475060C947506F4
:1000A0000C9475060C9475060C9475061E001F00C2
:1000B000200021002200290001534600490065006C
:1000C00039002300240025002600270014000B001F
:1000D000150009001B004B003A003B003C003D00AE
:1000E0004E0034001C00120018000D000F00160016
:1000F0001100170007002F003E003F0040004100A4
:10010000300013000C00040008000E001D00100059
:1001100006001900050000004200430044004500AD
:1001200000001A000A00360037002800E2002D0007
:100130002E004D003500E0004A0052004D004B00FB
:10014000E40031002B0033003800E6000000E1003D
:100150004C0000002C00E300500051004F004E0006
:10016000E7002C0000002A00E5000000010001006B
:1001700001000100010001000100470048000100EA
:100180000100010001000100010001000100010067
:10019000010001000100010001005400550056005B
:1001A0000100010001000100010001000100010047
:1001B00001000100010001005F00600061005700C4
:1001C0000100010001000100010001000100010027
:1001D00001000100010000005C005D005E005700AE
:1001E0000000010001000100010001000100010008
:1001F000010001000100010059005A005B00670086
:1002000001000100010001000100010000000100E7
:10021000010000000100010062006200630058005C
:1002200001000100000001000100000044454255AA
:10023000473A2064697361626C65642E0A00444524
:100240004255473A20656E61626C65642E0A000A69
:10025000002530313662003A200025303258000A3D
:10026000722F6320303132333435363738394142DA
:10027000434445460A000A002530325820006B6589
:1002800079626F6172645F7265706F72743A200098
:100290000A0025303258006B6579626F6172645FC5
:1002A0007365745F6C65643A2000290A0025750047
:1002B0002F002575005D28002564002000256400BE
:1002C000200025640020002564007C002530325881
:1002D000006D6F7573656B6579205B62746E7C78F9
:1002E0002079207620685D287265702F61636C2903
:1002F0003A205B006D6B5F776865656C5F74696D54
:10030000655F746F5F6D6178203D2025640A006D24
:100310006B5F776865656C5F6D61785F737065654D
:1003200064203D2025640A006D6B5F74696D655F14
:10033000746F5F6D6178203D2025640A006D6B5FEE
:100340006D61785F7370656564203D2025640A00E7
:100350006D6B5F696E74657276616C203D202564FB
:100360000A006D6B5F64656C6179203D2025640A2D
:10037000006D6B5F776865656C5F74696D655F7450
:100380006F5F6D6178203D2025640A006D6B5F779B
:100390006865656C5F6D61785F7370656564203D4D
:1003A0002025640A006D6B5F74696D655F746F5F13
:1003B0006D6178203D2025640A006D6B5F6D61786A
:1003C0005F7370656564203D2025640A006D6B5F76
:1003D000696E74657276616C203D2025640A006D3B
:1003E0006B5F64656C6179203D2025640A000A001A
:1003F000257500363A20776865656C5F74696D65B0
:100400005F746F5F6D61783A20000A0025750035D2
:100410003A20776865656C5F6D61785F73706565BC
:10042000643A20000A00257500343A2074696D652D
:100430005F746F5F6D61783A20000A0025750033A4
:100440003A206D61785F73706565643A20000A0038
:10045000257500323A20696E74657276616C286D7C
:1004600073293A20000A00257500313A2064656C32
:100470006179282A31306D73293A20000A092D202C
:1004800056616C756573202D0A004D3E004D256444
:100490003E20003F007365742064656661756C746E
:1004A0000A00433E200077686572652064656C74BD
:1004B000613A20637572736F723D25642C207768F2
:1004C00065656C3D25640A53656520687474703AEF
:1004D0002F2F656E2E77696B6970656469612E6F69
:1004E00072672F77696B692F4D6F7573655F6B65E9
:1004F00079730A000A092D204D6F7573656B657954
:10050000202D0A4553432F713A09717569740A31D8
:100510003A0964656C6179282A31306D73290A3291
:100520003A09696E74657276616C286D73290A33B5
:100530003A096D61785F73706565640A343A0974CD
:10054000696D655F746F5F6D61780A353A09776828
:1005500065656C5F6D61785F73706565640A363AD6
:1005600009776865656C5F74696D655F746F5F6D51
:1005700061780A0A703A097072696E742076616C4B
:100580007565730A643A09736574206465666175FC
:100590006C74730A75703A092B310A646F776E3A7E
:1005A000092D310A706775703A092B31300A70676E
:1005B000646F776E3A092D31300A0A73706565648D
:1005C000203D2064656C7461202A206D61785F7322
:1005D00070656564202A2028726570656174202F1B
:1005E0002074696D655F746F5F6D6178290A003FE3
:1005F000004D3E2000433E20004C25640A007469F3
:100600006D65725F72656164333228293A20253046
:10061000346C580A006B6579626F6172645F69645B
:100620006C653A2025580A006B6579626F617264C7
:100630005F70726F746F636F6C3A2025580A0068A0
:100640006F73745F6B6579626F6172645F6C656410
:100650007328293A2025580A000A092D205374616D
:10066000747573202D0A004743433A20382E342EE8
:1006700030204156522D4C4942433A20322E302EE2
:1006800030204156525F415243483A2061767235DC
:100690000A004F5054494F4E533A204C5546412082
:1006A0004D4F5553454B45592045585452414B45A4
:1006B0005920434F4E534F4C4520434F4D4D414ED3
:1006C00044203531320A004255494C443A20202812
:1006D0004665622031332032303231290A005649D2
:1006E000443A203078464545442859616E67204396
:1006F000756929205049443A20307830303030280C
:1007000065766B2076315F3329205645523A20308A
:1007100078303030310A000A092D2056657273692D
:100720006F6E202D0A000A092D20436F6E736F6CC7
:1007300065202D0A4553432F713A09717569740A72
:100740006D3A096D6F7573656B65790A000A092D3D
:10075000204D61676963202D0A443A09446562753A
:1007600067204D65737361676520546F67676C65BB
:100770000A583A094D617472697820446562756758
:10078000204D6F646520546F67676C65202D205382
:10079000686F77206B657970726573736573206914
:1007A0006E206D617472697820677269640A4B3AD1
:1007B000094B6579626F61726420446562756720D8
:1007C000546F67676C65202D2053686F77206B65C9
:1007D000797072657373207265706F72740A4D3A26
:1007E000094465627567204D6F75736520546F67A6
:1007F000676C650A563A0956657273696F6E0A53DB
:100800003A095374617475730A433A094163746910
:100810007661746520436F6E736F6C65204D6F64F5
:10082000650A46312D4631303A0953776974636859
:1008300020746F204C6179657220302D3920284654
:100840003130203D204C30290A302D393A09537778
:100850006974636820746F204C6179657220302D53
:10086000390A47524156453A0953776974636820FB
:10087000746F204C6179657220302028616C74653A
:10088000726E617465290A423A094A756D70207466
:100890006F20426F6F746C6F616465720A455343D9
:1008A0003A094A756D7020746F20426F6F746C6FD7
:1008B000616465722028616C7465726E617465296B
:1008C0000A453A095072696E7420454550524F4DA1
:1008D0002053657474696E67730A425350414345EF
:1008E0003A09436C65617220454550524F4D0A00EC
:1008F0000A002575002E6E6B726F3A20000A0025E3
:1009000075002E737761705F6261636B736C6173E6
:10091000685F6261636B73706163653A20000A000F
:100920002575002E737761705F67726176655F650C
:1009300073633A20000A002575002E6E6F5F67759D
:10094000693A20000A002575002E737761705F7286
:10095000616C745F726775693A20000A0025750042
:100960002E737761705F6C616C745F6C6775693A48
:1009700020000A002575002E737761705F72637422
:100980006C5F726775693A20000A002575002E7346
:100990007761705F6C63746C5F6C6775693A200097
:1009A0000A002575002E636170736C6F636B5F7452
:1009B0006F5F636F6E74726F6C3A20000A0025756A
:1009C000002E737761705F636F6E74726F6C5F631C
:1009D0006170736C6F636B3A20000A0025303258E7
:1009E000006B65796D61705F636F6E6669672E720B
:1009F00061773A20000A002575002E6D6F757365CA
:100A00003A20000A002575002E6B6579626F6172CD
:100A1000643A20000A002575002E6D6174726978B1
:100A20003A20000A002575002E656E61626C653AF9
:100A300020000A00253032580064656275675F63E4
:100A40006F6E6669672E7261773A20000A0025751D
:100A50000064656661756C745F6C617965723A20DB
:100A6000003F000A6D6F7573653A206F66660A0075
:100A70000A6D6F7573653A206F6E0A000A6B6579AF
:100A8000626F6172643A206F66660A000A6B65796C
:100A9000626F6172643A206F6E0A000A6D6174724F
:100AA00069783A206F66660A000A6D617472697827
:100AB0003A206F6E0A000A64656275673A206F66B5
:100AC000660A000A64656275673A206F6E0A000A5A
:100AD0000A4A756D70696E6720746F20626F6F745B
:100AE0006C6F616465722E2E2E2000433E20004301
:100AF0006C656172696E6720454550524F4D0A0022
:100B00006565636F6E6669673A0A005B735D004BEB
:100B10006579626F6172642073746172742E0A0069
:100B20005B575D005B535D005B525D005B445D00A5
:100B30005B435D001203650076006B0020007600C9
:100B400031005F00330000001203590061006E00A5
:100B500067002000430075006900000004030904D9
:100B600009025B00030100A0FA090400000103016F
:100B7000010009211101000122400007058103083D
:100B8000000A09040100010300000009211101000D
:100B9000012281000705820320000A0904020002E5
:100BA0000300000009211101000122220007058332
:100BB00003200001070503032000011201100100BA
:100BC000000008EDFE00000100010200010631FFF7
:100BD0000974A1010975150026FF0095207508818B
:100BE000020976150026FF00952075089102C005C0
:100BF000010902A10185020901A1000509190129C4
:100C00000515002501950575018102950175038182
:100C1000010501093009311581257F95027508818B
:100C20000609381581257F950175088106050C0A8E
:100C300038021581257F950175088106C0C0050120
:100C40000980A101850319012AB700150126B70003
:100C5000950175108100C0050C0901A101850419D9
:100C6000012AA002150126A002950175108100C07D
:100C700005010906A101050719E029E7150025016D
:100C80009508750181029501750881010507190014
:100C900029FF150026FF0095067508810005081933
:100CA000012905950575019102950175039101C012
:100CB00011241FBECFEFDAE0DEBFCDBF11E0A0E010
:100CC000B1E0E4E5F7E502C005900D92A63AB10760
:100CD000D9F722E0A6EAB1E001C01D92A539B2071A
:100CE000E1F70E94B6250C94802B0C940000FF9332
:100CF000EF93E091A601F091A701309709F00995D3
:100D0000EF91FF910895FC018591803011F0EFDFA4
:100D1000FBCF0895FF27E0E230E247FF0CC041958A
:100D200097FF09C0EDE26095709580959095611DE3
:100D3000711D811D911D27FF02C0219530E350E2F6
:100D4000AA27660F771F881F991FAA1FA41710F0E4
:100D5000A41B63955A95A9F7AA3008F0A95FA05D76
:100D6000AF93F395611571058105910541F7ED325A
:100D700011F4EF93F395F21718F43F93F395FBCF2B
:100D80008F91B5DFFA95E1F70895E991F991859191
:100D9000803021F0853219F0AADFF9CF089520E0E4
:100DA000E89455915532C1F3503311F4689455913C
:100DB0005A3348F4505390F3220F022E220F220F81
:100DC000200D250FF4CF0EF421958991999153367A
:100DD00019F3533729F1533559F1BC018827992765
:100DE000E8945C3621F48991999168945591543630
:100DF00039F446EF7EF077FF0DC08FEF9FEF0AC00A
:100E000055374AE039F0583540E121F0523642E09A
:100E100009F00895FF93EF937DDFEF91FF91B7CF36
:100E2000FF93EF93FC0181918030B9F360DFFBCF3A
:100E3000FF93EF9368DFF1CFDF93CF93CDB7DEB7AA
:100E40002596A3DFCF91DF910895559A0C94280A37
:100E5000CF92DF92EF92FF926B017C0141E00E9402
:100E6000C216882341F05D9AC701B601FF90EF904A
:100E7000DF90CF9008955D98F7CFCF93C82F0E9451
:100E80000B08882319F0C1FF03C05C9ACF91089525
:100E90005C98FCCF81E0089581E008950C944C07A4
:100EA00008950C9450071F93CF93DF9300D000D088
:100EB0000F92CDB7DEB749835A836B833091C2015D
:100EC00089819A8131111DC06623B9F02223A9F0CE
:100ED0000E94DB17182F682F89819A810E9488173A
:100EE00069817A81812F0F900F900F900F900F9052
:100EF000DF91CF911F910C941C080E94B417182FFA
:100F0000EFCF0E94DB1769817A81EDCFFC01262F9C
:100F1000408151816281738184810C945307CF9306
:100F2000DF93EC0160E00E948607BE01DF91CF9164
:100F30000C9451070E944919811102C00E94ED19B9
:100F40000E940D080C9425070C942A0A08950E940B
:100F5000DF120E94A6072FEF84E39CE0215080401F
:100F60009040E1F700C000000C94171B0F931F93F3
:100F7000CF93DF93EC0161E00E9486078C01BE01F4
:100F80000E944E07882311F1BE01C8010E94030C84
:100F90008823E1F0BE01C8010E94550C8823B1F0FE
:100FA000BE01C8010E94780D882381F08A818823C0
:100FB00041F101308CE5180779F00F3D8CE51807F9
:100FC000E9F001151C45E9F40E94A70780E0DF91D4
:100FD000CF911F910F91089590914C02892F8E7F90
:100FE00090FF816080934C0280FF05C08EE392E009
:100FF0000E948306EBCF8CE292E0FACF0E94ED19BB
:10100000E5CFCE01DF91CF911F910F910C944A074C
:1010100008950C94080881E00895549A5C98089506
:10102000CF93C82F0E9409088C2FCF910C943D07B5
:1010300090E080E008950895E72FF0E096E0899F22
:10104000E00DF11D112484E0EE0FFF1F8A95E1F7FA
:10105000E60FF11DEE0FFF1FE455FF4F85919491B0
:101060000895FC01EE0FFF1FE15BFD4F8591949108
:101070000895CF93DF930E941C080E944E09EC0153
:10108000811520E5920708F042C0811530E49307EE
:1010900008F0BDC0883E910528F5803E910508F016
:1010A0009DC0883A910588F4853A910508F08FC073
:1010B0008130910509F492C0009709F48FC004971C
:1010C00008F08CC0D0E0C0E089C08F3B910508F4E7
:1010D00089C0805C9109C03CD105A0F30E94310811
:1010E000EC017CC08115904250F4C11581E0D80715
:1010F00008F074C0C03FD10528F3D0656FC0C1159A
:1011000090E3D90708F079C0CE019F70E7CF811531
:1011100025E5920758F5811534E5930708F0A6C038
:10112000811542E5940750F4C11581E5D80708F40C
:1011300071C0DC2FCC27C16FD06A50C0982F969514
:1011400096959E0123703327C115D34508F07FC0C3
:10115000C1E0D0E002C0CC0FDD1F2A95E2F720E20B
:10116000929FC0011124C82BD92B6FC0C11589E5EE
:10117000D807A8F4C11598E5D90708F07CC0C115B7
:1011800026E5D20708F09ECF8C2F0E94E509C82FD4
:10119000D0E0DC2FCC27CC27DF71D0621FC0C11577
:1011A0003AE5D30708F46CC0CE0190568115904201
:1011B00008F088CF8D2F8F710E94E50990E0982F5D
:1011C000882788279F719C012C2BE901E6CFC55AFF
:1011D000D0E0CD5BDE4FC881D0E0D064CE01DF919E
:1011E000CF910895C85AD0E0CC0FDD1FCB5EDE4F03
:1011F0000990D881C02DD464F1CFCE019927D3FFB7
:1012000003C0EC01D86CEACFEC01D06CE7CFDF7003
:10121000D06AE4CFCE01E4E096958795EA95E1F7B0
:1012200083702C2F26952695237090E2299F90019C
:101230001124382B8C2F8370C1E0D0E002C0CC0F7A
:10124000DD1F8A95E2F7C22BD32BDC68C7CFC1E044
:10125000D0E002C0CC0FDD1F2A95E2F730E2939F69
:10126000C0011124C82BD92BDA68B8CFD82FCC27CE
:10127000C46FD06AB3CFDC2FCC27C06FD06AAECF9B
:101280008C2F8F700E94E50934E0D695C7953A956A
:10129000E1F7CF709C2FEC01D069A0CF8238910587
:1012A000B1F1B0F48133910509F475C048F4893285
:1012B000910509F469C08A32910509F473C0089553
:1012C0008533910509F459C08933910501F10895D9
:1012D000833E9105A9F138F4803E9105F9F0823EF4
:1012E000910549F10895863E9105A9F1873E910542
:1012F000C9F1843E910519F52091870221FF1FC095
:101300008091860284FD14C087EE90E008952091BC
:1013100086022370A1F080EE90E00895209186026D
:1013200020FD47C03091870230FF09C024FF44C030
:1013300090E080E004C02091860222FDF7CF08955E
:101340002091860222FD3BC03091870230FDE3CF21
:1013500024FFF5CFEDCF2091860223FFF0CF24FDAF
:10136000E7CFD2CF2091860223FD2CC03091870297
:1013700031FFEECF84EE90E008952091860225FFA4
:10138000DECF89E290E008952091860225FFD7CF35
:1013900085E390E008952091860226FFD0CF8AE26F
:1013A00090E008952091860226FFC9CF81E390E066
:1013B000089589E390E0089583EE90E0089582EE29
:1013C00090E0089586EE90E008959091860292FF55
:1013D00006C0282F28712830F9F4877F846093FF96
:1013E00006C0282F28712831F1F4877E846120916E
:1013F000870220FF06C0382F38713830D9F4877F34
:10140000816021FF06C0282F28712831D1F4877E02
:10141000816194FD877E0895282F24712430F9F688
:101420008B7F8860DCCF282F2471243101F78B7EDD
:101430008861DDCF382F3171313019F78E7F8860A8
:10144000E0CF282F2171213121F78E7E8861E1CFF5
:10145000089508950C94290AE82FF0E0EE0FFF1F7D
:10146000EA58FD4F808191810895CF92DF92EF92EB
:10147000FF920F931F93CF93DF938FE592E00E942B
:10148000830686E7E82E82E0F82ED0E0C0E09AE5F9
:10149000C92E92E0D92E01E512E0DF93CF93DF92BF
:1014A000CF920E941C0787E592E00E948306F70115
:1014B000819191917F010E943C199F938F931F937B
:1014C0000F930E941C078FE492E00E9483062196EE
:1014D0008DB79EB708960FB6F8949EBF0FBE8DBF0E
:1014E000C630D105D1F6DF91CF911F910F91FF90BA
:1014F000EF90DF90CF90089580EA8A95F1F70895F4
:10150000F894E82FE295EF70F0E031A1282F2F70CA
:1015100081E090E001C0880F2A95EAF7982F909516
:10152000932391A392A1892B82A378940895CF93BA
:10153000DF93C6E4D1E089910E94800A81E0C6353C
:10154000D807C9F780E30E94800A81E30E94800ADD
:1015500082E30E94800A83E30E94800A87E30E945C
:10156000800A80E90E94800AEAE6F2E0A6E7B2E09B
:10157000119211921D921D9282E0E637F807C1F791
:1015800086E00E945D0BDF91CF910C949A076F92D9
:101590007F929F92AF92BF92CF92DF92EF92FF9293
:1015A0000F931F93CF93DF9396E4E92E91E0F92EEA
:1015B00010E000E0C0E0CC24C394D12C36E7A32E89
:1015C00032E0B32ED7018D917D01F894E82FE2959A
:1015D000EF70F0E021A18F70A60102C0440F551FEB
:1015E0008A95E2F7CA01922F982B91A392A1809538
:1015F000892382A378940E947C0AA601002E02C04F
:10160000440F551F0A94E2F7BA0160957095EAE617
:10161000F2E086E5682E81E0782ED0E021913191CC
:10162000D3019D903D01892D82958F7090E0DC0162
:1016300090968C9190E0B92DBF7002C095958795DA
:10164000BA95E2F780FD35C0C901842B952B281788
:10165000390739F09F0122503109D9018D939C93AC
:10166000D1E0AE16BF06D1F6F701319780810E9416
:10167000800ACD2B0F5F1F4F0031110509F0A2CF5B
:101680002C2F46E066E772E08AE692E00E945E0B4D
:101690000E94A4078C2FDF91CF911F910F91FF9093
:1016A000EF90DF90CF90BF90AF909F907F906F9022
:1016B0000895C90186239723CACF0895FF920F93F7
:1016C0001F93CF93DF93F82E092F162FD72FC42FF8
:1016D000222349F081E08093AA010E94CC1A9093C2
:1016E000A9018093A8018091AA018823A1F080918B
:1016F000A8019091A9010E94E41A069760F0EF2DCD
:10170000F02FA12FBD2F90E080E0D0E08C179D0737
:1017100044F01092AA01DF91CF911F910F91FF9099
:101720000895219131912D933D930196EFCF0F9321
:101730001F93CF93DF93C42FD22FFC018281882384
:10174000C9F04093AD010E94CC1A9093AC018093F4
:10175000AB0180E28C0F883008F050C0C77081E088
:1017600001C0880FCA95EAF7DF91CF911F910F91C1
:101770000C9463101091AD01141335C08091AB012E
:101780009091AC010E94E41A883C910560F5C0E29A
:10179000CD0F1D17B9F080E2810F883040F417702B
:1017A00081E001C0880F1A95EAF70E946A10C830DC
:1017B00048F481E09D2F977001C0880F9A95EAF751
:1017C0000E946310802F0E945010C830B8F4D77068
:1017D00081E001C0880FDA95EAF7DF91CF911F9180
:1017E0000F910C946A1080E28C0F883038F4C77027
:1017F00081E001C0880FCA95EAF7EFCFDF91CF9162
:101800001F910F9108950F939C01CB01243F4CE54C
:10181000340759F1A8F4293DFCE53F0701F12A3DC1
:101820004CE53407D1F1283D3C4591F406E221EE28
:1018300041EE68ED7CE50E94970B80E00F910895E2
:10184000263FFCE53F07E9F0B0F0273F3C45F9F0C3
:10185000FC018281882339F11092AD01EFCF07E2BC
:1018600025EE45EE69ED7CE5E6CF06E221EE40EEA1
:1018700064EF7CE5E0CF07E225EE44EE65EF7CE522
:10188000DACF06E221EE42EE66EF7CE5D4CF07E246
:1018900025EE46EE67EF7CE5CECF08E221E045EE8F
:1018A0006AED7CE5C8CF81E0C9CFCF93DF93EC012F
:1018B000FB018281882309F419C1C230FCE5DF07EE
:1018C000C0F1C6319CE5D90730F09E012B5F3C4545
:1018D0002930310570F50E945C199093870280933E
:1018E0008602C031ECE5DE0709F4CFC008F05BC02A
:1018F000C8308CE5D80709F4B6C088F5C430ECE5EB
:10190000DE0709F4A8C0C0F4C2308CE5D80709F49A
:101910009CC0809186028260C330DC4509F498C087
:1019200080918602909187020E946A190E94DF12BC
:1019300080E0DF91CF910895809186028061C6306A
:10194000ECE5DE0709F484C0809186028860C73028
:10195000DC4508F47DC080918602806279C0CC307D
:101960008CE5D80709F489C070F4809186028C60F8
:10197000CA30ECE5DE0709F46BC008F478C080914A
:1019800086028E7F65C0CE308CE5D80709F479C019
:10199000809186028B7FCF30DC4508F459C080915E
:1019A00086028F7E55C0CC3FECE5DE0709F457C0B8
:1019B00030F5C3318CE5D80709F46FC078F4C13134
:1019C000ECE5DE0709F465C0C231DC4509F0A8CFBB
:1019D0000E94DF12809186028F773AC0C5318CE574
:1019E000D80709F462C008F476C08091870281604C
:1019F000CB3FDC4509F094CF8093870291CFC1158E
:101A0000FDE5DF0709F44DC088F4809187028D7FE2
:101A1000CE3F9CE5D90781F3809187028E7FCF3F2F
:101A2000DC4550F3809187028360E6CFC230FDE54C
:101A3000DF0709F459C008F444C080E0C330DD4535
:101A400009F06ECF0E94EF196BCF80918602816002
:101A50008093860265CF809186028460F9CF809161
:101A600087028260C9CF809186028064F1CF0E9494
:101A7000DF12809186028068EBCF809186028D7F95
:101A8000E7CF80918602877FE3CF809186028F7DAA
:101A9000DFCF809186028F7BDBCF80918602837FB0
:101AA000D7CF809187028C7FA7CF8091860282FB5F
:101AB000992790F921E0922790FB82F990FB83F916
:101AC000C7CF80918702982F909591708E7F892B38
:101AD00090FB81F991CF0E94DF1290918602892FAD
:101AE00097FB87F98058B4CF81E0ACCF81E021CF5C
:101AF000CF93DF93EB0186319C4511F50E9470185E
:101B00009A81992399F08A7A91E009F490E0909370
:101B1000AE01811109C089E20E944B180E94BC18D5
:101B200080E0DF91CF91089585E3F6CF8091AE01FB
:101B3000811104C089E20E945218F0CF85E3FBCFE7
:101B400081E0EFCF9093B4018093B3010895E091C9
:101B5000B301F091B401309721F00190F081E02DB4
:101B6000099480E00895EF92FF920F931F93CF9313
:101B7000DF938C01E091B301F091B4013097C1F192
:101B80000280F381E02D099580914C0282FF30C0E4
:101B900080FF04C08EE792E00E948306D0E0C0E0A0
:101BA00088E7E82E82E0F82E80914C0280FF0EC07C
:101BB000F801EC0FFD1F80811F928F93FF92EF922F
:101BC0000E941C070F900F900F900F902196C83025
:101BD000D10551F780914C0280FF0AC086E792E060
:101BE000DF91CF911F910F91FF90EF900C9483069E
:101BF000DF91CF911F910F91FF90EF900895E091A9
:101C0000B301F091B401309739F022E0DC012C935C
:101C10000480F581E02D099408952091B10130915F
:101C2000B2012817390771F09093B2018093B10186
:101C3000E091B301F091B401309721F00680F78173
:101C4000E02D099408952091AF013091B00128173B
:101C5000390771F09093B0018093AF01E091B30127
:101C6000F091B401309721F00084F185E02D0994C2
:101C7000089585B7806885BF85B7806885BF08955A
:101C8000089508950C94400E08950C94440E0E94FB
:101C9000390E0E94410E0C94420E81E008950C947E
:101CA0004D0E089508950E94C31A0E94970A0E943B
:101CB000491B0C94450ECF93C82F80914C0282FF94
:101CC0001EC080FF1CC087E992E00E9483068091BD
:101CD0004C0280FF14C01F92CF9382E992E09F9341
:101CE0008F930E941C0780914C020F900F900F90D1
:101CF0000F9080FF04C080E992E00E9483068C2F41
:101D0000CF910C9410089F92AF92BF92CF92DF9226
:101D1000EF92FF920F931F93CF93DF93CDB7DEB770
:101D20002A970FB6F894DEBF0FBECDBF0E94510EAA
:101D30000E94520E0E94C70A0E944F0E882309F487
:101D400070C056EBA52E51E0B52E10E000E0902EAD
:101D5000802F0E942C0A6C01F501E190F1905F0147
:101D6000E816F90609F457C080914C0281FD0E94E3
:101D7000350A97012C253D2580E0EE24E394F12CD3
:101D8000A9014E215F21452B09F43FC08E839F821C
:101D9000CE20DF2081E0CD2809F480E088870E94F2
:101DA000CC1A8160782F9A8789874E815F816885F8
:101DB0008A850E94340F000F111FF801EA54FE4F6C
:101DC00080819181E826F926F182E0820E94761DC9
:101DD0000E94A70D9091B5018917A1F10E94A70D4E
:101DE0008093B5012A960FB6F894DEBF0FBECDBF23
:101DF000DF91CF911F910F91FF90EF90DF90CF90E7
:101E0000BF90AF909F900C945B0E8F5FEE0CFF1C09
:101E1000803109F0B5CF0F5F1F4F0630110509F073
:101E200096CF8FEF89838A831B820E94CC1A8160B0
:101E3000782F9D838C8349815A816B818D810E948B
:101E4000340FC4CF2A960FB6F894DEBF0FBECDBFB5
:101E5000DF91CF911F910F91FF90EF90DF90CF9086
:101E6000BF90AF909F900895CF93DF93CDB7DEB72B
:101E70002B970FB6F894DEBF0FBECDBF4F835887A8
:101E800069877A878B871E821D8285E0FE013796DF
:101E9000DE01119601900D928A95E1F749815A81F0
:101EA0006B817C818D819E812B960FB6F894DEBF6D
:101EB0000FBECDBFDF91CF910C945515FC018081F1
:101EC00091810C941D18CF93C82F882309F490C0DA
:101ED0008238C1F40E94A70D81FD8AC089E30E9467
:101EE0004B180E94BC182FEF81EE94E021508040E7
:101EF0009040E1F700C0000089E30E945218CF91A2
:101F00000C94BC188338A1F40E94A70D80FD70C00A
:101F100083E50E944B180E94BC182FEF81EE94E0DD
:101F2000215080409040E1F700C0000083E5E5CFFC
:101F30008438A1F40E94A70D82FD5AC087E40E9454
:101F40004B180E94BC182FEF81EE94E02150804086
:101F50009040E1F700C0000087E4CFCF8CEF8C0FFA
:101F6000813AB8F48C2F0E945722811141C06C2F06
:101F700080910001909101010E94061A882329F0A6
:101F80008C2F0E9452180E94BC188C2F0E944B1854
:101F9000B6CF80E28C0F883048F4C77081E001C072
:101FA000880FCA95EAF70E947318A9CFEBE5EC0FEA
:101FB000E33040F4F0E0E657FE4F808190E0CF91AF
:101FC0000C940D0EE8E5EC0FE73150F4F0E0EE0F65
:101FD000FF1FE45AFE4F80819181CF910C94230E14
:101FE000C03F30F08C2F0E94EE1BCF910C94D91C77
:101FF000CF910895882309F452C0823871F40E9469
:10200000A70D81FF4CC089E30E944B180E94BC18A9
:1020100089E30E9452180C94BC18833859F40E942A
:10202000A70D80FF3CC083E50E944B180E94BC189E
:1020300083E5EFCF843859F40E94A70D82FF2FC0AB
:1020400087E40E944B180E94BC1887E4E2CF9CEF03
:10205000980F913AF0F290E2980F983050F4877010
:1020600091E001C0990F8A95EAF7892F0E947918AB
:10207000D2CF9BE5980F933020F490E080E00C9451
:102080000D0E98E5980F973120F490E080E00C94C5
:10209000230E803F20F00E94561C0C94D91C0895FA
:1020A000CF93C82F0E94630FC93349F42FEF87EEF7
:1020B00093E0215080409040E1F700C000008C2F59
:1020C000CF910C94FA0F882321F00E9473180C947E
:1020D000BC180895882321F00E9479180C94BC182C
:1020E0000895BF92CF92DF92EF92FF920F931F93CA
:1020F000CF93DF936C01D62FC72FFC01058102958A
:102100000F70128111110E9490180E946918E82E18
:10211000882391F01123D1F08C2F807F803421F01F
:1021200080E28D0F883090F082E00E9407190E94B3
:10213000691891E0E82EE926BC2EB2949FE0B922FE
:10214000EB2DF0E0EE57F44D0C94242BE12CF4CF62
:102150000C2F0F70C07F11F00295007F1123A9F0A2
:10216000002359F080E28D0F883010F0D11109C0A2
:10217000802F0E9473180E94BC188D2F0E94630F3D
:1021800014C0802F0E948318F6CF8D2F0E94FA0F63
:10219000002359F080E28D0F883010F0D1112CC04F
:1021A000802F0E9479180E94BC182B2D2850330BC9
:1021B0002430310520F40E94A70D0E941008EE2063
:1021C00009F49EC10E94651880FD9AC1F601128231
:1021D0000E945F180E94EC16C6010E94A1120E9484
:1021E0005F18DF91CF911F910F91FF90EF90DF90DB
:1021F000CF90BF900C940D17802F0E948918D3CFD9
:10220000FC2FFF70FF2EC07FC03219F0F29480EFD8
:10221000F822DD2369F0D13049F1112391F1002337
:1022200051F1F601858180FFA8CF8F70858323C08F
:10223000112381F0011106C00E94A3188F290E946A
:102240006310B3CF0130C1F70E94A3188F290E94F9
:10225000A918ABCF011106C00E94B2188F2D0E94A1
:102260006A10A3CF013009F4A0CFF6CF112329F0D3
:10227000063008F09ACF8F2DE2CF053008F095CFC9
:10228000EDCF002359F3D93349F4FFEF27EE33E0C4
:10229000F15020403040E1F700C000008D2F0E9437
:1022A000FA0F83CF8C2F86958695837069F08130E5
:1022B00009F07BCF8D2F9C2F9370111102C090E0FD
:1022C00080E00E94230E71CF8D2F9C2F93701111EF
:1022D00002C090E080E00E940D0E67CF8D2F112389
:1022E00029F00E94EE1B0E94D91C5FCF0E94561C51
:1022F000FACF8C2F837009F041C0111156CF4D2FAA
:10230000429546954770440F440F0D2F0F7010E013
:1023100030E020E0042E04C0000F111F221F331FE5
:102320000A94D2F760E070E0CB01D4FF0FC06FE0F9
:1023300070E080E090E004C0660F771F881F991F4F
:102340004A95D2F76095709580959095C695C695FB
:10235000C370602B712B822B932BC23049F058F441
:10236000C13019F00E948B1620CF0E9479161DCF24
:102370000E949D161ACF0E94771617CF86951123BB
:1023800011F08C2F8170882309F40FCF4D2F4295C7
:1023900046954770440F440F0D2F0F7010E030E04A
:1023A00020E0042E04C0000F111F221F331F0A94C7
:1023B000D2F760E070E0CB01D4FF0FC06FE070E0B7
:1023C00080E090E004C0660F771F881F991F4A9530
:1023D000D2F76095709580959095C695C695C37017
:1023E000602B712B822B932BC23049F058F4C130F3
:1023F00019F00E946317D9CE0E945117D6CE0E94C1
:102400007517D3CE0E94B116D0CECF70112329F00C
:102410008C2F0E94EC168D2F12CF8D2F0E946A10E8
:102420008C2F0E940D17C1CED23F89F160F4D03FAE
:10243000C9F0D13F29F1112309F442C001119DCE09
:102440008C2F8F7121C0D33F39F1D43FA1F71123D5
:1024500069F1CF718C2F0E94EC1663E08C2F0E94E3
:10246000F218A3CE112341F0053008F09ECE8C2F38
:102470008F710E94301799CE063008F096CEF7CFB4
:102480008C2F8F71112369F20E94EC168ECE8C2F47
:102490008F711123C9F3C5CF112329F08C2F8F71B0
:1024A0000E94D71682CE0E94BD167FCE81E00E9488
:1024B0000719023008F479CE82E00E94071975CE20
:1024C000002359F0D93309F0E9CE8FEF97EEE3E01E
:1024D00081509040E040E1F7DFCE8C2F8F71A1CF8B
:1024E0004C2F4F706D2FC6010E9418080E94EF15E7
:1024F0005CCE4C2F4F706D2FC6010E941B0855CE2D
:10250000DF91CF911F910F91FF90EF90DF90CF90CF
:10251000BF9008950F931F93CF93DF93EC016881D1
:1025200079818A810E9427188C010E9487170E9456
:102530007616B801CE01DF91CF911F910F910C94C7
:102540007110CF93DF93EC018B819C81892B29F053
:102550008881998189238F3F59F4DF91CF91089524
:10256000CE010E948A12CE01DF91CF910C948F0789
:10257000CE010E94B6078111F3CF0E94691888230B
:1025800061F38A81882349F382E0DF91CF910C9433
:1025900007190E9490180E94A0180E94BC180E945F
:1025A000821E0E94D91C90E080E00E940D0E90E0F7
:1025B00080E00C94230E0E9459180C94C9120E94BA
:1025C00080180C94DB12E92FE295EF70E250EE30A8
:1025D00070F4F0E0EE56F44D0C94242B803F19F08B
:1025E00020F4883E20F481E00895843FE1F380E008
:1025F0000895883EC0F3813FD1F7F5CF93FB88273C
:1026000080F908950E941D180C94E312CF93DF9374
:1026100000D000D00F92CDB7DEB70F900F900F9083
:102620000F900F90DF91CF910895CF93DF9300D05B
:1026300000D000D0CDB7DEB726960FB6F894DEBF37
:102640000FBECDBFDF91CF9108951F93CF93DF933E
:10265000C091C30116E08091C4018C1304C0DF91C6
:10266000CF911F910895D0E01C9FF0011D9FF00DA8
:102670001124EB53FE4F408151816281738184812B
:1026800095810E9415132196C770E5CF4091F50101
:102690005091F6016091F7017091F8018091F90174
:1026A0009091FA010C9415131F93CF93DF938091AF
:1026B000FA01807FA9F48091F701882389F0809145
:1026C000C301C091C4016091F5017091F601A09120
:1026D000F801B091F901D62FD72316E0C81304C032
:1026E000DF91CF911F91089590E0109711F0DF3F97
:1026F00019F401968770F2CF189F9001199F300D41
:102700001124F901EB53FE4F41814713F2CF408171
:102710004613EFCF42814111ECCF438154814A1BD4
:102720005B0B483C510528F78091FA018F7080615E
:102730008093FA01F901E653FE4F80818F7080612A
:10274000808385EF91E00E94A112DF91CF911F91CC
:102750000C942513AF92BF92CF92DF92EF92FF922B
:102760000F931F93CF93DF93CDB7DEB761970FB66B
:10277000F894DEBF0FBECDBF8C0185E0F801DE010D
:102780001D9601900D928A95E1F7F80140815181E3
:10279000E28085EFC82E81E0D82E6091F80170911B
:1027A000F9016115710509F461C19091F50120915C
:1027B000F601892F82238F3F09F458C1A380B4808A
:1027C000F090F701F501E61BF70BFF2009F4FCC0C0
:1027D0008091FA01382F307FE83CF10508F0B2C053
:1027E000311179C0FE2C251323C0941321C0E110B0
:1027F0001FC08F7080618093FA010E944613C6014A
:102800000E94A1128091FA01F80185838F2D6196B3
:102810000FB6F894DEBF0FBECDBFDF91CF911F91F1
:102820000F91FF90EF90DF90CF90BF90AF90089501
:10283000AB2829F0842F85238F3F09F033C180E036
:10284000F82FF170DF2E80FF3CC08091C3012091F2
:10285000C40136E0821315C04D875E878D859E8545
:102860000E941D18292F22952F702230F0F024305D
:1028700018F59F70F1F0F8019581907FD1F4D12C7B
:102880001EC090E0389FF001399FF00D1124EB53EA
:10289000FE4F6181651306C06081641303C06281CD
:1028A0006E110FC001968770D5CF9F7011F08823ED
:1028B00031F3805E883018F3C8010E94A112FD2C0C
:1028C000A5CFEE2009F4A2CF8091FA018160809318
:1028D000FA01F12C9BCF251306C0941304C0F80114
:1028E000EE2009F48DC04D875E878D859E850E9400
:1028F0000213882319F1EE2009F18091FA01803248
:1029000070F02091F5013091F60138872F831986F8
:10291000BB86AA868C87CE0107960E94A11286E00C
:10292000F801A5EFB1E001900D928A95E1F70E94C0
:1029300054130E944613FF24F39468CFC8010E94E9
:10294000A112F9CF311113C07A2DB98AA88A6E2D40
:1029500089890E94061385EF91E00E94A11286E00A
:10296000F60111928A95E9F70E944613B2CF25131A
:102970000FC094130DC0E1100BC0F8018583C8018E
:102980000E94A11286E0F60111928A95E9F73ECFE6
:102990004D875E878D859E850E940213882371F284
:1029A000EE2061F28091FA01803208F4B8CF2091D4
:1029B000F5013091F6013A8329831B82BD82AC82F6
:1029C0008E83CE010196A9CFE83CF10508F041C005
:1029D000FE2CEE2009F4B2CF25132AC0941328C090
:1029E0008091FA0180FD1BC0982F907FC1F0F80103
:1029F0008583903F31F0982F907F905F8F70892B67
:102A00008583C8010E94A11286E0F801A5EFB1E01C
:102A100001900D928A95E1F70E944613F7CE86E069
:102A2000F801A5EFB1E001900D928A95E1F7EECEA5
:102A30004D875E878D859E850E94021381116FCF21
:102A40008091FA0181608093FA01C8010E94A1126D
:102A5000DDCE7A2DB98AA88A6E2D89890E94061347
:102A600086E0F60111928A95E9F7D6CFEE2009F4B7
:102A700065CF4D875E878D859E850E940213F82E57
:102A8000882309F45BCF86E0F801A5EFB1E001905F
:102A90000D928A95E1F785EF91E00E945E0F0E940A
:102AA0005413BACF81E08E25CBCE1F93CF93DF9303
:102AB000CDB7DEB72C970FB6F894DEBF0FBECDBFF3
:102AC0004F83588769877A878B879C87CE010796C3
:102AD0000E94AA13882369F08A859B85892B39F087
:102AE0004F815885842F85238F3F09F071C016E0F0
:102AF0005FC086E0FE013796DE01119601900D92CF
:102B00008A95E1F78A859B85892B89F38F81988542
:102B100089238F3F61F32091C40130E0C901019600
:102B2000877099274091C3014817190671F40E94D4
:102B3000DF121092C4011092C30186E0E5EFF1E0CC
:102B4000DF011D928A95E9F7D2CF96E0929FD001DE
:102B5000939FB00D1124AB53BE4FFE0131960190EF
:102B60000D929A95E1F78093C4010E942513BFCF7F
:102B7000819FC00111248B539E4F0E94AA1388236A
:102B8000E9F0E091C3011E9FF0011124EB53FE4FC9
:102B90004081518162817381848195810E941513E6
:102BA0008091C30190E00196877099278093C301BB
:102BB0008091C3019091C4018913DACF2C960FB68E
:102BC000F894DEBF0FBECDBFDF91CF911F91089566
:102BD00069857A858B859C850E94151388CFEF9235
:102BE000FF920F931F93CF93DF938C01892B81F07A
:102BF000F12CEE24E394E8012196F80184918437C6
:102C000070F4843008F05FC08130B1F08230A1F1FF
:102C1000DF91CF911F910F91FF90EF90089585372D
:102C200009F44CC008F43DC09CE7980F903780F73A
:102C30008F770E94FA0F49C00E5F1F4FFE018491EB
:102C400090E2980F983060F48770FE2D01C0FF0F5E
:102C50008A95EAF78F2F0E9493180E94BC1802C031
:102C60000E94630F8F2D815030F2EFE9FFE0319722
:102C7000F1F700C00000F7CF0E5F1F4FFE018491F7
:102C800090E2980F983050F48770FE2D01C0FF0F2E
:102C90008A95EAF78F2F0E949918DFCF0E94FA0FCA
:102CA000E1CF0E5F1F4FFE01C491C150D8F28FE9F2
:102CB0009FE00197F1F700C00000F7CF0E5F1F4FB4
:102CC000FE01F490CFCF0E94630F8E01CBCF089509
:102CD0000C9467160E94681660933B0270933C0246
:102CE00080933D0290933E020C94C91208950C9477
:102CF0006A160F931F9300913B0210913C022091A2
:102D00003D0230913E02602B712B822B932B1F9141
:102D10000F910C946A160F931F9300913B02109130
:102D20003C0220913D0230913E02602371238223B8
:102D300093231F910F910C946A160F931F93009188
:102D40003B0210913C0220913D0230913E026027EF
:102D50007127822793271F910F910C946A160C9468
:102D600028070E94AF166093370270933802809351
:102D7000390290933A020C94C91260E070E0CB01E2
:102D80000C94B116611571058105910529F481E056
:102D9000442361F080E00895DC01CB0104C0B695C6
:102DA000A795979587954A95D2F7817008950F93C7
:102DB0001F9341E050E060E070E08A019B0104C095
:102DC000000F111F221F331F8A95D2F7C901B801C6
:102DD0001F910F910C94B1160F931F9341E050E097
:102DE00060E070E004C0440F551F661F771F8A958E
:102DF000D2F78091370290913802A0913902B091B8
:102E00003A028A019B01082B192B2A2B3B2BC90163
:102E1000B8011F910F910C94B1160F931F9341E0CD
:102E200050E060E070E004C0440F551F661F771F3C
:102E30008A95D2F7CB01BA016095709580959095EF
:102E400000913702109138022091390230913A02F4
:102E500060237123822393231F910F910C94B11649
:102E60000F931F9341E050E060E070E004C0440F16
:102E7000551F661F771F8A95D2F780913702909170
:102E80003802A0913902B0913A028A019B010827C9
:102E900019272A273B27C901B8011F910F910C94CC
:102EA000B1160F931F9300913702109138022091B1
:102EB000390230913A02602B712B822B932B1F9198
:102EC0000F910C94B1160F931F930091370210913C
:102ED00038022091390230913A0260237123822313
:102EE00093231F910F910C94B1160F931F93009190
:102EF0003702109138022091390230913A0260274E
:102F00007127822793271F910F910C94B116089572
:102F10009295907F890F982F977041E001C0440FE0
:102F20009A95EAF786958695869595E0899FF001B2
:102F30001124E550FE4F30E020E070E05191DF01B8
:102F40001197CB01022E02C0969587950A94E2F75D
:102F5000817081958527842385278C932F5F3F4F30
:102F60002530310559F708959295907F890F982F54
:102F7000977086958695869525E0829FF0011124AD
:102F8000E550FE4F50E040E080E0219130E0092E16
:102F900002C0369527950A94E2F721703327042E54
:102FA00001C0220F0A94EAF7822B4F5F5F4F453032
:102FB000510559F70895BF92CF92DF92EF92FF9299
:102FC0000F931F93CF93DF938C01C0903702D09063
:102FD0003802E0903902F0903A0280913B029091E1
:102FE0003C02A0913D02B0913E02C82AD92AEA2AA9
:102FF000FB2ACFE1D0E0BC2ED701C6010C2E04C0C5
:10300000B695A795979587950A94D2F780FD0EC03F
:10301000219788F7B12C8B2DDF91CF911F910F91C4
:10302000FF90EF90DF90CF90BF900895B8018C2F64
:103030000E943908019761F3EECFCF93DF93EC0143
:103040000E94DB17BE01DF91CF910C9439081F93CA
:10305000CF93DF93EB019091C201992331F0CB0123
:10306000DF91CF911F910C941D18882379F0CB012B
:103070000E94DB17182F682FCE010E948817BE010F
:10308000812FDF91CF911F910C943908CB010E94C1
:10309000B417182FF4CF682F80910001909101018F
:1030A0000C943C1A682F80910001909101010C94BE
:1030B0003E1A80910001909101010C94401A809178
:1030C0003F02859585958595089580913F0287708B
:1030D000089590913F02977081E009F480E008958F
:1030E00080914B02089590914B02892B80934B0263
:1030F0000895809590914B02982390934B020895E8
:1031000010924B02089590914A02892B80934A02B3
:103110000895809590914A02982390934A020895C9
:1031200010924A02089590914902892B8093490296
:1031300008958095909149029823909349020895AB
:1031400010924902089580914002089508950C94C8
:10315000A61890914002981721F0809340020C9499
:10316000A718089580914002882329F01092400208
:1031700080E00C94A7180895E0910001F0910101FE
:1031800080914B028083E0910001F09101018081E8
:1031900090914A02892B8083E0910001F091010116
:1031A000808190914902892B8083909140029923DC
:1031B00081F0E0910001F09101018081892B8083F1
:1031C00080910001909101010E94F41981110E94E7
:1031D000B21880910001909101010C94B30D0895F3
:1031E0000C94EF1898E0899F90011124622B609352
:1031F0003F020E94EC1680913F028595859585954A
:103200000C94F01810923F0280E00C94F01890910A
:103210003F028095892380933F02282F277071F405
:10322000282F082E000C330B9217130639F08595C2
:10323000859585950E940D170C9402190895909319
:10324000A7018093A6010895829590E09C01220F2A
:10325000331F220F331F2C7C959587959595879565
:103260008373282B30E0C901880F991F8A7A35951E
:1032700027952575822B0895CF93DF93D92F0E9430
:103280002419C82F8D2F0E9424199C2FDF91CF91D4
:10329000089590E080E00E94462B21E08C3E9E4FF6
:1032A00009F020E0822F089582E090E00C943E2BFC
:1032B00083E090E00C943E2BCF9384E090E00E945A
:1032C0003E2BC82F81E290E00E943E2B982F8C2F3E
:1032D000CF910895CF93C92F682F84E090E00E948A
:1032E0004C2B6C2F81E290E0CF910C944C2BAB01D6
:1032F000BC018FE090E00C945E2BAB01BC0183E13C
:1033000090E00C945E2B60E070E0CB010C947D1992
:1033100060E070E0CB010E9477190C9483196CEE89
:103320007EEF90E080E00E946A2B60E082E090E017
:103330000E944C2B60E083E090E00E944C2B1092A6
:103340003B0210923C0210923D0210923E0260E05D
:1033500084E090E00E944C2B60E081E290E00E94CB
:103360004C2B60E085E090E00E944C2B60E086E012
:1033700090E00E944C2B6FEF87E090E00E944C2B76
:1033800040E050E0BA0188E090E00E945E2B60E0EF
:103390008DE090E00E944C2B40E050E0BA0188E1C3
:1033A00090E00E945E2B60E087E190E00E944C2B51
:1033B00040E050E0BA018CE190E00E945E2B60E0BA
:1033C00080E290E00E944C2B40E050E0BA0188E19E
:1033D00090E00E945E2B0C9488190C948F19682F32
:1033E0008EE090E00C944C2B9C012E5F3F4FAC0183
:1033F000485F5F4F80E02417350709F40895F9010D
:1034000091919F019923B9F38F5FF5CF662349F01E
:10341000FC01329608962191261729F0E817F90742
:10342000D1F780E0089581E008959C01FC01329677
:103430009FEF80E04191461751F09F3F19F44111F1
:1034400001C0982F8F5F8630A9F79F3F09F4089538
:10345000290F311D97FD3A95F90162830895FC010A
:10346000329608962191261303C0DF0111971C9212
:10347000E817F907B9F708950C94151A0C942F1A48
:10348000029626E0FC0111922A95E9F70895089525
:1034900008950C94481A0E94491A80918C02843035
:1034A00049F110924D0288E190E020E40FB6F894C3
:1034B000A895809360000FBE2093600080E00E947A
:1034C00010080E94491A83B7817F846083BF83B745
:1034D000816083BF7894889583B78E7F83BF0FB652
:1034E000F894A895809160008861809360001092A4
:1034F00060000FBE08950895CF930E94471A0E945E
:10350000C70A0E947B1AC0E08C2F0E942C0A892BCC
:1035100031F4CF5FC630C1F780E0CF91089581E0EC
:10352000FCCF08950C94911A0E94DF120E94A70DFF
:103530000E9410080C94921A1F921FB61F92112419
:103540008F939F93AF93BF9380914D02811113C0CE
:103550008091820290918302A0918402B0918502B1
:103560004196A11DB11D8093820290938302A09386
:103570008402B0938502BF91AF919F918F911F906C
:103580001FBE1F90189582E084BD93E095BD9AEF11
:1035900097BD80936E0008952FB7F89480918202B2
:1035A00090918302A0918402B09185022FBF08956B
:1035B0002FB7F89460918202709183028091840207
:1035C000909185022FBF08959C014FB7F894809188
:1035D000820290918302A0918402B09185024FBF34
:1035E000821B930B089578941F921FB61F9211248B
:1035F0008F939F93AF93BF938091820290918302A8
:10360000A0918402B09185020196A11DB11D809305
:10361000820290938302A0938402B0938502BF91AB
:10362000AF919F918F911F901FBE1F901895F89496
:1036300081E08093E00080E28093D800E9ECF0E044
:1036400010828FE19EE40197F1F700C000001DBADF
:10365000109268001CBC10BE1FBA10927A00109223
:103660006E0010926F001092710010927200108222
:10367000ECEBF0E0108214B817B81AB81DB810BA05
:10368000108215B818B81BB81EB811BA0C94003FB8
:1036900008950E944919811102C00E94ED190E94EB
:1036A000541980934C020E945C1990938702809376
:1036B00086020E945819682F70E090E080E00E9416
:1036C000771660913702709138028091390290919B
:1036D0003A020C94AF168091540280FF12C06091A0
:1036E000070185E0689FB001112475956795759570
:1036F000679560387105A8F561157105A1F1862FF0
:10370000089581FF09C06091070185E0689FB001BD
:10371000112475956795EDCF6091070182FD0AC070
:10372000809153028823D1F09091060160910701A6
:10373000891728F085E0689FB0011124DACF869FB1
:10374000B001112485E0869F9001879F300D1124E0
:10375000692F70E0C9010E94102BCBCF65E070E0AB
:10376000CECF8FE7089581E008958091540280FFC5
:103770000CC06091030170E075956795759567952C
:103780006115710549F1862F089581FF06C060918A
:10379000030170E075956795F3CF6091030182FD99
:1037A0000BC0909152029923A1F060910201809187
:1037B0000301961738F0682F70E06038710500F348
:1037C0008FE70895899FC001112470E00E94102B9B
:1037D000F4CF61E070E0D7CF81E00895803F31F40D
:1037E0000E946B1B8195809358020895813F19F4C4
:1037F0000E946B1BF8CF823F31F40E946B1B8195B6
:10380000809357020895833F19F40E946B1BF8CFF1
:10381000893F29F40E94B51B8093590208958A3F7D
:1038200021F40E94B51B8195F7CF8B3F31F40E94A4
:10383000B51B819580935A0208958C3F19F40E941C
:10384000B51BF8CF843F31F480915602816080939C
:1038500056020895853F21F4809156028260F7CF89
:10386000863F21F4809156028460F1CF873F21F496
:10387000809156028860EBCF883F21F480915602F8
:103880008061E5CF8D3F31F4809154028160809357
:10389000540208958E3F21F4809154028260F7CF44
:1038A0008F3FB9F7809154028460F1CF9091570215
:1038B000803F59F48091580287FF0DC01092580242
:1038C00091110BC01092530208C0813F81F4809186
:1038D000580218169CF3992381F080915902909117
:1038E0005A02892B09F064C0109252020895823F57
:1038F00049F497FFF0CF109257028091580281113E
:10390000ECCFE0CF833F19F41916ACF3E4CF20914C
:103910005902893F29F41216F4F610925902DBCFAE
:103920008A3F19F427FFD7CFF8CF20915A028B3F57
:1039300029F427FFD0CF10925A02CDCF8C3F19F433
:103940001216CCF3C8CF843F31F4809156028E7F9B
:1039500080935602C0CF853F21F4809156028D7F1F
:10396000F7CF863F21F4809156028B7FF1CF873FBE
:1039700021F480915602877FEBCF883F21F480911C
:1039800056028F7EE5CF8D3F31F4809154028E7FB9
:1039900080935402A0CF8E3F21F4809154028D7FFA
:1039A000F7CF8F3F09F097CF809154028B7FF0CFF4
:1039B000089580914C0283FF7EC081ED92E00E94C9
:1039C0008306809156021F928F938CEC92E09F9316
:1039D0008F930E941C078AEC92E00E9483068091DC
:1039E0005702282F082E000C330B3F938F9387EC40
:1039F00092E09F938F930E941C0785EC92E00E94B7
:103A0000830680915802282F082E000C330B3F9319
:103A10008F9382EC92E09F938F930E941C0780EC1F
:103A200092E00E94830680915902282F082E000CF4
:103A3000330B3F938F938DEB92E09F938F930E9474
:103A40001C078BEB92E00E94830680915A02282F7C
:103A5000082E000C330B3F938F9388EB92E09F93DB
:103A60008F930E941C0785EB92E00E948306809151
:103A700053021F928F9382EB92E09F938F930E9449
:103A80001C0780EB92E00E948306809154021F92F3
:103A90008F938DEA92E09F938F930E941C078AEA8E
:103AA00092E00E9483068DB79EB74C960FB6F894AD
:103AB0009EBF0FBE8DBF0E94CC1A9C0190915702F1
:103AC00080915802982B21F030935102209350029C
:103AD0009091590280915A02982B21F030934F0215
:103AE00020934E0285E592E00C94FF0DEF92FF9239
:103AF0000F931F93CF93DF9300D000D000D0CDB7AA
:103B0000DEB786E0E5E5F2E0DE01119601900D9268
:103B10008A95E1F7E0905702F0905802009159021F
:103B200010915A02109257021092580210925902A4
:103B300010925A028E2D8F2991F08091500290910F
:103B400051020E94E41AAC0190915302992309F4A6
:103B50003FC0809108018417150608F447C0802FE4
:103B6000812B91F080914E0290914F020E94E41AB5
:103B7000AC0190915202992309F477C0809104011D
:103B80008417150608F47FC080915702909158025F
:103B9000892B90915902892B90915A02892B11F00F
:103BA0000E94D91C86E0FE013196A5E5B2E00190A5
:103BB0000D928A95E1F726960FB6F894DEBF0FBEF8
:103BC000CDBFDF91CF911F910F91FF90EF9008959E
:103BD000209109018AE0289F9001112424173507BC
:103BE00008F0BDCF9F5F9093530202C09F3FD1F773
:103BF000EE2059F00E946B1B9FEF1E140CF491E015
:103C0000899F802D112480935702FF2059F00E9434
:103C10006B1B9FEF1F140CF491E0899F802D1124E2
:103C20008093580230915702332309F498CF2091A2
:103C30005802222309F493CF45EB3403C001112429
:103C4000992359F09093570245EB240390011124D6
:103C5000332339F03093580282CF81E080935702AA
:103C6000F3CF81E0809358027ACF209105018AE05A
:103C7000289F900111242417350708F085CF9F5FF6
:103C80009093520202C09F3FD1F7002359F00E9447
:103C9000B51B9FEF10160CF491E0899F802D112425
:103CA00080935902112359F00E94B51B9FEF111602
:103CB0000CF491E0899F802D112480935A02309159
:103CC0005902332309F460CF20915A02222309F4C8
:103CD0005BCF45EB3403C0011124992359F0909335
:103CE000590245EB240390011124332339F030931A
:103CF0005A024ACF81E080935902F3CF81E080934A
:103D00005A0242CF86E0E5E5F2E0DF011D928A9596
:103D1000E9F7109253021092520210925402089541
:103D200084EF94E00E9483061F9281E08F931F929C
:103D300085E08F9386EA94E09F938F930E941C07FF
:103D40000F900F900F900F900F900F900895833069
:103D500009F445C028F4813061F0823049F10895BA
:103D6000853009F46AC008F451C0863009F47CC07B
:103D7000089580910901482F460F5527551F4F3F41
:103D8000510594F4680F60930901809109011F9215
:103D90008F938FED93E09F938F930E941C070F905A
:103DA0000F900F900F9008958FEF80930901EDCF42
:103DB00080910801482F460F5527551F4F3F510549
:103DC00054F4680F60930801809108011F928F934B
:103DD0008DEC93E0E0CF8FEF80930801F5CF8091D9
:103DE0000701482F460F5527551F4F3F510554F4E3
:103DF000680F60930701809107011F928F938AEBF0
:103E000093E0C9CF8FEF80930701F5CF8091060132
:103E1000482F460F5527551F4F3F510554F4680F43
:103E200060930601809106011F928F9385EA93E0CB
:103E3000B2CF8FEF80930601F5CF80910301482F19
:103E4000460F5527551F4F3F510554F4680F609397
:103E50000301809103011F928F938CE893E09BCF25
:103E60008FEF80930301F5CF80910201482F460F19
:103E70005527551F4F3F510554F4680F60930201B9
:103E8000809102011F928F9381E793E084CF8FEF9F
:103E900080930201F5CF8330C9F128F4813061F0BD
:103EA000823019F10895853009F452C008F43FC0FA
:103EB000863009F45EC0089580910901681790F476
:103EC000861B80930901809109011F928F9382E6DE
:103ED00093E09F938F930E941C070F900F900F9079
:103EE0000F90089510920901EECF80910801681794
:103EF00050F4861B80930801809108011F928F93D4
:103F000080E593E0E6CF10920801F6CF809107019B
:103F1000681750F4861B80930701809107011F9258
:103F20008F938DE393E0D5CF10920701F6CF809168
:103F30000601681750F4861B8093060180910601E4
:103F40001F928F9388E293E0C4CF10920601F6CFC0
:103F500080910301681750F4861B809303018091C0
:103F600003011F928F938FE093E0B3CF1092030170
:103F7000F6CF80910201681750F4861B80930201EE
:103F8000809102011F928F9384EF92E0A2CF109252
:103F90000201F6CFCF93C82F1F928F9389EF95E040
:103FA0009F938F930E941C0761E070E080E090E097
:103FB00004C0660F771F881F991FCA95D2F70E9409
:103FC00077160F900F900F900F90CF910C94DF12F7
:103FD000CF93DF938B3109F4FAC108F09CC18B3089
:103FE00009F4B8C108F06AC1863009F4C6C148F4C2
:103FF000853009F49EC181E69AE00E94830680E044
:10400000CCC1873009F4CCC18830A9F780E09BE0AF
:104010000E94830681E59AE00E9483060E94581957
:104020001F928F938EE49AE09F938F930E941C07B8
:104030008CE49AE00E9483060E945419C82F89E3F9
:104040009AE00E9483061F92CF9384E39AE09F93A5
:104050008F930E941C0782E39AE00E94830688E205
:104060009AE00E9483068C2F81701F928F9385E2C5
:104070009AE09F938F930E941C0783E29AE00E942C
:10408000830689E19AE00E948306C1FB882780F9B4
:104090001F928F9386E19AE09F938F930E941C0753
:1040A00084E19AE00E94830688E09AE00E948306F9
:1040B000C2FB882780F91F928F9385E09AE09F9337
:1040C0008F930E941C0783E09AE00E9483068AEF88
:1040D00099E00E948306C3FBCC27C0F91F92CF93BF
:1040E00087EF99E09F938F930E941C0785EF99E0DB
:1040F0000E9483060E945C19EC0181EE99E00E9407
:104100008306DF93CF938CED99E09F938F930E946A
:104110001C078AED99E00E94830681EC99E00E94D9
:1041200083068C2F81701F928F938EEB99E09F9363
:104130008F930E941C078DB79EB780960FB6F89498
:104140009EBF0FBE8DBF8CEB99E00E94830685EA6F
:1041500099E00E948306C1FB882780F91F928F9304
:1041600082EA99E09F938F930E941C0780EA99E06E
:104170000E9483068EE899E00E9483068D2F81704D
:104180001F928F938BE899E09F938F930E941C0757
:1041900089E899E00E94830687E799E00E948306F8
:1041A000D695D1701F92DF9384E799E09F938F9308
:1041B0000E941C0782E799E00E94830680E699E04E
:1041C0000E948306C2FB882780F91F928F938DE59A
:1041D00099E09F938F930E941C078BE599E00E94C2
:1041E000830689E499E00E948306C3FB882780F94F
:1041F0001F928F9386E499E09F938F930E941C07F0
:1042000084E499E00E9483068AE399E00E94830691
:10421000C4FB882780F91F928F9387E399E09F93CF
:104220008F930E941C0785E399E00E94830683E236
:1042300099E00E948306C5FB882780F91F928F931F
:1042400080E299E09F938F930E941C078EE199E092
:104250000E94830682E099E00E948306C6FB8827BD
:1042600080F91F928F938FEF98E09F938F930E9416
:104270001C078DB79EB780960FB6F8949EBF0FBEF1
:104280008DBF8DEF98E00E94830685EF98E00E9435
:104290008306C7FBCC27C0F91F92CF9382EF98E02B
:1042A0009F938F930E941C0780EF98E00E948306E3
:1042B0000F900F900F900F9081E06FC0803109F444
:1042C0009EC080F48E3009F096CE90914C02892FDA
:1042D0008B7F92FF846080934C0282FF8DC08CE8BC
:1042E0009AE081C0863109F49AC0893109F083CE01
:1042F00087E197E00E9483068EED96E00E94830698
:1043000087EC96E00E94830682E996E00E9483068D
:1043100087E696E021C08A3249F190F4873211F1A4
:1043200028F48E3108F467CE8D511DC0893209F012
:1043300062CE8FEC9AE00E9483060E94A707BCCF52
:10434000833468F48A3308F0A1C0853359F0883388
:1043500009F051CE8DE497E00E948306ADCF8334FF
:1043600009F049CE80E00E94CA1FA6CF8FEE9AE0E6
:104370000E9483060E94ED199FCF80914C02807F9E
:1043800080934C0286E297E00E9483068BEE9AE0CF
:104390000E94830681E080935C02DF91CF910895B3
:1043A00090914C02892F8E7F90FF816080934C0208
:1043B00080FF03C083EC9AE0CFCF86EB9AE00E94A7
:1043C000830680914C02817F80934C0275CF90913F
:1043D0004C02892F8D7F91FF826080934C0281FF78
:1043E00008C089EA9AE00E94830680914C028160AD
:1043F000EBCF8BE99AE0B0CF8CE79AE0ADCF90910C
:104400004C02892F877F93FF886080934C0283FF43
:1044100003C080E79AE0E7CF83E69AE09DCF89E585
:1044200096E00E9483060E94A70D1F928F938FE350
:1044300096E09F938F930E941C07809114011F9216
:104440008F9388E296E09F938F930E941C07809140
:1044500069021F928F9385E196E09F938F930E944C
:104460001C070E94D81A9F938F937F936F938EEFB0
:1044700095E09F938F930E941C078DB79EB742963D
:104480000FB6F8949EBF0FBE8DBF16CF89536BCF6A
:1044900080E008950C9448228E518A3030F4E82F41
:1044A000F0E0E357FE4F8081089580E00895CF93B8
:1044B000C82F80915C028130C1F0882339F08230AE
:1044C00009F447C010925C0280E00DC00E94701891
:1044D0008232D1F78C2F0E94482281111BC08C2F71
:1044E0000E94E81F8170CF9108950E947018823257
:1044F00089F38C2F0E944A2281111BC0C431D9F04C
:1045000060F4CB3071F0C031D1F08FEE95E00E94B5
:10451000830613C081E090E0E5CFC93261F0C83373
:10452000A1F786E297E00E94830685EF95E00E945E
:10453000830681E0D7CF10925C0280E0D3CF0E9447
:10454000901E81EF95E00E94830682E080935C02DA
:10455000F0CFC432C8F4CE3108F0BEC0CB30E1F0A9
:1045600040F4C73009F4CCC083E994E00E9483068C
:1045700026C0C331C1F1C431B9F780915B028823F1
:1045800051F110925B020AC0CB3409F4B7C0C8F4F1
:10459000C93299F3C83341F70E94901E80915B02A3
:1045A000882309F4C4C01F928F938DE894E09F93F1
:1045B0008F930E941C070F900F900F900F9081E037
:1045C00092CFC13509F494C0C23509F48BC0CE3402
:1045D00059F66AE08EC082EA94E00E94830681E088
:1045E00080935C0280CF8CE794E00E9483068AE689
:1045F00094E00E948306809109011F928F9387E6C1
:1046000094E09F938F930E941C0785E694E00E949C
:10461000830683E594E00E948306809108011F923F
:104620008F9380E594E09F938F930E941C078EE404
:1046300094E00E9483068FE394E00E9483068091B9
:1046400007011F928F938CE394E09F938F930E94B6
:104650001C078AE394E00E94830689E294E00E94AA
:104660008306809106011F928F9386E294E09F93C8
:104670008F930E941C0784E294E00E9483068FE0DF
:1046800094E00E948306809103011F928F938CE037
:1046900094E09F938F930E941C078AE094E00E940D
:1046A000830683EF93E00E948306809102011F92AC
:1046B0008F9380EF93E09F938F930E941C078EEE61
:1046C00093E00E9483068DB79EB748960FB6F89484
:1046D0009EBF0FBE8DBF62CF8C2F0E944C22809355
:1046E0005B025CCF61E080915B020E94A71E56CF07
:1046F00061E080915B020E944B1F50CF6AE0F3CFD4
:104700008EE18093090182E3809308018AE080931F
:10471000070184E18093060188E08093030188E229
:104720008093020185E994E00E94830637CF8AE8EE
:1047300094E01CCF8091680208959FB7F89410927E
:104740005F029FBF90918C02943009F048C0209185
:10475000E9002F703091EC00932F917030FD90E8BC
:10476000922B23E02093E9002091EB0020FF34C03E
:104770002091EE0027FF30C020915D02222321F01E
:104780002091E80025FF28C010925D0226E03091BC
:10479000E80035FF14C08093F1008091E80085FDAA
:1047A00027C08091E80080FFFCCF8091E8008E77E1
:1047B0008093E8009F709093E90080E00895309125
:1047C0008C02343049F43091EB0035FD05C02150A6
:1047D00041F481E080935D029F709093E9008FEF38
:1047E0000895EFE9FFE03197F1F700C00000CFCF67
:1047F0008FB7F89421E020935F028FBFDBCFCF9378
:10480000DF9300D00F92CDB7DEB790918C02943039
:1048100019F589837B836A8382E08093E9008FEFB7
:104820009091E800815095FD06C095ED9A95F1F7BD
:1048300000008111F5CF8091E80085FF0DC050E0A8
:1048400040E063E070E0CE0101960E947426809102
:10485000E8008E778093E8000F900F900F90DF9123
:10486000CF910895BC0184E00C94FF23BC0183E048
:104870000C94FF239C0182E08093E9009FEF8091DC
:10488000E800915085FD06C085ED8A95F1F700009E
:104890009111F5CF8091E80085FF0CC050E040E019
:1048A00066E070E0C9010E9474268091E8008E776E
:1048B0008093E8000895CF93DF93EC0181E080932B
:1048C000E9008FEF9091E800815095FD06C095EDCD
:1048D0009A95F1F700008111F5CF8091E80085FFEE
:1048E00014C050E040E068E070E0CE010E94742601
:1048F0008091E8008E778093E80088E0FE01A0E6D2
:10490000B2E001900D928A95E1F7DF91CF91089581
:1049100080E39BE00E94830680918B02811109C095
:104920000E9404280E9461288091E20084608093A4
:10493000E20008958CE29BE00E94830610928B02B5
:10494000089588E29BE00C94830684E29BE00C943B
:10495000830680E29BE00E9483060C94941A2091C7
:104960005E022F5F822F62E30E94042B992319F0CD
:1049700020935E02089510925E0280915F02882368
:10498000F1F080918C028430C1F49091E9009F7025
:104990002091EC00822F817020FD80E8892B93E02C
:1049A0009093E9009091EB0090FF04C09091EE008D
:1049B00097FD08C08F708093E90010925F02089500
:1049C0001092F1009091E80095FDFACF9091E800E7
:1049D00090FFF0CF9091E8009E779093E800EACFA7
:1049E00042E061EC81E00E94802742E261EC82E0DB
:1049F0000E94802742E261EC83E00C948027809142
:104A00008E02833009F45FC030F48130C1F182300E
:104A100009F49BC008958A3009F487C08B3009F4EB
:104A20006DC0893009F04EC080918D02813209F04D
:104A300049C08091910290919202029708F042C081
:104A40008091E800877F8093E8008091E80082FFF2
:104A500035C09091F3008091F200029729F4809183
:104A6000F1008B7F813021F48091F1008093680206
:104A70008091E8008B778093E8000C94B4278091B4
:104A80008D02813AF9F48091E800877F8093E800F5
:104A90008091910290919202892B61F468E080E606
:104AA00092E070E00E94C3268091E8008B778093AB
:104AB000E800089560E090E080E0F3CF80918C0200
:104AC0008111C3CF089580918D02813AD9F78091E9
:104AD000910290919202892BA9F78091E800877F3B
:104AE0008093E8008091E80080FFFCCF8091140162
:104AF0008093F1008091E8008E77BDCF80918D0288
:104B0000813201F78091910290919202892BD1F626
:104B10008091E800877F8093E8000E94B42780910D
:104B20008F02809314010C94DF1280918D028132E8
:104B300049F68091E800877F8093E8000E94B427BF
:104B40008091900280936902089580918D02813A4C
:104B500009F0B8CF8091E800877F8093E8008091CA
:104B6000E80080FFFCCF80916902C2CF84B7877FC5
:104B700084BF0FB6F894A8958091600088618093F7
:104B80006000109260000FBE80E890E00FB6F894CD
:104B900080936100909361000FBE0E94470E0E94B7
:104BA00004280E9461288091E20084608093E200E2
:104BB0008DE993E20E941F1978940E94E92A0E94CD
:104BC000530E8AE091E00E94A20D8FE09BE00E94CC
:104BD000830680918C02853039F00E94830E0E94FA
:104BE000510E0E94520EF5CF8BE09BE00E9483068F
:104BF0000E944B1A80918A02882359F30E947C1AE2
:104C0000882339F30E945E26E4CF0C940726292FCF
:104C100033272330310521F168F42130310509F4BF
:104C200043C02230310509F444C090E080E030E018
:104C300020E026C02132310551F122323105A9F799
:104C40006330710590F7FB01EE0FFF1FE656FE4F34
:104C50002081318169567E4FFB01808190E010C038
:104C600099278130910581F0009729F00297E9F6A4
:104C7000E4E3FBE002C0ECE5FBE0849190E09F01FF
:104C8000FA01318320830895E8E4FBE0F6CF633036
:104C9000710558F6660F771FFB01E056FE4F208125
:104CA000318189E090E0ECCF82E190E02BEB3BE0BA
:104CB000E7CF8BE590E020E63BE0E2CF80E189BDE5
:104CC00082E189BD09B400FEFDCF8091D8008F7DBF
:104CD0008093D8008091E00082608093E000809112
:104CE000E00081FDFCCF0895AF92BF92CF92DF929A
:104CF000FF920F931F93CF93DF936C01EB018A0117
:104D00000E94D327F82E811123C00115110539F017
:104D1000F80180819181C81BD90BC80ED91EB12C16
:104D2000A12C2097A9F08091E80085FD22C08091F8
:104D3000E8008E778093E80001151105A1F0F801D5
:104D400080819181A80EB91EB182A08285E0F82EE3
:104D50008F2DDF91CF911F910F91FF90DF90CF901A
:104D6000BF90AF9008950E94D3278823D1F2F82EE8
:104D7000EFCFF60181916F018093F1002197FFEF52
:104D8000AF1ABF0ACECFFC0180919302909194029A
:104D900086179707A0F06115710529F49091E80036
:104DA0009E779093E80090E06115710551F49111A0
:104DB00008C08091E80082FF34C080E00895BC0103
:104DC000F2CF80918C028823C1F18530C1F18091AE
:104DD000E80083FD30C08091E80082FDEACF809139
:104DE000E80080FFE1CF8091F3002091F200382F9E
:104DF0006115710519F02830310558F091E028301F
:104E0000310509F090E02091E8002E772093E8002A
:104E1000CBCF81918093F100615071092F5F3F4F9B
:104E2000E7CF80918C02882341F0853041F080915A
:104E3000E80083FFBECF81E0089582E0089583E01B
:104E40000895FC0180919302909194028617970730
:104E5000A0F06115710529F48091E8008E778093A8
:104E6000E80090E06115710551F4911108C080913E
:104E7000E80082FF35C080E00895BC01F2CF809148
:104E80008C028823C9F18530C9F18091E80083FD47
:104E900031C08091E80082FDEACF8091E80080FF78
:104EA000E1CF8091F3002091F200382F6115710558
:104EB00019F02830310558F091E02830310509F01B
:104EC00090E08091E8008E778093E800CBCF8491CA
:104ED0008093F1003196615071092F5F3F4FE6CF0B
:104EE00080918C02882341F0853041F08091E80068
:104EF00083FFBDCF81E0089582E0089583E00895A7
:104F0000982F973028F08F708093E90081E0089502
:104F10009093E900242F762F50E0981731F070918C
:104F2000EC002091ED005091F00021FD02C09F5F48
:104F3000E8CF3091EB003E7F3093EB003091ED00F5
:104F40003D7F3093ED003091EB0031603093EB000A
:104F50007093EC002093ED005093F0002091EE0050
:104F600027FDE5CF80E0089580918D0287FF13C073
:104F70008091E80082FF06C08091E8008B778093E3
:104F8000E80004C080918C028111F2CF08958091D5
:104F90008C028823D9F38091E80080FFF8CF8091BC
:104FA000E8008E77ECCF2091E4003091E50095E6A3
:104FB000A9012091EC00822F817020FF06C0809112
:104FC000E80080FF06C080E008952091E80022FDFF
:104FD0001AC080918C02882389F0853089F08091F5
:104FE000EB0085FD0FC02091E4003091E5004217F1
:104FF0005307F9F29150E1F684E0089582E00895B4
:1050000083E0089581E008950E9472280E947A2822
:10501000E0EEF0E0808181608083E8EDF0E0808167
:105020008F77808319BCA7EDB0E08C918E7F8C9335
:1050300080818F7E808310928B0208950F931F933F
:10504000CF93DF930E9472280E947A28C8EDD0E0A7
:1050500088818F77888388818068888388818F7D25
:10506000888319BC10928C021092880210928A02D6
:105070001092890200EE10E0F80180818B7F80831E
:1050800088818160888342E060E080E00E94802720
:10509000E1EEF0E080818E7F8083E2EEF0E08081BF
:1050A00081608083808188608083F80180818E7F29
:1050B0008083888180618883DF91CF911F910F91D8
:1050C0000895E8EDF0E080818F7E8083E7EDF0E0E9
:1050D00080818160808384E082BF81E080938B0245
:1050E0000C941E28E8EDF0E080818E7F8083109282
:1050F000E20008951092DA001092E10008951F92E4
:105100000F920FB60F9211242F933F934F935F93FB
:105110006F937F938F939F93AF93BF93EF93FF937F
:105120008091E10082FF0BC08091E20082FF07C006
:105130008091E1008B7F8093E1000E94AF248091F9
:10514000DA0080FF19C08091D80080FF15C08091DF
:10515000DA008E7F8093DA008091D90080FF96C0BC
:1051600080E189BD82E189BD09B400FEFDCF81E007
:1051700080938C020E9488248091E10080FF19C0F6
:105180008091E20080FF15C08091E2008E7F8093C5
:10519000E2008091E20080618093E2008091D8007B
:1051A00080628093D80019BC85E080938C020E94B5
:1051B000A5248091E10084FF2BC08091E20084FF50
:1051C00027C080E189BD82E189BD89B5982F9170A2
:1051D00080FFFBCF8091D8008F7D8093D800809195
:1051E000E1008F7E8093E1008091E2008F7E8093CA
:1051F000E2008091E20081608093E2008091880269
:10520000882309F449C084E080938C020E94A92479
:105210008091E10083FF29C08091E20083FF25C0D7
:105220008091E100877F8093E10082E080938C028F
:10523000109288028091E1008E7F8093E10080913E
:10524000E2008E7F8093E2008091E2008061809393
:10525000E20042E060E080E00E9480278091F00060
:1052600088608093F0000E94A124FF91EF91BF918C
:10527000AF919F918F917F916F915F914F913F91EE
:105280002F910F900FBE0F901F90189519BC109280
:105290008C020E949A2470CF8091E30087FD93E0F6
:1052A00090938C02B3CF1F920F920FB60F921124DE
:1052B0002F933F934F935F936F937F938F939F931E
:1052C000AF93BF93CF93DF93EF93FF93D091E90018
:1052D000DF708091EC00C82FC17080FDC0E8109293
:1052E000E9008091F000877F8093F00078940E941D
:1052F00097291092E9008091F00088608093F00077
:10530000CD2BCF70C093E900FF91EF91DF91CF914A
:10531000BF91AF919F918F917F916F915F914F91CD
:105320003F912F910F900FBE0F901F9018951F93D4
:10533000CF93DF93CDB7DEB7AA970FB6F894DEBF51
:105340000FBECDBF8DE892E02091F100FC012193CA
:10535000CF01F2E085399F07B9F70E94FF248091C1
:10536000E80083FF1EC180918D0290918E029A30D9
:1053700008F017C1E92FF0E0E056F44D0C94242B0F
:10538000803899F0823809F00CC1809191028F70B9
:10539000873008F006C18093E9008091EB0085FB1F
:1053A000882780F91092E90006C0809189029091C7
:1053B0008A02911182609091E800977F9093E800B3
:1053C0008093F1001092F1008091E8008E77E5C0A3
:1053D000882309F4D3C0823009F0E3C080918F02A2
:1053E0008111D6C0809191028F702FEF280F263047
:1053F00008F0D7C08093E9002091EB0020FFC8C0DF
:10540000933031F48091EB0080628093EB00C0C058
:105410009091EB0090619093EB0021E030E001C0AF
:10542000220F8A95EAF72093EA001092EA00809111
:10543000EB008860EACF8111B4C010918F021F7712
:105440008091E3008078812B8093E3008091E800D5
:10545000877F8093E8000E94B4278091E80080FF56
:10546000FCCF8091E30080688093E30082E011111B
:1054700083E080938C0295C08058823008F091C000
:1054800080918F02909190028C3D23E09207A1F5CC
:1054900083E08A838AE289834FB7F894DE0113960A
:1054A00020E03EE051E2E32FF0E050935700E4911A
:1054B00020FF03C0E295EF703F5FEF708E2F90E00A
:1054C000EA30C0F0C7968D939D932F5F243159F732
:1054D0004FBF8091E800877F8093E8006AE270E028
:1054E000CE0101960E94C3268091E8008B778093BD
:1054F000E80057C0C096E7CF609191027091920288
:10550000AE014F5F5F4F0E940526BC01892B09F455
:1055100048C09091E800977F9093E80089819A8134
:105520000E942127E1CF8038E1F58091E800877F54
:105530008093E800809188028093F10045CF81112B
:1055400030C090918F02923060F58091E800877FA3
:105550008093E800909388020E94B427809188028B
:10556000882311F084E005C08091E30087FDFACF25
:1055700081E080938C020E94F02413C080918F02FE
:10558000813079F481E0933009F080E080938A02E1
:105590001092E9008091E800877F8093E8000E94E4
:1055A000B4278091E80083FF0AC08091E800877FDC
:1055B0008093E8008091EB0080628093EB00AA96D4
:1055C0000FB6F894DEBF0FBECDBFDF91CF911F9114
:1055D0000895CF9380918C028823A1F0C091E900B7
:1055E000CF709091EC00892F817090FD80E8C82BDE
:1055F0001092E9008091E80083FD0E949729CF7006
:10560000C093E900CF910895991B79E004C0991FD8
:10561000961708F0961B881F7A95C9F7809508950C
:1056200097FB072E16F4009407D077FD09D00E944F
:105630002A2B07FC05D03EF4909581959F4F089545
:10564000709561957F4F0895EE0FFF1F0590F491BF
:10565000E02D0994AA1BBB1B51E107C0AA1FBB1F69
:10566000A617B70710F0A61BB70B881F991F5A95EE
:10567000A9F780959095BC01CD010895F999FECFC9
:1056800092BD81BDF89A992780B50895A8E1B0E050
:1056900042E050E00C94722B262FF999FECF92BD78
:1056A00081BDF89A019700B4021639F01FBA20BDE7
:1056B0000FB6F894FA9AF99A0FBE08950396272F19
:1056C0000E944D2B0E944C2B252F0E944D2B242FE6
:1056D0000C944D2B0196272F0E944D2B0C944C2B94
:1056E000DC01CB01FC01F999FECF06C0F2BDE1BDA2
:1056F000F89A319600B40D9241505040B8F7089591
:10570000F894FFCFA810A8100011001152116E11CB
:10571000D510D51079110512141214127012D5106B
:10572000D5107912EE12EE12F712F712F912F712E3
:10573000F712F712EE12EE12FE12F712F712FE1225
:10574000C029E829D12AE829D12A1B2A3C2AD12AB2
:04575000932A9F2ACF
:1057540041022808641E140A321E9A235B243A2448
:105764003624322401E200E900EA00B500B600B7AD
:1057740000CD008301CC008A01920194012102230F
:105784000224022502260227022A02B300B4006F73
:105794000070008182839192936667F0F1F4F5F6CC
:1057A400F73635349796303132333790E200E900DA
:1057B400EA00B500B600B700CD008301CC008A0131
:1057C40092019401210223022402250226022702C7
:1057D4002A02B300B4006F007000818283010203C7
:1057E40004050607080900408122700CEF0BCD0B5D
:0657F400720B8B0BA40BED
:00000001FF
