:100000000C9460060C947D060C947D060C947D0681
:100010000C947D060C947D060C947D060C947D0654
:100020000C947D060C947D060C94F5280C94C9293B
:100030000C945E230C947D060C947D060C947D0636
:100040000C947D060C947D060C947D060C947D0624
:100050000C947D060C94B5230C947D060C947D06BF
:100060000C947D060C947D060C947D060C947D0604
:100070000C947D060C947D060C947D060C947D06F4
:100080000C947D060C947D060C947D060C947D06E4
:100090000C947D060C947D060C947D060C947D06D4
:1000A0000C947D060C947D060C947D061E001F00AA
:1000B00020002100220035002900460001533900AC
:1000C00031002300240025002600270014001A0018
:1000D0000800150017002F003A003B003C003D00CF
:1000E00030001C0018000C00120013000400160061
:1000F000070009000A0034003E003F0040004100B4
:100100002B000B000D000E000F0033001D001B0024
:1001100006001900050000004200430044004500AD
:10012000000011001000360037003800E200E10046
:100130004C002E00E300E0004A0052004D004B004E
:10014000E400E7002D002A00E500E6000000500072
:100150004F0000002C002800500051004F004E00BE
:1001600028002C0000005200510000001E001F005B
:1001700020002100220035002900460001533900EB
:1001800031002300240025002600270014000B0066
:10019000150009001B002F003A003B003C003D0009
:1001A000300033001C00180012000D000F00160074
:1001B00011001700070034003E003F0040004100DE
:1001C0002B0013000C00040008000E001D0010009E
:1001D00006001900050000004200430044004500ED
:1001E00000001A000A00360037003800E200E10083
:1001F0004C002E00E300E0004A0052004D004B008E
:10020000E400E7002D002A00E500E60000005000B1
:100210004F0000002C002800500051004F004E00FD
:1002200028002C00000052005100000044454255B7
:10023000473A2064697361626C65642E0A00444524
:100240004255473A20656E61626C65642E0A000A69
:10025000002530313662003A200025303258000A3D
:10026000722F6320303132333435363738394142DA
:10027000434445460A006D6B5F776865656C5F7443
:10028000696D655F746F5F6D6178203D2025640A3C
:10029000006D6B5F776865656C5F6D61785F73702B
:1002A000656564203D2025640A006D6B5F74696D8F
:1002B000655F746F5F6D6178203D2025640A006D75
:1002C0006B5F6D61785F7370656564203D202564A8
:1002D0000A006D6B5F696E74657276616C203D20FB
:1002E00025640A006D6B5F64656C6179203D202593
:1002F000640A006D6B5F776865656C5F74696D6536
:100300005F746F5F6D6178203D2025640A006D6B1E
:100310005F776865656C5F6D61785F737065656454
:10032000203D2025640A006D6B5F74696D655F7404
:100330006F5F6D6178203D2025640A006D6B5F6DF5
:1003400061785F7370656564203D2025640A006DE7
:100350006B5F696E74657276616C203D2025640A5E
:10036000006D6B5F64656C6179203D2025640A0037
:100370000A00257500363A20776865656C5F7469F8
:100380006D655F746F5F6D61783A20000A002575B6
:1003900000353A20776865656C5F6D61785F7370D2
:1003A0006565643A20000A00257500343A207469B6
:1003B0006D655F746F5F6D61783A20000A00257586
:1003C00000333A206D61785F73706565643A200090
:1003D0000A00257500323A20696E74657276616C88
:1003E000286D73293A20000A00257500313A2064EF
:1003F000656C6179282A31306D73293A20000A0929
:100400002D2056616C756573202D0A004D3E004D00
:1004100025643E20003F0073657420646566617545
:100420006C740A00433E200077686572652064653D
:100430006C74613A20637572736F723D25642C2071
:10044000776865656C3D25640A536565206874743A
:10045000703A2F2F656E2E77696B697065646961DC
:100460002E6F72672F77696B692F4D6F7573655F9C
:100470006B6579730A000A092D204D6F7573656BE2
:100480006579202D0A4553432F713A0971756974B6
:100490000A313A0964656C6179282A31306D732913
:1004A0000A323A09696E74657276616C286D732937
:1004B0000A333A096D61785F73706565640A343A8E
:1004C0000974696D655F746F5F6D61780A353A090B
:1004D000776865656C5F6D61785F73706565640AE8
:1004E000363A09776865656C5F74696D655F746F2E
:1004F0005F6D61780A0A703A097072696E742076CD
:10050000616C7565730A643A097365742064656685
:1005100061756C74730A75703A092B310A646F77D0
:100520006E3A092D310A706775703A092B31300A1D
:100530007067646F776E3A092D31300A0A737065FF
:100540006564203D2064656C7461202A206D6178AB
:100550005F7370656564202A202872657065617418
:10056000202F2074696D655F746F5F6D6178290A53
:10057000003F004D3E2000433E20004C25640A0011
:1005800074696D65725F72656164333228293A203F
:100590002530346C580A006B6579626F6172645F54
:1005A00069646C653A2025580A006B6579626F6151
:1005B00072645F70726F746F636F6C3A2025580AB3
:1005C00000686F73745F6B6579626F6172645F6CF2
:1005D00065647328293A2025580A000A092D2053FA
:1005E0007461747573202D0A004743433A20382EF6
:1005F000342E30204156522D4C4942433A20322E5F
:10060000302E30204156525F415243483A206176A5
:1006100072350A004F5054494F4E533A204C5546BC
:1006200041204D4F5553454B455920455854524153
:100630004B455920434F4E534F4C4520434F4D4D52
:10064000414E44203531320A004255494C443A204B
:1006500020284A756E2020332032303231290A009A
:100660005649443A203078464545442859616E67DA
:100670002043756929205049443A20307830303081
:10068000302865766B2076315F3329205645523A03
:10069000203078303030310A000A092D205665723A
:1006A00073696F6E202D0A000A092D20436F6E7347
:1006B0006F6C65202D0A4553432F713A0971756996
:1006C000740A6D3A096D6F7573656B65790A000A76
:1006D000092D204D61676963202D0A443A0944655C
:1006E000627567204D65737361676520546F676736
:1006F0006C650A583A094D617472697820446562E4
:100700007567204D6F646520546F67676C65202D99
:100710002053686F77206B657970726573736573AA
:1007200020696E206D617472697820677269640A4D
:100730004B3A094B6579626F61726420446562755A
:100740006720546F67676C65202D2053686F772092
:100750006B65797072657373207265706F72740A5D
:100760004D3A094465627567204D6F757365205475
:100770006F67676C650A563A0956657273696F6EE2
:100780000A533A095374617475730A433A09416311
:1007900074697661746520436F6E736F6C65204D6C
:1007A0006F64650A46312D4631303A0953776974D2
:1007B000636820746F204C6179657220302D392078
:1007C00028463130203D204C30290A302D393A0955
:1007D00053776974636820746F204C617965722067
:1007E000302D390A47524156453A095377697463A7
:1007F0006820746F204C6179657220302028616C0C
:100800007465726E617465290A423A094A756D70A1
:1008100020746F20426F6F746C6F616465720A455B
:1008200053433A094A756D7020746F20426F6F749C
:100830006C6F616465722028616C7465726E61749E
:1008400065290A453A095072696E7420454550522F
:100850004F4D2053657474696E67730A425350415B
:1008600043453A09436C65617220454550524F4DEE
:100870000A000A002575002E6E6B726F3A20000A7E
:10088000002575002E737761705F6261636B736C16
:100890006173685F6261636B73706163653A2000C6
:1008A0000A002575002E737761705F677261766547
:1008B0005F6573633A20000A002575002E6E6F5F36
:1008C0006775693A20000A002575002E73776170FC
:1008D0005F72616C745F726775693A20000A002567
:1008E00075002E737761705F6C616C745F6C6775F7
:1008F000693A20000A002575002E737761705F72D7
:1009000063746C5F726775693A20000A0025750090
:100910002E737761705F6C63746C5F6C6775693A96
:1009200020000A002575002E636170736C6F636B85
:100930005F746F5F636F6E74726F6C3A20000A00B1
:100940002575002E737761705F636F6E74726F6CC4
:100950005F636170736C6F636B3A20000A0025302F
:100960003258006B65796D61705F636F6E666967A1
:100970002E7261773A20000A002575002E6D6F7582
:1009800073653A20000A002575002E6B6579626F49
:100990006172643A20000A002575002E6D61747240
:1009A00069783A20000A002575002E656E61626C38
:1009B000653A20000A002530325800646562756788
:1009C0005F636F6E6669672E7261773A20000A0076
:1009D00025750064656661756C745F6C617965721C
:1009E0003A20003F000A6D6F7573653A206F6666A6
:1009F0000A000A6D6F7573653A206F6E0A000A6B04
:100A00006579626F6172643A206F66660A000A6BEC
:100A10006579626F6172643A206F6E0A000A6D61D7
:100A2000747269783A206F66660A000A6D617472A2
:100A300069783A206F6E0A000A64656275673A2029
:100A40006F66660A000A64656275673A206F6E0A0F
:100A5000000A0A4A756D70696E6720746F20626FB4
:100A60006F746C6F616465722E2E2E2000433E20E1
:100A700000436C656172696E6720454550524F4D69
:100A80000A006565636F6E6669673A0A00290A00A5
:100A90002575002F002575005D28002564002000C5
:100AA000256400200025640020002564007C0025CA
:100AB000303258006D6F7573656B6579205B6274B9
:100AC0006E7C782079207620685D287265702F61B1
:100AD000636C293A205B000A002530325820006BF5
:100AE0006579626F6172645F7265706F72743A20CB
:100AF000000A0025303258006B6579626F617264BC
:100B00005F7365745F6C65643A20004F6E6573684F
:100B10006F743A206163746976653A2025640A002F
:100B20005B735D004B6579626F6172642073746101
:100B300072742E0A005B575D005B535D005B525D73
:100B4000005B445D005B435D001203650076006B53
:100B5000002000760031005F0033000000120359CE
:100B60000061006E0067002000430075006900000E
:100B7000000403090409025B00030100A0FA090450
:100B800000000103010100092111010001224000C0
:100B90000705810308000A090401000103000000A1
:100BA000092111010001227B000705820320000AB0
:100BB00009040200020300000009211101000122C2
:100BC000220007058303200001070503032000011D
:100BD0001201100100000008EDFE000001000102FA
:100BE00000010631FF0974A1010975150026FF00F7
:100BF0009520750881020976150026FF009520755D
:100C0000089102C005010902A10185020901A100A4
:100C100005091901290815002501950875018102AA
:100C20000501093009311581257F95027508810676
:100C300009381581257F950175088106050C0A384C
:100C4000021581257F950175088106C0C00501093F
:100C500080A101850319012AB700150126B7009567
:100C60000175108100C0050C0901A101850419015D
:100C70002AA002150126A002950175108100C00569
:100C8000010906A101050719E029E71500250195CD
:100C90000875018102950175088101050719002970
:100CA000FF150026FF00950675088100050819014B
:100CB0002905950575019102950175039101C00003
:100CC00011241FBECFEFDAE0DEBFCDBF11E0A0E000
:100CD000B1E0E0E4F8E502C005900D92A63AB10754
:100CE000D9F722E0A6EAB1E001C01D92AD39B20702
:100CF000E1F70E942A260C94F62B0C940000FF9337
:100D0000EF93E091A601F091A701309709F00995C2
:100D1000EF91FF910895FC018591803011F0EFDF94
:100D2000FBCF0895FF27E0E230E247FF0CC041957A
:100D300097FF09C0EDE26095709580959095611DD3
:100D4000711D811D911D27FF02C0219530E350E2E6
:100D5000AA27660F771F881F991FAA1FA41710F0D4
:100D6000A41B63955A95A9F7AA3008F0A95FA05D66
:100D7000AF93F395611571058105910541F7ED324A
:100D800011F4EF93F395F21718F43F93F395FBCF1B
:100D90008F91B5DFFA95E1F70895E991F991859181
:100DA000803021F0853219F0AADFF9CF089520E0D4
:100DB000E89455915532C1F3503311F4689455912C
:100DC0005A3348F4505390F3220F022E220F220F71
:100DD000200D250FF4CF0EF421958991999153366A
:100DE00019F3533729F1533559F1BC018827992755
:100DF000E8945C3621F48991999168945591543620
:100E000039F446EF7EF077FF0DC08FEF9FEF0AC0F9
:100E100055374AE039F0583540E121F0523642E08A
:100E200009F00895FF93EF937DDFEF91FF91B7CF26
:100E3000FF93EF93FC0181918030B9F360DFFBCF2A
:100E4000FF93EF9368DFF1CFDF93CF93CDB7DEB79A
:100E50002596A3DFCF91DF910895559A0C948B0AC4
:100E6000CF92DF92EF92FF926B017C0141E00E94F2
:100E70006D1F882341F05D9AC701B601FF90EF9086
:100E8000DF90CF9008955D98F7CFCF93C82F0E9441
:100E90004908882319F0C1FF03C05C9ACF910895D7
:100EA0005C98FCCF81E0089581E008950C9454078C
:100EB00008950C9458071F93CF93DF9300D000D070
:100EC0000F92CDB7DEB749835A836B833091D90136
:100ED00089819A8131111DC06623B9F02223A9F0BE
:100EE0000E948620182F682F89819A810E943320C2
:100EF00069817A81812F0F900F900F900F900F9042
:100F0000DF91CF911F910C945A080E945F20182FF7
:100F1000EFCF0E94862069817A81EDCFFC01262FD8
:100F2000408151816281738184810C945B07CF93EE
:100F3000DF93EC0160E00E948E07BE01DF91CF914C
:100F40000C9459070E94670A0E944B080C942D07C5
:100F50000C948D0A08950E948A1B0E94AA072FEF05
:100F600084E39CE0215080409040E1F700C0000005
:100F70000C94D9230F931F93CF93DF938C0161E0DF
:100F80000E948E07EC01B8010E9456078823C1F128
:100F9000B801CE010E948314882391F1B801CE01DB
:100FA0000E94D514882361F1B801CE010E94F81582
:100FB000882331F1F8018281882361F0CF3DFCE57F
:100FC000DF07B1F170F4C115ECE5DE07B9F0C1300F
:100FD000DC45E1F0C801DF91CF911F910F910C9496
:100FE0005207CC358DE5D80749F1CD35DC0719F12D
:100FF000CB35DD4579F70E944921ECCF0E94AB0744
:1010000080E0DF91CF911F910F910895909163023D
:10101000892F8E7F90FF81608093630280FF05C0DF
:101020008EE392E00E948B06EBCF8CE292E0FACF47
:101030000E94B122E5CF0E944021CCCF0E944C21DA
:10104000C9CF829590E09C01220F331F220F331FDE
:101050002C7C95958795959587958373282B30E003
:10106000C901880F991F8A7A359527952575822B96
:101070000895CF93DF93D92F0E942108C82F8D2F79
:101080000E9421089C2FDF91CF91089508950C9420
:10109000460881E00895549A5C980895CF93C82F2C
:1010A0000E9447088C2FCF910C94450790E080E078
:1010B00008950895E72FF0E096E0899FE00DF11D77
:1010C000112484E0EE0FFF1F8A95E1F7E60FF11D72
:1010D000EE0FFF1FE455FF4F859194910895FC0199
:1010E000EE0FFF1FE15BFD4F859194910895CF9323
:1010F000DF930E945A080E948C09EC01811520E5BB
:10110000920708F042C0811530E4930708F0BDC093
:10111000883E910528F5803E910508F09DC0883AEB
:10112000910588F4853A910508F08FC081309105CA
:1011300009F492C0009709F48FC0049708F08CC09E
:10114000D0E0C0E089C08F3B910508F489C0805C85
:101150009109C03CD105A0F30E946F08EC017CC04E
:101160008115904250F4C11581E0D80708F074C091
:10117000CD3ED10528F3D0656FC0C11590E3D907E6
:1011800008F079C0CE019F70E7CF811525E5920761
:1011900058F5811534E5930708F0A6C0811542E59E
:1011A000940750F4C11581E5D80708F471C0DC2F0D
:1011B000CC27C16FD06A50C0982F969596959E0106
:1011C00023703327C115D34508F07FC0C1E0D0E0BC
:1011D00002C0CC0FDD1F2A95E2F720E2929FC001EA
:1011E0001124C82BD92B6FC0C11589E5D807A8F4E5
:1011F000C11598E5D90708F07CC0C11526E5D207CE
:1012000008F09ECF8C2F0E94230AC82FD0E0DC2F3D
:10121000CC27CC27DF71D0621FC0C1153AE5D307B8
:1012200008F46CC0CE0190568115904208F088CF2A
:101230008D2F8F710E94230A90E0982F882788278E
:101240009F719C012C2BE901E6CFC55AD0E0CD5B04
:10125000DE4FC881D0E0D064CE01DF91CF910895F8
:10126000C85AD0E0CC0FDD1FCB5EDE4F0990D8818D
:10127000C02DD464F1CFCE019927D3FF03C0EC0178
:10128000D86CEACFEC01D06CE7CFDF70D06AE4CF46
:10129000CE01E4E096958795EA95E1F783702C2FCF
:1012A00026952695237090E2299F90011124382BD2
:1012B0008C2F8370C1E0D0E002C0CC0FDD1F8A9577
:1012C000E2F7C22BD32BDC68C7CFC1E0D0E002C06D
:1012D000CC0FDD1F2A95E2F730E2939FC001112465
:1012E000C82BD92BDA68B8CFD82FCC27C46FD06AD7
:1012F000B3CFDC2FCC27C06FD06AAECF8C2F8F70CE
:101300000E94230A34E0D695C7953A95E1F7CF704D
:101310009C2FEC01D069A0CF82389105B1F1B0F4D7
:101320008133910509F475C048F48932910509F4B7
:1013300069C08A32910509F473C008958533910517
:1013400009F459C08933910501F10895833E91054F
:10135000A9F138F4803E9105F9F0823E910549F1FA
:101360000895863E9105A9F1873E9105C9F1843E15
:10137000910519F52091730221FF1FC0809172021F
:1013800084FD14C087EE90E00895209172022370CE
:10139000A1F080EE90E008952091720220FD47C0F8
:1013A0003091730230FF09C024FF44C090E080E018
:1013B00004C02091720222FDF7CF0895209172029D
:1013C00022FD3BC03091730230FDE3CF24FFF5CF07
:1013D000EDCF2091720223FFF0CF24FDE7CFD2CFD3
:1013E0002091720223FD2CC03091730231FFEECFA9
:1013F00084EE90E008952091720225FFDECF89E20D
:1014000090E008952091720225FFD7CF85E390E008
:1014100008952091720226FFD0CF8AE290E00895CD
:101420002091720226FFC9CF81E390E0089589E3FD
:1014300090E0089583EE90E0089582EE90E00895A4
:1014400086EE90E008959091720292FF06C0282FD8
:1014500028712830F9F4877F846093FF06C0282F15
:1014600028712831F1F4877E84612091730220FF76
:1014700006C0382F38713830D9F4877F816021FF5A
:1014800006C0282F28712831D1F4877E816194FD10
:10149000877E0895282F24712430F9F68B7F886089
:1014A000DCCF282F2471243101F78B7E8861DDCFBA
:1014B000382F3171313019F78E7F8860E0CF282FB7
:1014C0002171213121F78E7E8861E1CF08950E943C
:1014D0000C22811102C00E94B1220E941722809327
:1014E00063020E941F2290937302809372020E94F3
:1014F000660A0E941B22682F70E090E080E00E9444
:10150000221F60914E0270914F0280915002909183
:1015100051020C945A1F089508950C948C0AE82FD8
:10152000F0E0EE0FFF1FE058FD4F8081918108959C
:10153000CF92DF92EF92FF920F931F93CF93DF939F
:101540008FE592E00E948B0680E8E82E82E0F82E7C
:10155000D0E0C0E09AE5C92E92E0D92E01E512E074
:10156000DF93CF93DF92CF920E94240787E592E02A
:101570000E948B06F701819191917F010E943908A9
:101580009F938F931F930F930E9424078FE492E001
:101590000E948B0621968DB79EB708960FB6F894D9
:1015A0009EBF0FBE8DBFC630D105D1F6DF91CF9162
:1015B0001F910F91FF90EF90DF90CF90089580EAF8
:1015C0008A95F1F7089500C008950C94DF0AF89405
:1015D000E82FE295EF70F0E031A1282F2F7081E025
:1015E00090E001C0880F2A95EAF7982F90959323F1
:1015F00091A392A1892B82A378940895CF93DF932E
:10160000C6E4D1E089910E94E70A81E0C635D80797
:10161000C9F780E30E94E70A81E30E94E70A82E3B8
:101620000E94E70A83E30E94E70A87E30E94E70A31
:1016300080E90E94E70AE4E7F2E0A0E8B2E0119254
:1016400011921D921D9282E0E038F807C1F786E002
:101650000E94C60BDF91CF910C94A2076F927F92EC
:101660009F92AF92BF92CF92DF92EF92FF920F9331
:101670001F93CF93DF9396E4E92E91E0F92E10E0CB
:1016800000E0C0E0CC24C394D12C30E8A32E32E09B
:10169000B32ED7018D917D01F894E82FE295EF707C
:1016A000F0E021A18F70A60102C0440F551F8A955A
:1016B000E2F7CA01922F982B91A392A180958923DA
:1016C00082A378940E94E30AA601002E02C0440F70
:1016D000551F0A94E2F7BA0160957095E4E7F2E0CD
:1016E00086E5682E81E0782ED0E021913191D301FA
:1016F0009D903D01892D82958F7090E0DC01909640
:101700008C9190E0B92DBF7002C095958795BA95E0
:10171000E2F780FD37C0C901842B952B28173907C4
:1017200039F09F0122503109D9018D939C93D1E06A
:10173000AE16BF06D1F6F701319780810E94E70A05
:101740000E94E50ACD2B0F5F1F4F0031110509F0F4
:10175000A0CF2C2F46E060E872E084E792E00E9480
:10176000C70B0E94A8078C2FDF91CF911F910F917B
:10177000FF90EF90DF90CF90BF90AF909F907F90C1
:101780006F900895C90186239723C8CF0895FF92CB
:101790000F931F93CF93DF93F82E092F162FD72F78
:1017A000C42F222349F081E08093AA010E948E2356
:1017B0009093A9018093A8018091AA018823A1F0A8
:1017C0008091A8019091A9010E94A623069760F03C
:1017D000EF2DF02FA12FBD2F90E080E0D0E08C17EF
:1017E0009D0744F01092AA01DF91CF911F910F91B4
:1017F000FF900895219131912D933D930196EFCF64
:1018000086E794E00E948B061F9281E08F931F92DF
:1018100085E08F9388E294E09F938F930E94240742
:101820000F900F900F900F900F900F9008958330AE
:1018300009F445C028F4813061F0823049F10895FF
:10184000853009F46AC008F451C0863009F47CC0C0
:10185000089580910701482F460F5527551F4F3F88
:10186000510594F4680F60930701809107011F925E
:101870008F9381E693E09F938F930E9424070F90AC
:101880000F900F900F9008958FEF80930701EDCF89
:1018900080910601482F460F5527551F4F3F510590
:1018A00054F4680F60930601809106011F928F9394
:1018B0008FE493E0E0CF8FEF80930601F5CF809126
:1018C0000501482F460F5527551F4F3F510554F42A
:1018D000680F60930501809105011F928F938CE33F
:1018E00093E0C9CF8FEF80930501F5CF809104017C
:1018F000482F460F5527551F4F3F510554F4680F89
:1019000060930401809104011F928F9387E293E01A
:10191000B2CF8FEF80930401F5CF80910101482F62
:10192000460F5527551F4F3F510554F4680F6093DC
:101930000101809101011F928F938EE093E09BCF74
:101940008FEF80930101F5CF80910001482F460F62
:101950005527551F4F3F510554F4680F6093000100
:10196000809100011F928F9383EF92E084CF8FEFDD
:1019700080930001F5CF8330C9F128F4813061F004
:10198000823019F10895853009F452C008F43FC03F
:10199000863009F45EC0089580910701681790F4BD
:1019A000861B80930701809107011F928F9384EE1D
:1019B00092E09F938F930E9424070F900F900F90B7
:1019C0000F90089510920701EECF809106016817DD
:1019D00050F4861B80930601809106011F928F931D
:1019E00082ED92E0E6CF10920601F6CF80910501DC
:1019F000681750F4861B80930501809105011F92A2
:101A00008F938FEB92E0D5CF10920501F6CF8091A6
:101A10000401681750F4861B80930401809104012F
:101A20001F928F938AEA92E0C4CF10920401F6CFFE
:101A300080910101681750F4861B80930101809109
:101A400001011F928F9381E992E0B3CF10920101BF
:101A5000F6CF80910001681750F4861B8093000137
:101A6000809100011F928F9386E792E0A2CF10929F
:101A70000001F6CFCF93C82F1F928F938BE795E08D
:101A80009F938F930E94240761E070E080E090E0D4
:101A900004C0660F771F881F991FCA95D2F70E944E
:101AA000221F0F900F900F900F90CF910C948A1BD4
:101AB000CF93DF938B3109F4FAC108F09CC18B30CE
:101AC00009F4B8C108F06AC1863009F4C6C148F407
:101AD000853009F49EC183EE99E00E948B0680E078
:101AE000CCC1873009F4CCC18830A9F782E89AE0EC
:101AF0000E948B0683ED99E00E948B060E941B22B8
:101B00001F928F9380ED99E09F938F930E942407FB
:101B10008EEC99E00E948B060E941722C82F8BEB57
:101B200099E00E948B061F92CF9386EB99E09F93DA
:101B30008F930E94240784EB99E00E948B068AEA27
:101B400099E00E948B068C2F81701F928F9387EAF9
:101B500099E09F938F930E94240785EA99E00E9461
:101B60008B068BE999E00E948B06C1FB882780F9E0
:101B70001F928F9388E999E09F938F930E94240787
:101B800086E999E00E948B068AE899E00E948B061C
:101B9000C2FB882780F91F928F9387E899E09F9373
:101BA0008F930E94240785E899E00E948B068CE7BA
:101BB00099E00E948B06C3FBCC27C0F91F92CF93FC
:101BC00089E799E09F938F930E94240787E799E024
:101BD0000E948B060E941F22EC0183E699E00E947E
:101BE0008B06DF93CF938EE599E09F938F930E94AE
:101BF00024078CE599E00E948B0683E499E00E941B
:101C00008B068C2F81701F928F9380E499E09F93B5
:101C10008F930E9424078DB79EB780960FB6F894D5
:101C20009EBF0FBE8DBF8EE399E00E948B0687E2B8
:101C300099E00E948B06C1FB882780F91F928F9341
:101C400084E299E09F938F930E94240782E299E0B7
:101C50000E948B0680E199E00E948B068D2F817097
:101C60001F928F938DE099E09F938F930E9424079A
:101C70008BE099E00E948B0689EF98E00E948B062A
:101C8000D695D1701F92DF9386EF98E09F938F9344
:101C90000E94240784EF98E00E948B0682EE98E071
:101CA0000E948B06C2FB882780F91F928F938FEDCD
:101CB00098E09F938F930E9424078DED98E00E94F7
:101CC0008B068BEC98E00E948B06C3FB882780F97B
:101CD0001F928F9388EC98E09F938F930E94240724
:101CE00086EC98E00E948B068CEB98E00E948B06B5
:101CF000C4FB882780F91F928F9389EB98E09F930C
:101D00008F930E94240787EB98E00E948B0685EA58
:101D100098E00E948B06C5FB882780F91F928F935D
:101D200082EA98E09F938F930E94240780EA98E0CC
:101D30000E948B0684E898E00E948B06C6FB8827E9
:101D400080F91F928F9381E898E09F938F930E9470
:101D500024078DB79EB780960FB6F8949EBF0FBE2E
:101D60008DBF8FE798E00E948B0687E798E00E947E
:101D70008B06C7FBCC27C0F91F92CF9384E798E06E
:101D80009F938F930E94240782E798E00E948B061E
:101D90000F900F900F900F9081E06FC0803109F489
:101DA0009EC080F48E3009F096CE90916302892F08
:101DB0008B7F92FF84608093630282FF8DC08EE0F0
:101DC0009AE081C0863109F49AC0893109F083CE46
:101DD00089E996E00E948B0680E696E00E948B06D9
:101DE00089E496E00E948B0684E196E00E948B06CF
:101DF00089EE95E021C08A3249F190F4873211F1E1
:101E000028F48E3108F467CE8D511DC0893209F057
:101E100062CE81E59AE00E948B060E94AB07BCCFA0
:101E2000833468F48A3308F0A1C0853359F08833CD
:101E300009F051CE8FEC96E00E948B06ADCF833433
:101E400009F049CE80E00E943A0DA6CF81E79AE0E2
:101E50000E948B060E94B1229FCF80916302807FF7
:101E60008093630288EA96E00E948B068DE69AE0F2
:101E70000E948B0681E08093AC01DF91CF910895A1
:101E800090916302892F8E7F90FF8160809363021F
:101E900080FF03C085E49AE0CFCF88E39AE00E94F8
:101EA0008B0680916302817F8093630275CF90914E
:101EB0006302892F8D7F91FF82608093630281FF8F
:101EC00008C08BE29AE00E948B06809163028160D9
:101ED000EBCF8DE19AE0B0CF8EEF99E0ADCF90914E
:101EE0006302892F877F93FF88608093630283FF5B
:101EF00003C082EF99E0E7CF85EE99E09DCF8BEDAF
:101F000095E00E948B060E9427161F928F9381EC0A
:101F100095E09F938F930E942407809114011F9254
:101F20008F938AEA95E09F938F930E942407809174
:101F300071021F928F9387E995E09F938F930E9480
:101F400024070E949A239F938F937F936F9380E837
:101F500095E09F938F930E9424078DB79EB742967A
:101F60000FB6F8949EBF0FBE8DBF16CF89536BCFAF
:101F700080E008950C94B80F8E518A3030F4E82F29
:101F8000F0E0E45AFE4F8081089580E00895CF93F9
:101F9000C82F8091AC018130C1F0882339F08230A4
:101FA00009F447C01092AC0180E00DC00E944F219F
:101FB0008232D1F78C2F0E94B80F81111BC08C2F59
:101FC0000E94580D8170CF9108950E944F21823256
:101FD00089F38C2F0E94BA0F81111BC0C431D9F034
:101FE00060F4CB3071F0C031D1F081E795E00E9410
:101FF0008B0613C081E090E0E5CFC93261F0C833B1
:10200000A1F788EA96E00E948B0687E795E00E9498
:102010008B0681E0D7CF1092AC0180E0D3CF0E9435
:10202000000C83E795E00E948B0682E08093AC0170
:10203000F0CFC432C8F4CE3108F0BEC0CB30E1F0EE
:1020400040F4C73009F4CCC085E194E00E948B06CF
:1020500026C0C331C1F1C431B9F78091AB018823E7
:1020600051F11092AB010AC0CB3409F4B7C0C8F4E7
:10207000C93299F3C83341F70E94000C8091AB013B
:10208000882309F4C4C01F928F938FE094E09F933C
:102090008F930E9424070F900F900F900F9081E074
:1020A00092CFC13509F494C0C23509F48BC0CE3447
:1020B00059F66AE08EC084E294E00E948B0681E0CB
:1020C0008093AC0180CF8EEF93E00E948B068CEE64
:1020D00093E00E948B06809107011F928F9389EEF7
:1020E00093E09F938F930E94240787EE93E00E94D2
:1020F0008B0685ED93E00E948B06809106011F926E
:102100008F9382ED93E09F938F930E94240780ED3D
:1021100093E00E948B0681EC93E00E948B068091F5
:1021200005011F928F938EEB93E09F938F930E94F4
:1021300024078CEB93E00E948B068BEA93E00E94CD
:102140008B06809104011F928F9388EA93E09F93FE
:102150008F930E94240786EA93E00E948B0681E910
:1021600093E00E948B06809101011F928F938EE86D
:1021700093E09F938F930E9424078CE893E00E9442
:102180008B0685E793E00E948B06809100011F92E9
:102190008F9382E793E09F938F930E94240780E7B9
:1021A00093E00E948B068DB79EB748960FB6F894C1
:1021B0009EBF0FBE8DBF62CF8C2F0E94BC0F80933D
:1021C000AB015CCF61E08091AB010E94170C56CF50
:1021D00061E08091AB010E94BB0C50CF6AE0F3CF6D
:1021E0008EE18093070182E3809306018AE0809369
:1021F000050184E18093040188E08093010188E275
:102200008093000187E194E00E948B0637CF8CE039
:1022100094E01CCF8091B30180FF12C06091050152
:1022200085E0689FB0011124759567957595679550
:1022300060387105A8F561157105A1F1862F089523
:1022400081FF09C06091050185E0689FB0011124FC
:1022500075956795EDCF6091050182FD0AC080916B
:10226000B2018823D1F09091040160910501891792
:1022700028F085E0689FB0011124DACF869FB00175
:10228000112485E0869F9001879F300D1124692FCE
:1022900070E0C9010E94862BCBCF65E070E0CECF05
:1022A0008FE7089581E008958091B30180FF0CC00D
:1022B0006091010170E07595679575956795611559
:1022C000710549F1862F089581FF06C060910101D3
:1022D00070E075956795F3CF6091010182FD0BC0A9
:1022E0009091B1019923A1F06091000180910101C9
:1022F000961738F0682F70E06038710500F38FE7AB
:102300000895899FC001112470E00E94862BF4CFAC
:1023100061E070E0D7CF81E008958D3E31F40E94F6
:102320000A1181958093B70108958E3E19F40E9499
:102330000A11F8CF8F3E31F40E940A1181958093E3
:10234000B6010895803F19F40E940A11F8CF893F21
:1023500029F40E9454118093B80108958A3F21F412
:102360000E9454118195F7CF8B3F31F40E94541194
:1023700081958093B90108958C3F19F40E945411FE
:10238000F8CF9FE0980F983070F4815F990B21E0AF
:1023900030E001C0220F8A95EAF78091B501822BC7
:1023A0008093B50108958D3F31F48091B301816030
:1023B0008093B30108958E3F21F48091B301826030
:1023C000F7CF8F3FB9F78091B3018460F1CF40918F
:1023D000B6018D3E59F48091B70187FF0DC0109270
:1023E000B70141110BC01092B20108C08E3E81F4BA
:1023F0008091B70118169CF3442381F08091B801B5
:102400009091B901892B09F05AC01092B101089539
:102410008F3E49F447FFF0CF1092B6018091B7018B
:102420008111ECCFE0CF803F19F41416ACF3E4CF68
:102430009091B801893F29F41916F4F61092B80169
:10244000DBCF8A3F19F497FFD7CFF8CF9091B9012E
:102450008B3F29F497FFD0CF1092B901CDCF8C3F9D
:1024600019F41916CCF3C8CF9FE0980F983090F468
:10247000815F990B21E030E0B90102C0660F771F40
:102480008A95E2F7CB0180959091B50189238093DD
:10249000B501B2CF8D3F31F48091B3018E7F80932F
:1024A000B301AACF8E3F21F48091B3018D7FF7CF86
:1024B0008F3F09F0A1CF8091B3018B7FF0CF0895BA
:1024C0008091630283FF7EC084EB9AE00E948B06BA
:1024D0008091B5011F928F938FEA9AE09F938F931B
:1024E0000E9424078DEA9AE00E948B068091B60133
:1024F000282F082E000C330B3F938F938AEA9AE023
:102500009F938F930E94240788EA9AE00E948B068B
:102510008091B701282F082E000C330B3F938F9327
:1025200085EA9AE09F938F930E94240783EA9AE0BA
:102530000E948B068091B801282F082E000C330BC7
:102540003F938F9380EA9AE09F938F930E94240792
:102550008EE99AE00E948B068091B901282F082EFF
:10256000000C330B3F938F938BE99AE09F938F93EB
:102570000E94240788E99AE00E948B068091B201AC
:102580001F928F9385E99AE09F938F930E9424076F
:1025900083E99AE00E948B068091B3011F928F938A
:1025A00080E99AE09F938F930E9424078DE89AE038
:1025B0000E948B068DB79EB74C960FB6F8949EBFBF
:1025C0000FBE8DBF0E948E239C019091B601809119
:1025D000B701982B21F03093B0012093AF01909177
:1025E000B8018091B901982B21F03093AE0120936E
:1025F000AD0184EB91E00C947F16EF92FF920F9364
:102600001F93CF93DF9300D000D000D0CDB7DEB7BB
:1026100086E0E4EBF1E0DE01119601900D928A95DF
:10262000E1F7E090B601F090B7010091B801109188
:10263000B9011092B6011092B7011092B801109230
:10264000B9018E2D8F2991F08091AF019091B00149
:102650000E94A623AC019091B201992309F43FC0D6
:10266000809106018417150608F447C0802F812B3E
:1026700091F08091AD019091AE010E94A623AC0132
:102680009091B101992309F477C0809102018417D8
:10269000150608F47FC08091B6019091B701892B8F
:1026A0009091B801892B9091B901892B11F00E946A
:1026B000601286E0FE013196A4EBB1E001900D922C
:1026C0008A95E1F726960FB6F894DEBF0FBECDBF10
:1026D000DF91CF911F910F91FF90EF90089520917E
:1026E00007018AE0289F900111242417350708F07C
:1026F000BDCF9F5F9093B20102C09F3FD1F7EE2004
:1027000059F00E940A119FEF1E140CF491E0899F6A
:10271000802D11248093B601FF2059F00E940A11E8
:102720009FEF1F140CF491E0899F802D112480935A
:10273000B7013091B601332309F498CF2091B70146
:10274000222309F493CF45EB3403C00111249923CC
:1027500059F09093B60145EB2403900111243323E3
:1027600039F03093B70182CF81E08093B601F3CF87
:1027700081E08093B7017ACF209103018AE0289FFE
:10278000900111242417350708F085CF9F5F90939F
:10279000B10102C09F3FD1F7002359F00E945411AC
:1027A0009FEF10160CF491E0899F802D11248093E7
:1027B000B801112359F00E9454119FEF11160CF427
:1027C00091E0899F802D11248093B9013091B80147
:1027D000332309F460CF2091B901222309F45BCFA0
:1027E00045EB3403C0011124992359F09093B801AB
:1027F00045EB240390011124332339F03093B901C0
:102800004ACF81E08093B801F3CF81E08093B90192
:1028100042CF86E0E4EBF1E0DF011D928A95E9F713
:102820001092B2011092B1011092B30108950F936A
:102830001F93CF93DF93C42FD22FFC018281882373
:10284000C9F04093BC010E948E239093BB018093FA
:10285000BA0180E28C0F883008F050C0C77081E068
:1028600001C0880FCA95EAF7DF91CF911F910F91B0
:102870000C9411191091BC01141335C08091BA0148
:102880009091BB010E94A623883C910560F5C0E2AF
:10289000CD0F1D17B9F080E2810F883040F417701A
:1028A00081E001C0880F1A95EAF70E941819C83014
:1028B00048F481E09D2F977001C0880F9A95EAF740
:1028C0000E941119802F0E940919C830B8F4D770DE
:1028D00081E001C0880FDA95EAF7DF91CF911F916F
:1028E0000F910C94181980E28C0F883038F4C7705F
:1028F00081E001C0880FCA95EAF7EFCFDF91CF9151
:102900001F910F9108950F939C01CB01243F4CE53B
:10291000340759F1A8F4293DFCE53F0701F12A3DB0
:102920004CE53407D1F1283D3C4591F406E221EE17
:1029300041EE68ED7CE50E94171480E00F91089548
:10294000263FFCE53F07E9F0B0F0273F3C45F9F0B2
:10295000FC018281882339F11092BC01EFCF07E29C
:1029600025EE45EE69ED7CE5E6CF06E221EE40EE90
:1029700064EF7CE5E0CF07E225EE44EE65EF7CE511
:10298000DACF06E221EE42EE66EF7CE5D4CF07E235
:1029900025EE46EE67EF7CE5CECF08E221E045EE7E
:1029A0006AED7CE5C8CF81E0C9CFCF93DF93EC011E
:1029B000FB018281882309F419C1C230FCE5DF07DD
:1029C000C0F1C6319CE5D90730F09E012B5F3C4534
:1029D0002930310570F50E941F2290937302809375
:1029E0007202C031ECE5DE0709F4CFC008F05BC02D
:1029F000C8308CE5D80709F4B6C088F5C430ECE5DA
:102A0000DE0709F4A8C0C0F4C2308CE5D80709F489
:102A10009CC0809172028260C330DC4509F498C08A
:102A200080917202909173020E942D220E948A1B53
:102A300080E0DF91CF910895809172028061C6306D
:102A4000ECE5DE0709F484C0809172028860C7302B
:102A5000DC4508F47DC080917202806279C0CC3080
:102A60008CE5D80709F489C070F4809172028C60FB
:102A7000CA30ECE5DE0709F46BC008F478C0809139
:102A800072028E7F65C0CE308CE5D80709F479C01C
:102A9000809172028B7FCF30DC4508F459C0809161
:102AA00072028F7E55C0CC3FECE5DE0709F457C0BB
:102AB00030F5C3318CE5D80709F46FC078F4C13123
:102AC000ECE5DE0709F465C0C231DC4509F0A8CFAA
:102AD0000E948A1B809172028F773AC0C5318CE5C3
:102AE000D80709F462C008F476C08091730281604F
:102AF000CB3FDC4509F094CF8093730291CFC11591
:102B0000FDE5DF0709F44DC088F4809173028D7FE5
:102B1000CE3F9CE5D90781F3809173028E7FCF3F32
:102B2000DC4550F3809173028360E6CFC230FDE54F
:102B3000DF0709F459C008F444C080E0C330DD4524
:102B400009F06ECF0E94B3226BCF80917202816038
:102B50008093720265CF809172028460F9CF809178
:102B600073028260C9CF809172028064F1CF0E94AB
:102B70008A1B809172028068EBCF809172028D7FF8
:102B8000E7CF80917202877FE3CF809172028F7DC1
:102B9000DFCF809172028F7BDBCF80917202837FC7
:102BA000D7CF809173028C7FA7CF8091720282FB76
:102BB000992790F921E0922790FB82F990FB83F905
:102BC000C7CF80917302982F909591708E7F892B3B
:102BD00090FB81F991CF0E948A1B90917202892FFC
:102BE00097FB87F98058B4CF81E0ACCF81E021CF4B
:102BF000CF93DF93EB0186319C4511F50E944F2165
:102C00009A81992399F08A7A91E009F490E090935F
:102C1000BD01811109C089E20E94F6200E949F2116
:102C200080E0DF91CF91089585E3F6CF8091BD01DB
:102C3000811104C089E20E94FD20F0CF85E3FBCF23
:102C400081E0EFCF9093C3018093C2010895E0919A
:102C5000C201F091C301309721F00190F081E02D85
:102C6000099480E00895EF92FF920F931F93CF9302
:102C7000DF938C01E091C201F091C3013097C1F163
:102C80000280F381E02D09958091630282FF30C0BC
:102C900080FF04C08FED9AE00E948B06D0E0C0E078
:102CA00089EDE82E8AE0F82E8091630280FF0EC045
:102CB000F801EC0FFD1F80811F928F93FF92EF921E
:102CC0000E9424070F900F900F900F902196C8300C
:102CD000D10551F78091630280FF0AC087ED9AE029
:102CE000DF91CF911F910F91FF90EF900C948B0685
:102CF000DF91CF911F910F91FF90EF900895E09198
:102D0000C201F091C301309739F022E0DC012C932D
:102D10000480F581E02D099408952091C00130913F
:102D2000C1012817390771F09093C1018093C00148
:102D3000E091C201F091C301309721F00680F78144
:102D4000E02D099408952091BE013091BF0128170C
:102D5000390771F09093BF018093BE01E091C201E9
:102D6000F091C301309721F00084F185E02D0994A2
:102D700008950E949A236093D5017093D6018093A1
:102D8000D7019093D8016093D1017093D2018093C1
:102D9000D3019093D401089585B7806885BF85B726
:102DA000806885BF0895089508950C94D3160895FA
:102DB0000C94D7160E94CC1688EC95E20E940B2446
:102DC0000E94D4160C94D51681E008950C94E41654
:102DD000089508950E94E8160C94E9160E94852330
:102DE0000E94FE0A0C94D816CF93C82F80916302DC
:102DF00082FF1EC080FF1CC088EF9AE00E948B06F5
:102E00008091630280FF14C01F92CF9383EF9AE0FA
:102E10009F938F930E942407809163020F900F90DD
:102E20000F900F9080FF04C081EF9AE00E948B0604
:102E30008C2FCF910C944E088F929F92AF92BF929D
:102E4000CF92DF92EF92FF920F931F93CF93DF9376
:102E5000CDB7DEB72A970FB6F894DEBF0FBECDBF51
:102E60000E942E0B81110E94B91655EC852E51E05F
:102E7000952E10E000E0A02E802F0E948F0A6C019A
:102E8000F401E190F1904F01E816F90609F45CC0F5
:102E90008091630281FD0E94980AC7018C259D25BF
:102EA000B12CEE24E394F12C9C012E213F21232B05
:102EB00009F444C00E94E6168823A9F0BE82AF82BE
:102EC000CE20DF2081E0CD2809F480E088870E94B1
:102ED0008E238160782F9A8789874E815F816885EC
:102EE0008A850E94CE17000F111FF801EB53FE4F89
:102EF00080819181E826F926F182E0820E94FD120C
:102F00000E9427169091C4018917A9F10E942716E3
:102F10008093C4012A960FB6F894DEBF0FBECDBFD2
:102F2000DF91CF911F910F91FF90EF90DF90CF90A5
:102F3000BF90AF909F908F900C94F416B394EE0CCA
:102F4000FF1CF0E1BF12B0CF0F5F1F4F063011051D
:102F500009F091CF8FEF89838A831B820E948E2391
:102F60008160782F9D838C8349815A816B818D810B
:102F70000E94CE17C3CF2A960FB6F894DEBF0FBEBD
:102F8000CDBFDF91CF911F910F91FF90EF90DF9018
:102F9000CF90BF90AF909F908F900895DF92EF9267
:102FA000FF920F931F93CF93DF93CDB7DEB72B978D
:102FB0000FB6F894DEBF0FBECDBF7A878B87F42E95
:102FC000052F162FE72ED82E61110E946F211E8229
:102FD0001D827E2DEC82DD824F2D502F612F8D2D95
:102FE0009E812B960FB6F894DEBF0FBECDBFDF914A
:102FF000CF911F910F91FF90EF90DF900C94001EE6
:10300000FC01808191810C94C820CF93C82F882324
:1030100009F490C08238C1F40E94271681FD8AC04D
:1030200089E30E94F6200E949F212FEF81EE94E019
:10303000215080409040E1F700C0000089E30E94E9
:10304000FD20CF910C949F218338A1F40E94271674
:1030500080FD70C083E50E94F6200E949F212FEF23
:1030600081EE94E0215080409040E1F700C00000E4
:1030700083E5E5CF8438A1F40E94271682FD5AC06B
:1030800087E40E94F6200E949F212FEF81EE94E0BA
:10309000215080409040E1F700C0000087E4CFCF8E
:1030A0008CEF8C0F813AB8F48C2F0E94C70F8111DE
:1030B00041C06C2F80910801909109010E94CA22A1
:1030C000882329F08C2F0E94FD200E949F218C2FA5
:1030D0000E94F620B6CF80E28C0F883048F4C7708B
:1030E00081E001C0880FCA95EAF70E945221A9CF5A
:1030F000EBE5EC0FE33040F4F0E0EC56FE4F80815E
:1031000090E0CF910C948D16E8E5EC0FE73150F488
:10311000F0E0EE0FFF1FEA59FE4F80819181CF91C1
:103120000C94A316CD3E30F08C2F0E948D11CF91C0
:103130000C946012CF910895882309F452C082380C
:1031400071F40E94271681FF4CC089E30E94F6208B
:103150000E949F2189E30E94FD200C949F218338C7
:1031600059F40E94271680FF3CC083E50E94F62098
:103170000E949F2183E5EFCF843859F40E942716DF
:1031800082FF2FC087E40E94F6200E949F2187E4DF
:10319000E2CF9CEF980F913AF0F290E2980F9830BE
:1031A00050F4877091E001C0990F8A95EAF7892F52
:1031B0000E945821D2CF9BE5980F933020F490E0E5
:1031C00080E00C948D1698E5980F973120F490E0EC
:1031D00080E00C94A3168D3E20F00E94E7110C9421
:1031E000601208951F93CF93DF93182FEB010E9475
:1031F0000518209731F4812FDF91CF911F910C9406
:103200009C188FE99FE00197F1F700C0000021971B
:10321000F0CF70E060E0893311F460E570E00C9469
:10322000F218882321F00E9452210C949F210895C6
:10323000882321F00E9458210C949F210895BF9269
:10324000CF92DF92EF92FF920F931F93CF93DF9372
:103250006C01D62FC72FFC011281058102950F70DA
:103260000E941421E82E8823A1F0E12E112389F079
:103270008C2F807F803429F080E28D0FE12C883004
:1032800040F082E00E94F0210E94142191E0E82E9B
:10329000E926BC2EB2949FE0B922EB2DF0E0E85075
:1032A000F44D0C949A2B0C2F0F70C07F11F00295E7
:1032B000007F1123A9F0002359F080E28D0F8830A0
:1032C00010F0D11109C0802F0E9452210E949F212D
:1032D0008D2F0E94051814C0802F0E946221F6CF06
:1032E0008D2F0E949C18002359F080E28D0F8830AA
:1032F00010F0D1112CC0802F0E9458210E949F21D4
:103300002B2D2850330B2430310520F40E94271632
:103310000E944E08EE2009F49EC10E94102180FDFB
:103320009AC1F60112820E940A210E94971FC601CB
:103330000E944C1B0E940A21DF91CF911F910F9197
:10334000FF90EF90DF90CF90BF900C94B81F802F2C
:103350000E946821D3CFFC2FFF70FF2EC07FC032A8
:1033600019F0F29480EFF822DD2369F0D13049F1B1
:10337000112391F1002351F1F601858180FFA8CF3F
:103380008F70858323C0112381F0011106C00E9434
:1033900082218F290E941119B3CF0130C1F70E94F9
:1033A00082218F290E948821ABCF011106C00E9483
:1033B00095218F2D0E941819A3CF013009F4A0CFB9
:1033C000F6CF112329F0063008F09ACF8F2DE2CFE7
:1033D000053008F095CFEDCF002359F3D93349F4E8
:1033E000FFEF27EE33E0F15020403040E1F700C01E
:1033F00000008D2F0E949C1883CF8C2F8695869578
:10340000837069F0813009F07BCF8D2F9C2F9370F2
:10341000111102C090E080E00E94A31671CF8D2FA1
:103420009C2F9370111102C090E080E00E948D16D5
:1034300067CF8D2F112329F00E948D110E946012F9
:103440005FCF0E94E711FACF8C2F837009F041C043
:10345000111156CF4D2F429546954770440F440F9A
:103460000D2F0F7010E030E020E0042E04C0000F9C
:10347000111F221F331F0A94D2F760E070E0CB01C6
:10348000D4FF0FC06FE070E080E090E004C0660FF2
:10349000771F881F991F4A95D2F760957095809580
:1034A0009095C695C695C370602B712B822B932B7C
:1034B000C23049F058F4C13019F00E94361F20CFB5
:1034C0000E94241F1DCF0E94481F1ACF0E94221F56
:1034D00017CF8695112311F08C2F8170882309F462
:1034E0000FCF4D2F429546954770440F440F0D2F37
:1034F0000F7010E030E020E0042E04C0000F111F18
:10350000221F331F0A94D2F760E070E0CB01D4FF92
:103510000FC06FE070E080E090E004C0660F771F9E
:10352000881F991F4A95D2F7609570958095909560
:10353000C695C695C370602B712B822B932BC2301E
:1035400049F058F4C13019F00E940E20D9CE0E94E3
:10355000FC1FD6CE0E942020D3CE0E945C1FD0CE6E
:10356000CF70112329F08C2F0E94971F8D2F12CF1F
:103570008D2F0E9418198C2F0E94B81FC1CED23FE8
:1035800089F160F4D03FC9F0D13F29F1112309F44A
:1035900042C001119DCE8C2F8F7121C0D33F39F1D4
:1035A000D43FA1F7112369F1CF718C2F0E94971F8F
:1035B00063E08C2F0E94D521A3CE112341F005306A
:1035C00008F09ECE8C2F8F710E94DB1F99CE0630A3
:1035D00008F096CEF7CF8C2F8F71112369F20E94DD
:1035E000971F8ECE8C2F8F711123C9F3C5CF112356
:1035F00029F08C2F8F710E94821F82CE0E94681F3B
:103600007FCE81E00E94F021023008F479CE82E082
:103610000E94F02175CE002359F0D93309F0E9CE8C
:103620008FEF97EEE3E081509040E040E1F7DFCE8E
:103630008C2F8F71A1CF4C2F4F706D2FC6010E9420
:1036400056080E949A1E5CCE4C2F4F706D2FC601FB
:103650000E94590855CEDF91CF911F910F91FF9095
:10366000EF90DF90CF90BF9008950F931F93CF936B
:10367000DF93EC01688179818A810E94D2208C01DC
:103680000E9432200E94211FB801CE01DF91CF910C
:103690001F910F910C941F19CF93DF93EC018B8135
:1036A0009C81892B29F08881998189238F3F59F446
:1036B000DF91CF910895CE010E94351BCE01DF919D
:1036C000CF910C949707CE010E94BA078111F3CFD6
:1036D0000E941421882361F38A81882349F382E0C0
:1036E000DF91CF910C94F02190E080E00E948D1644
:1036F00090E080E00E94A3160E946F210E947F212B
:103700000E949F210E9409140C9460120E940421BF
:103710000C94741B0E945F210C94861BE92FE29588
:10372000EF70E250EE3070F4F0E0E85FF34D0C948F
:103730009A2B803F19F020F4883E20F481E0089510
:10374000843FE1F380E00895883EC0F3813FD1F7E4
:10375000F5CF93FB882780F908950E94C8200C9428
:103760008E1BCF93DF9300D000D00F92CDB7DEB782
:103770000F900F900F900F900F90DF91CF910895C1
:10378000CF93DF9300D000D000D0CDB7DEB7269620
:103790000FB6F894DEBF0FBECDBFDF91CF91089575
:1037A0001F93CF93DF93C091DA0116E08091DB0184
:1037B0008C1304C0DF91CF911F910895D0E01C9F1E
:1037C000F0011D9FF00D1124E452FE4F4081518104
:1037D00062817381848195810E94C01B2196C7708C
:1037E000E5CF40910C0250910D0260910E02709154
:1037F0000F0280911002909111020C94C01B1F9334
:10380000CF93DF9380911102807FA9F480910E0203
:10381000882389F08091DA01C091DB0160910C026C
:1038200070910D02A0910F02B0911002D62FD723F4
:1038300016E0C81304C0DF91CF911F91089590E066
:10384000109711F0DF3F19F401968770F2CF189F9F
:103850009001199F300D1124F901E452FE4F41816E
:103860004713F2CF40814613EFCF42814111ECCF95
:10387000438154814A1B5B0B483C510528F78091DA
:1038800011028F70806180931102F901EF51FE4F98
:1038900080818F70806180838CE092E00E944C1B5D
:1038A000DF91CF911F910C94D01BAF92BF92CF921A
:1038B000DF92EF92FF920F931F93CF93DF93CDB7D9
:1038C000DEB761970FB6F894DEBF0FBECDBF8C0197
:1038D00085E0F801DE011D9601900D928A95E1F7D1
:1038E000F80140815181E2808CE0C82E82E0D82E20
:1038F00060910F02709110026115710509F461C1A8
:1039000090910C0220910D02892F82238F3F09F4A0
:1039100058C1A380B480F0900E02F501E61BF70BAE
:10392000FF2009F4FCC080911102382F307FE83C61
:10393000F10508F0B2C0311179C0FE2C251323C067
:10394000941321C0E1101FC08F7080618093110219
:103950000E94F11BC6010E944C1B80911102F801CC
:1039600085838F2D61960FB6F894DEBF0FBECDBF55
:10397000DF91CF911F910F91FF90EF90DF90CF904B
:10398000BF90AF900895AB2829F0842F85238F3FF7
:1039900009F033C180E0F82FF170DF2E80FF3CC0CA
:1039A0008091DA012091DB0136E0821315C04D874A
:1039B0005E878D859E850E94C820292F22952F70B5
:1039C0002230F0F0243018F59F70F1F0F801958165
:1039D000907FD1F4D12C1EC090E0389FF001399F28
:1039E000F00D1124E452FE4F6181651306C0608121
:1039F000641303C062816E110FC001968770D5CF2A
:103A00009F7011F0882331F3805E883018F3C8016D
:103A10000E944C1BFD2CA5CFEE2009F4A2CF809173
:103A20001102816080931102F12C9BCF251306C0F7
:103A3000941304C0F801EE2009F48DC04D875E8711
:103A40008D859E850E94AD1B882319F1EE2009F11A
:103A500080911102803270F020910C0230910D02A1
:103A600038872F831986BB86AA868C87CE01079656
:103A70000E944C1B86E0F801ACE0B2E001900D9290
:103A80008A95E1F70E94FF1B0E94F11BFF24F3942B
:103A900068CFC8010E944C1BF9CF311113C07A2D99
:103AA000B98AA88A6E2D89890E94B11B8CE092E0A8
:103AB0000E944C1B86E0F60111928A95E9F70E945C
:103AC000F11BB2CF25130FC094130DC0E1100BC032
:103AD000F8018583C8010E944C1B86E0F601119213
:103AE0008A95E9F73ECF4D875E878D859E850E943A
:103AF000AD1B882371F2EE2061F2809111028032B9
:103B000008F4B8CF20910C0230910D023A8329833A
:103B10001B82BD82AC828E83CE010196A9CFE83C88
:103B2000F10508F041C0FE2CEE2009F4B2CF2513B8
:103B30002AC0941328C08091110280FD1BC0982FC9
:103B4000907FC1F0F8018583903F31F0982F907FEE
:103B5000905F8F70892B8583C8010E944C1B86E083
:103B6000F801ACE0B2E001900D928A95E1F70E9475
:103B7000F11BF7CE86E0F801ACE0B2E001900D92C7
:103B80008A95E1F7EECE4D875E878D859E850E94F2
:103B9000AD1B81116FCF8091110281608093110262
:103BA000C8010E944C1BDDCE7A2DB98AA88A6E2DE1
:103BB00089890E94B11B86E0F60111928A95E9F786
:103BC000D6CFEE2009F465CF4D875E878D859E8523
:103BD0000E94AD1BF82E882309F45BCF86E0F80124
:103BE000ACE0B2E001900D928A95E1F78CE092E0B2
:103BF0000E9400180E94FF1BBACF81E08E25CBCE19
:103C00001F93CF93DF93CDB7DEB72C970FB6F89401
:103C1000DEBF0FBECDBF4F83588769877A878B87FA
:103C20009C87CE0107960E94551C882369F08A85DF
:103C30009B85892B39F04F815885842F85238F3FB1
:103C400009F071C016E05FC086E0FE013796DE0124
:103C5000119601900D928A95E1F78A859B85892BB3
:103C600089F38F81988589238F3F61F32091DB0150
:103C700030E0C9010196877099274091DA01481711
:103C8000190671F40E948A1B1092DB011092DA016E
:103C900086E0ECE0F2E0DF011D928A95E9F7D2CFF1
:103CA00096E0929FD001939FB00D1124A452BE4F75
:103CB000FE01319601900D929A95E1F78093DB0118
:103CC0000E94D01BBFCF819FC001112484529E4F00
:103CD0000E94551C8823E9F0E091DA011E9FF00153
:103CE0001124E452FE4F40815181628173818481AD
:103CF00095810E94C01B8091DA0190E00196877047
:103D000099278093DA018091DA019091DB01891380
:103D1000DACF2C960FB6F894DEBF0FBECDBFDF9181
:103D2000CF911F91089569857A858B859C850E9426
:103D3000C01B88CFEF92FF920F931F93CF93DF9317
:103D40008C01892B81F0F12CEE24E394E80121967B
:103D5000F8018491843770F4843008F05FC08130BA
:103D6000B1F08230A1F1DF91CF911F910F91FF90BF
:103D7000EF900895853709F44CC008F43DC09CE7E6
:103D8000980F903780F78F770E949C1849C00E5F7C
:103D90001F4FFE01849190E2980F983060F4877075
:103DA000FE2D01C0FF0F8A95EAF78F2F0E94722126
:103DB0000E949F2102C00E9405188F2D815030F271
:103DC000EFE9FFE03197F1F700C00000F7CF0E5F99
:103DD0001F4FFE01849190E2980F983050F4877045
:103DE000FE2D01C0FF0F8A95EAF78F2F0E947821E0
:103DF000DFCF0E949C18E1CF0E5F1F4FFE01C491E0
:103E0000C150D8F28FE99FE00197F1F700C00000A0
:103E1000F7CF0E5F1F4FFE01F490CFCF0E94051821
:103E20008E01CBCF08950C94121F0E94131F609334
:103E300052027093530280935402909355020C9453
:103E4000741B08950C94151F0F931F930091520239
:103E5000109153022091540230915502602B712B26
:103E6000822B932B1F910F910C94151F0F931F936F
:103E70000091520210915302209154023091550248
:103E800060237123822393231F910F910C94151F9C
:103E90000F931F93009152021091530220915402EC
:103EA0003091550260277127822793271F910F9128
:103EB0000C94151F0C9430070E945A1F60934E02F9
:103EC00070934F0280935002909351020C94741B94
:103ED00060E070E0CB010C945C1F611571058105F9
:103EE000910529F481E0442361F080E00895DC012C
:103EF000CB0104C0B695A795979587954A95D2F7BB
:103F0000817008950F931F9341E050E060E070E0EE
:103F10008A019B0104C0000F111F221F331F8A95C5
:103F2000D2F7C901B8011F910F910C945C1F0F9338
:103F30001F9341E050E060E070E004C0440F551F63
:103F4000661F771F8A95D2F780914E0290914F029B
:103F5000A0915002B09151028A019B01082B192BAC
:103F60002A2B3B2BC901B8011F910F910C945C1FA8
:103F70000F931F9341E050E060E070E004C0440FF5
:103F8000551F661F771F8A95D2F7CB01BA0160953E
:103F900070958095909500914E0210914F0220915E
:103FA00050023091510260237123822393231F9189
:103FB0000F910C945C1F0F931F9341E050E060E061
:103FC00070E004C0440F551F661F771F8A95D2F713
:103FD00080914E0290914F02A0915002B0915102F7
:103FE0008A019B01082719272A273B27C901B80105
:103FF0001F910F910C945C1F0F931F9300914E0221
:1040000010914F022091500230915102602B712B80
:10401000822B932B1F910F910C945C1F0F931F9376
:1040200000914E0210914F022091500230915102A6
:1040300060237123822393231F910F910C945C1FA3
:104040000F931F9300914E0210914F022091500246
:104050003091510260277127822793271F910F917A
:104060000C945C1F08959295907F890F982F9770FC
:1040700041E001C0440F9A95EAF7869586958695AA
:1040800095E0899FF0011124EE5EFD4F30E020E0C5
:1040900070E05191DF011197CB01022E02C096957D
:1040A00087950A94E2F78170819585278423852777
:1040B0008C932F5F3F4F2530310559F70895929526
:1040C000907F890F982F977086958695869525E025
:1040D000829FF0011124EE5EFD4F50E040E080E051
:1040E000219130E0092E02C0369527950A94E2F717
:1040F00021703327042E01C0220F0A94EAF7822B85
:104100004F5F5F4F4530510559F70895BF92CF92E9
:10411000DF92EF92FF920F931F93CF93DF938C0167
:10412000C0904E02D0904F02E0905002F0905102A9
:104130008091520290915302A0915402B091550285
:10414000C82AD92AEA2AFB2ACFE1D0E0BC2ED7011F
:10415000C6010C2E04C0B695A795979587950A942D
:10416000D2F780FD0EC0219788F7B12C8B2DDF91FF
:10417000CF911F910F91FF90EF90DF90CF90BF9064
:104180000895B8018C2F0E947708019761F3EECF54
:10419000CF93DF93EC010E948620BE01DF91CF9187
:1041A0000C9477081F93CF93DF93EB019091D90183
:1041B000992331F0CB01DF91CF911F910C94C8204E
:1041C000882379F0CB010E948620182F682FCE011A
:1041D0000E943320BE01812FDF91CF911F910C945B
:1041E0007708CB010E945F20182FF4CF682F8091B1
:1041F0000801909109010C940023682F8091080117
:10420000909109010C940223809108019091090179
:104210000C94042380915602859585958595089583
:10422000809156028770089590915602977081E0B0
:1042300009F480E00895CF93C82F8091730282FB28
:10424000992790F99C17D1F0C0FB82F980937302F3
:1042500080917202909173020E942D2280916302DC
:1042600080FF0CC01F92CF938BE09BE09F938F93B6
:104270000E9424070F900F900F900F90CF910895F8
:104280008091730282FB882780F991E089270C9442
:104290001B2181E00C941B2180E00C941B21809158
:1042A0006202089590916202892B809362020895C0
:1042B00080959091620298239093620208951092E3
:1042C0006202089590916102892B809361020895A2
:1042D00080959091610298239093610208951092C5
:1042E0006102089590916002892B80936002089585
:1042F00080959091600298239093600208951092A7
:104300006002089580915702089508950C948521C4
:104310009091730292FD08C090915702981721F076
:10432000809357020C948621089580915702882328
:1043300029F01092570280E00C9486210895E091B4
:104340000801F0910901809162028083E0910801E7
:10435000F0910901808190916102892B8083E09125
:104360000801F0910901808190916002892B80837E
:1043700090915702992381F0E0910801F091090191
:104380008081892B808380910801909109010E948E
:10439000B82281110E949521809108019091090114
:1043A0000C94331608950C94D2219091730292FDCF
:1043B00010C098E0899F90011124622B60935602EF
:1043C0000E94971F809156028595859585950C943E
:1043D000D3210C94971F1092560280E00C94D321A5
:1043E000909156028095892380935602282F27703A
:1043F00039F4282F082E000C330B9217130621F4E2
:104400009091730292FF07C08595859585950E94CE
:10441000B81F0C94EB21089590E080E00E94BC2B23
:1044200021E08A3E9E4F09F020E0822F089582E02D
:1044300090E00C94B42B83E090E00C94B42BCF93D9
:1044400084E090E00E94B42BC82F82E290E00E94AA
:10445000B42B982F8C2FCF910895CF93C92F682F0D
:1044600084E090E00E94C22B6C2F82E290E0CF911A
:104470000C94C22BAB01BC018FE090E00C94D42BC8
:10448000AB01BC0183E190E00C94D42B60E070E0C0
:10449000CB010C94402260E070E0CB010E943A22F4
:1044A0000C9446226AEE7EEF90E080E00E94E02BC2
:1044B00060E082E090E00E94C22B60E083E090E048
:1044C0000E94C22B10925202109253021092540278
:1044D0001092550260E084E090E00E94C22B60E000
:1044E00082E290E00E94C22B60E085E090E00E94B2
:1044F000C22B60E086E090E00E94C22B6FEF87E065
:1045000090E00E94C22B40E050E0BA0188E090E0C9
:104510000E94D42B60E08DE090E00E94C22B40E02E
:1045200050E0BA0188E190E00E94D42B60E087E17E
:1045300090E00E94C22B40E050E0BA018CE190E094
:104540000E94D42B70E060E080E290E00E94E02BBB
:1045500040E050E0BA0188E190E00E94D42B0C9436
:104560004B220C945222682F8EE090E00C94C22BC8
:104570009C012E5F3F4FAC01485F5F4F80E02417E6
:10458000350709F40895F90191919F019923B9F331
:104590008F5FF5CF662349F0FC0132960896219192
:1045A000261729F0E817F907D1F780E0089581E090
:1045B00008959C01FC0132969FEF80E041914617DF
:1045C00051F09F3F19F4411101C0982F8F5F863041
:1045D000A9F79F3F09F40895290F311D97FD3A95DA
:1045E000F90162830895FC01329608962191261301
:1045F00003C0DF0111971C92E817F907B9F7089576
:104600000C94D9220C94F322029626E0FC0111921C
:104610002A95E9F70895089508950C940C23809144
:104620009402843049F10E940D2380E00E944E08DC
:104630001092640288E190E020E40FB6F894A89507
:10464000809360000FBE2093600083B7817F8460F9
:1046500083BF83B7816083BF7894889583B78E7F4B
:1046600083BF0FB6F894A89580916000886180930D
:104670006000109260000FBE08950895CF930E94CD
:104680000B230E942E0B0E943D23C0E08C2F0E9422
:104690008F0A892B31F4CF5FC630C1F780E0CF910C
:1046A000089581E0FCCF08950C9453230E948A1B47
:1046B0000E9427160E944E080C9454231F921FB686
:1046C0001F9211248F939F93AF93BF9380916402A5
:1046D000811113C080918C0290918D02A0918E0265
:1046E000B0918F024196A11DB11D80938C029093D1
:1046F0008D02A0938E02B0938F02BF91AF919F91D4
:104700008F911F901FBE1F90189582E084BD93E08B
:1047100095BD9AEF97BD80936E0008952FB7F894DA
:1047200080918C0290918D02A0918E02B0918F02A7
:104730002FBF08952FB7F89460918C0270918D026D
:1047400080918E0290918F022FBF08959C014FB7E8
:10475000F89480918C0290918D02A0918E02B0917C
:104760008F024FBF821B930B089578941F921FB640
:104770001F9211248F939F93AF93BF9380918C02CC
:1047800090918D02A0918E02B0918F020196A11D91
:10479000B11D80938C0290938D02A0938E02B093F2
:1047A0008F02BF91AF919F918F911F901FBE1F905D
:1047B0001895F89481E08093E00080E28093D8001F
:1047C000E9ECF0E010828FE19EE40197F1F700C080
:1047D00000001DBA109268001CBC10BE1FBA1092D7
:1047E0007A0010926E0010926F0010927100109279
:1047F00072001082ECEBF0E0108214B817B81AB80F
:104800001DB810BA108215B818B81BB81EB811BA66
:104810000C94003F08959093A7018093A6010895FA
:10482000809170020895CF93DF9300D00F92CDB79F
:10483000DEB790919402943019F589837B836A8363
:1048400082E08093E9008FEF9091E800815095FD20
:1048500006C095ED9A95F1F700008111F5CF809192
:10486000E80085FF0DC050E040E063E070E0CE015D
:1048700001960E94EA268091E8008E778093E800F6
:104880000F900F900F90DF91CF910895BC0184E0BD
:104890000C941324BC0183E00C9413249C0182E04B
:1048A0008093E9009FEF8091E800915085FD06C05C
:1048B00085ED8A95F1F700009111F5CF8091E80020
:1048C00085FF0CC050E040E066E070E0C9010E9446
:1048D000EA268091E8008E778093E8000895CF93D0
:1048E000DF93EC0181E08093E9008FEF9091E80085
:1048F000815095FD06C095ED9A95F1F70000811164
:10490000F5CF8091E80085FF14C050E040E068E0FA
:1049100070E0CE010E94EA268091E8008E778093B5
:10492000E80088E0FE01A8E6B2E001900D928A95C9
:10493000E1F7DF91CF91089585E49BE00E948B061B
:1049400080919302811109C00E947A280E94D72881
:104950008091E20084608093E200089581E49BE00E
:104960000E948B061092930208958DE39BE00C94B5
:104970008B0689E39BE00C948B0685E39BE00C940B
:104980008B06209166022F5F822F62E30E947A2BB2
:10499000992319F02093660208951092660280917F
:1049A00067028823F1F0809194028430C1F49091E1
:1049B000E9009F702091EC00822F817020FD80E83B
:1049C000892B93E09093E9009091EB0090FF04C055
:1049D0009091EE0097FD08C08F708093E9001092CF
:1049E000670208951092F1009091E80095FDFACFCA
:1049F0009091E80090FFF0CF9091E8009E7790931F
:104A0000E800EACF42E061EC81E00E94F62742E252
:104A100061EC82E00E94F62742E261EC83E00C94B4
:104A2000F62780919602833009F45FC030F481301C
:104A3000C1F1823009F49BC008958A3009F487C01F
:104A40008B3009F46DC0893009F04EC08091950219
:104A5000813209F049C08091990290919A0202979F
:104A600008F042C08091E800877F8093E800809141
:104A7000E80082FF35C09091F3008091F200029728
:104A800029F48091F1008B7F813021F48091F10035
:104A9000809370028091E8008B778093E8000C94FB
:104AA0002A2880919502813AF9F48091E800877F65
:104AB0008093E8008091990290919A02892B61F489
:104AC00068E088E692E070E00E9439278091E80073
:104AD0008B778093E800089560E090E080E0F3CF6A
:104AE000809194028111C3CF089580919502813AFB
:104AF000D9F78091990290919A02892BA9F7809118
:104B0000E800877F8093E8008091E80080FFFCCF79
:104B1000809114018093F1008091E8008E77BDCFE1
:104B200080919502813201F78091990290919A02C9
:104B3000892BD1F68091E800877F8093E8000E945E
:104B40002A2880919702809314010C948A1B8091EB
:104B50009502813249F68091E800877F8093E800D2
:104B60000E942A2880919802809371020895809172
:104B70009502813A09F0B8CF8091E800877F809351
:104B8000E8008091E80080FFFCCF80917102C2CFE5
:104B90009FB7F894109267029FBF9091940294304F
:104BA00009F048C02091E9002F703091EC00932F5C
:104BB000917030FD90E8922B23E02093E900209142
:104BC000EB0020FF34C02091EE0027FF30C0209181
:104BD0006502222321F02091E80025FF28C01092D1
:104BE000650226E03091E80035FF14C08093F100A3
:104BF0008091E80085FD27C08091E80080FFFCCF10
:104C00008091E8008E778093E8009F709093E90090
:104C100080E0089530919402343049F43091EB00F3
:104C200035FD05C0215041F481E0809365029F70FD
:104C30009093E9008FEF0895EFE9FFE03197F1F7E6
:104C400000C00000CFCF8FB7F89421E02093670217
:104C50008FBFDBCF84B7877F84BF0FB6F894A8954A
:104C600080916000886180936000109260000FBEA8
:104C700080E890E00FB6F894809361009093610013
:104C80000FBE0E94DA160E947A280E94D7288091CF
:104C9000E20084608093E20078940E945F2B0E947F
:104CA000EE168AE091E00E94221684E29BE00E94C8
:104CB0008B0680919402853051F480E29BE00E9443
:104CC0008B0680919402853039F00E9456230E9411
:104CD0001C170E94EA16EDCF0E940F2380919202CA
:104CE000882379F30E943E23882359F30E94D42617
:104CF0000E948A1BE6CF0C947D26292F3327233070
:104D0000310521F168F42130310509F443C0223026
:104D1000310509F444C090E080E030E020E026C096
:104D20002132310551F122323105A9F76330710585
:104D300090F7FB01EE0FFF1FE656FE4F20813181F9
:104D400069567E4FFB01808190E010C09927813029
:104D5000910581F0009729F00297E9F6E9E4FBE07C
:104D600002C0E1E7FBE0849190E09F01FA0131830A
:104D700020830895EDE5FBE0F6CF6330710558F62A
:104D8000660F771FFB01E056FE4F2081318189E0DD
:104D900090E0ECCF82E190E020ED3BE0E7CF8BE5C7
:104DA00090E025E73BE0E2CF80E189BD82E189BD6B
:104DB00009B400FEFDCF8091D8008F7D8093D8008C
:104DC0008091E00082608093E0008091E00081FDAE
:104DD000FCCF0895AF92BF92CF92DF92FF920F93D4
:104DE0001F93CF93DF936C01EB018A010E94492846
:104DF000F82E811123C00115110539F0F8018081C9
:104E00009181C81BD90BC80ED91EB12CA12C20979B
:104E1000A9F08091E80085FD22C08091E8008E779E
:104E20008093E80001151105A1F0F80180819181BE
:104E3000A80EB91EB182A08285E0F82E8F2DDF91D9
:104E4000CF911F910F91FF90DF90CF90BF90AF90C7
:104E500008950E9449288823D1F2F82EEFCFF60159
:104E600081916F018093F1002197FFEFAF1ABF0A84
:104E7000CECFFC0180919B0290919C0286179707F0
:104E8000A0F06115710529F49091E8009E77909348
:104E9000E80090E06115710551F4911108C080910E
:104EA000E80082FF34C080E00895BC01F2CF809119
:104EB00094028823C1F18530C1F18091E80083FD1F
:104EC00030C08091E80082FDEACF8091E80080FF49
:104ED000E1CF8091F3002091F200382F6115710528
:104EE00019F02830310558F091E02830310509F0EB
:104EF00090E02091E8002E772093E800CBCF8191BD
:104F00008093F100615071092F5F3F4FE7CF80918F
:104F10009402882341F0853041F08091E80083FFBE
:104F2000BECF81E0089582E0089583E00895FC01FA
:104F300080919B0290919C0286179707A0F06115C3
:104F4000710529F48091E8008E778093E80090E065
:104F50006115710551F4911108C08091E80082FF3C
:104F600035C080E00895BC01F2CF8091940288237F
:104F7000C9F18530C9F18091E80083FD31C080918D
:104F8000E80082FDEACF8091E80080FFE1CF8091C8
:104F9000F3002091F200382F6115710519F02830C7
:104FA000310558F091E02830310509F090E080910A
:104FB000E8008E778093E800CBCF84918093F10056
:104FC0003196615071092F5F3F4FE6CF8091940277
:104FD000882341F0853041F08091E80083FFBDCF08
:104FE00081E0089582E0089583E00895982F973036
:104FF00028F08F708093E90081E008959093E90094
:10500000242F762F50E0981731F07091EC0020910A
:10501000ED005091F00021FD02C09F5FE8CF30917C
:10502000EB003E7F3093EB003091ED003D7F3093FD
:10503000ED003091EB0031603093EB007093EC00A9
:105040002093ED005093F0002091EE0027FDE5CF76
:1050500080E008958091950287FF13C08091E80059
:1050600082FF06C08091E8008B778093E80004C03F
:10507000809194028111F2CF089580919402882347
:10508000D9F38091E80080FFF8CF8091E8008E7717
:10509000ECCF2091E4003091E50095E6A901209144
:1050A000EC00822F817020FF06C08091E80080FF15
:1050B00006C080E008952091E80022FD1AC080918A
:1050C0009402882389F0853089F08091EB0085FD7A
:1050D0000FC02091E4003091E50042175307F9F228
:1050E0009150E1F684E0089582E0089583E0089508
:1050F00081E008950E94E8280E94F028E0EEF0E0A8
:10510000808181608083E8EDF0E080818F7780830B
:1051100019BCA7EDB0E08C918E7F8C9380818F7E3F
:1051200080831092930208950F931F93CF93DF9380
:105130000E94E8280E94F028C8EDD0E088818F778F
:10514000888388818068888388818F7D888319BC63
:105150001092940210929002109292021092910278
:1051600000EE10E0F80180818B7F80838881816070
:10517000888342E060E080E00E94F627E1EEF0E004
:1051800080818E7F8083E2EEF0E080818160808389
:10519000808188608083F80180818E7F8083888110
:1051A00080618883DF91CF911F910F910895E8ED81
:1051B000F0E080818F7E8083E7EDF0E08081816088
:1051C000808384E082BF81E0809393020C949428D2
:1051D000E8EDF0E080818E7F80831092E2000895F8
:1051E0001092DA001092E10008951F920F920FB60C
:1051F0000F9211242F933F934F935F936F937F935D
:105200008F939F93AF93BF93EF93FF938091E100B0
:1052100082FF0BC08091E20082FF07C08091E10015
:105220008B7F8093E1000E94C1248091DA0080FF8F
:1052300019C08091D80080FF15C08091DA008E7F60
:105240008093DA008091D90080FF96C080E189BD0B
:1052500082E189BD09B400FEFDCF81E08093940214
:105260000E949C248091E10080FF19C08091E2009F
:1052700080FF15C08091E2008E7F8093E2008091D4
:10528000E20080618093E2008091D8008062809388
:10529000D80019BC85E0809394020E94B9248091C3
:1052A000E10084FF2BC08091E20084FF27C080E1F1
:1052B00089BD82E189BD89B5982F917080FFFBCFB0
:1052C0008091D8008F7D8093D8008091E1008F7EFF
:1052D0008093E1008091E2008F7E8093E2008091D4
:1052E000E20081608093E20080919002882309F4BB
:1052F00049C084E0809394020E94BD248091E10023
:1053000083FF29C08091E20083FF25C08091E100E6
:10531000877F8093E10082E0809394021092900254
:105320008091E1008E7F8093E1008091E2008E7F8A
:105330008093E2008091E20080618093E20042E08D
:1053400060E080E00E94F6278091F0008860809302
:10535000F0000E94B524FF91EF91BF91AF919F9112
:105360008F917F916F915F914F913F912F910F900E
:105370000FBE0F901F90189519BC109294020E94B6
:10538000AE2470CF8091E30087FD93E09093940268
:10539000B3CF1F920F920FB60F9211242F933F930A
:1053A0004F935F936F937F938F939F93AF93BF932D
:1053B000CF93DF93EF93FF93D091E900DF7080915B
:1053C000EC00C82FC17080FDC0E81092E900809108
:1053D000F000877F8093F00078940E940D2A10924D
:1053E000E9008091F00088608093F000CD2BCF70B1
:1053F000C093E900FF91EF91DF91CF91BF91AF9101
:105400009F918F917F916F915F914F913F912F91DC
:105410000F900FBE0F901F9018951F93CF93DF939F
:10542000CDB7DEB7AA970FB6F894DEBF0FBECDBFDB
:1054300085E992E02091F100FC012193CF01F2E097
:105440008D399F07B9F70E9411258091E80083FFED
:105450001EC180919502909196029A3008F017C172
:10546000E92FF0E0EA5EF34D0C949A2B803899F026
:10547000823809F00CC1809199028F70873008F052
:1054800006C18093E9008091EB0085FB882780F9B5
:105490001092E90006C080919102909192029111C0
:1054A00082609091E800977F9093E8008093F100EC
:1054B0001092F1008091E8008E77E5C0882309F40E
:1054C000D3C0823009F0E3C0809197028111D6C029
:1054D000809199028F702FEF280F263008F0D7C0E7
:1054E0008093E9002091EB0020FFC8C0933031F495
:1054F0008091EB0080628093EB00C0C09091EB0044
:1055000090619093EB0021E030E001C0220F8A957A
:10551000EAF72093EA001092EA008091EB0088609D
:10552000EACF8111B4C0109197021F778091E300F8
:105530008078812B8093E3008091E800877F8093BF
:10554000E8000E942A288091E80080FFFCCF80912B
:10555000E30080688093E30082E0111183E0809390
:10556000940295C08058823008F091C080919702D3
:10557000909198028C3D23E09207A1F583E08A8305
:105580008AE289834FB7F894DE01139620E03EE06B
:1055900051E2E32FF0E050935700E49120FF03C065
:1055A000E295EF703F5FEF708E2F90E0EA30C0F031
:1055B000C7968D939D932F5F243159F74FBF8091EC
:1055C000E800877F8093E8006AE270E0CE010196F0
:1055D0000E9439278091E8008B778093E80057C0BC
:1055E000C096E7CF6091990270919A02AE014F5F29
:1055F0005F4F0E947B26BC01892B09F448C0909123
:10560000E800977F9093E80089819A810E9497270C
:10561000E1CF8038E1F58091E800877F8093E80052
:10562000809190028093F10045CF811130C090911C
:105630009702923060F58091E800877F8093E800C0
:10564000909390020E942A2880919002882311F062
:1056500084E005C08091E30087FDFACF81E080936C
:1056600094020E94022513C080919702813079F440
:1056700081E0933009F080E0809392021092E9007B
:105680008091E800877F8093E8000E942A2880911B
:10569000E80083FF0AC08091E800877F8093E800DC
:1056A0008091EB0080628093EB00AA960FB6F8948D
:1056B000DEBF0FBECDBFDF91CF911F910895CF9375
:1056C000809194028823A1F0C091E900CF7090915D
:1056D000EC00892F817090FD80E8C82B1092E900C2
:1056E0008091E80083FD0E940D2ACF70C093E900ED
:1056F000CF910895991B79E004C0991F961708F07F
:10570000961B881F7A95C9F78095089597FB072EF9
:1057100016F4009407D077FD09D00E94A02B07FC57
:1057200005D03EF4909581959F4F089570956195B1
:105730007F4F0895EE0FFF1F0590F491E02D09941F
:10574000AA1BBB1B51E107C0AA1FBB1FA617B707A7
:1057500010F0A61BB70B881F991F5A95A9F78095C3
:105760009095BC01CD010895F999FECF92BD81BD00
:10577000F89A992780B50895A8E1B0E042E050E09A
:105780000C94E82B262FF999FECF92BD81BDF89A93
:10579000019700B4021639F01FBA20BD0FB6F89475
:1057A000FA9AF99A0FBE08950396272F0E94C32BE9
:1057B0000E94C22B252F0E94C32B242F0C94C32B95
:1057C0000196272F0E94C32B0C94C22BDC01CB0126
:1057D000FC01F999FECF06C0F2BDE1BDF89A319601
:1057E00000B40D9241505040B8F70895F894FFCF9F
:1057F00053195319AB19AB19FD19191A80198019CE
:10580000241AB01ABF1ABF1A1B1B80198019241B37
:10581000991B991BA21BA21BA41BA21BA21BA21BB0
:10582000991B991BA91BA21BA21BA91B362A5E2A26
:10583000472B5E2A472B912AB22A472B092B152B7F
:105840002808641E140A321E580210246F244E24A5
:105850004A24462401E200E900EA00B500B600B798
:1058600000CD008301CC008A019201940121022322
:105870000224022502260227022A02B300B4006F86
:105880000070008182839192936667F0F1F4F5F6DF
:10589000F7363534979630313233379001020304AE
:1058A000050607080900E200E900EA00B500B600B5
:1058B000B700CD008301CC008A019201940121023E
:1058C000230224022502260227022A02B300B40082
:1058D0006F007000818283407B227F0C040CE20BFE
:0658E000870BA00BB90BC1
:00000001FF
